:020000040800F2
:10000000000002207D1F0008551D00085D1D00082E
:10001000651D00086D1D0008751D0008000000002A
:100020000000000000000000000000007D1D00082E
:100030008B1D000800000000991D0008A71D000886
:10004000CD1F0008CD1F0008CD1F0008CD1F0008E0
:10005000CD1F0008CD1F0008CD1F0008CD1F0008D0
:10006000CD1F0008CD1F0008CD1F0008CD1F0008C0
:10007000CD1F0008CD1F0008CD1F0008CD1F0008B0
:10008000CD1F0008CD1F0008CD1F0008CD1F0008A0
:10009000CD1F0008CD1F0008CD1F0008CD1F000890
:1000A000CD1F0008CD1F0008CD1F0008CD1F000880
:1000B000CD1F0008CD1F0008CD1F0008CD1F000870
:1000C000CD1F0008CD1F0008CD1F0008CD1F000860
:1000D000CD1F0008CD1F0008CD1F0008CD1F000850
:1000E000CD1F0008CD1F0008CD1F0008CD1F000840
:1000F000CD1F0008CD1F0008CD1F0008CD1F000830
:10010000CD1F0008CD1F0008CD1F0008CD1F00081F
:10011000CD1F0008CD1F0008CD1F0008CD1F00080F
:10012000B31D0008CD1F0008CD1F0008CD1F00081B
:10013000CD1F0008CD1F0008CD1F0008CD1F0008EF
:10014000CD1F0008CD1F0008CD1F0008CD1F0008DF
:10015000CD1F0008CD1F0008CD1F0008C11D0008DD
:10016000CD1F0008CD1F0008CD1F0008CD1F0008BF
:10017000CD1F0008CD1F0008CD1F000800000000A3
:08018000CD1F0008CD1F00088F
:1001900010B5054C237833B9044B13B10448AFF3C1
:1001A00000800123237010BD4402002000000000E5
:1001B0003077000808B5034B1BB103490348AFF380
:1001C000008008BD000000004802002030770008D1
:1001D00010F8012B11F8013B012A28BF9A42F7D0F1
:1001E000D01A70470000000000000000000000006E
:1001F00001F0FF01102A2BDB10F0070F08D010F8D8
:10020000013B013A8B422DD010F0070F42B3F6D1DB
:10021000F0B441EA012141EA014122F007047FF0F4
:1002200000070023F0E80256083C85EA010586EA4B
:10023000010685FA47F5A3FA87F586FA47F6A5FA87
:1002400087F68EB9EED1F0BC01F0FF0102F0070293
:1002500032B110F8013B013A83EA010313B1F8D13E
:100260000020704701387047002D06BF354603381F
:10027000073815F0010F07D1013015F4807F02BF58
:10028000013015F4C03F0130F0BC0138704700BFA9
:1002900081F0004102E000BF83F0004330B54FEA37
:1002A00041044FEA430594EA050F08BF90EA020FA4
:1002B0001FBF54EA000C55EA020C7FEA645C7FEA37
:1002C000655C00F0E2804FEA5454D4EB5555B8BF5A
:1002D0006D420CDD2C4480EA020281EA030382EACB
:1002E000000083EA010180EA020281EA0303362D5D
:1002F00088BF30BD11F0004F4FEA01314FF4801C30
:100300004CEA113102D0404261EB410113F0004F41
:100310004FEA03334CEA133302D0524263EB4303F8
:1003200094EA050F00F0A780A4F10104D5F1200E96
:100330000DDB02FA0EFC22FA05F2801841F10001F1
:1003400003FA0EF2801843FA05F359410EE0A5F1C5
:1003500020050EF1200E012A03FA0EFC28BF4CF0F6
:10036000020C43FA05F3C01851EBE37101F00045AC
:1003700007D54FF0000EDCF1000C7EEB00006EEBB9
:100380000101B1F5801F1BD3B1F5001F0CD3490843
:100390005FEA30004FEA3C0C04F101044FEA44529A
:1003A00012F5800F80F09A80BCF1004F08BF5FEA21
:1003B000500C50F1000041EB045141EA050130BD01
:1003C0005FEA4C0C404141EB0101013C28BFB1F513
:1003D000801FE9D291F0000F04BF01460020B1FA5E
:1003E00081F308BF2033A3F10B03B3F120020CDA31
:1003F0000C3208DD02F1140CC2F10C0201FA0CF00F
:1004000021FA02F10CE002F11402D8BFC2F1200C73
:1004100001FA02F120FA0CFCDCBF41EA0C01904029
:10042000E41AA2BF01EB0451294330BD6FEA040472
:100430001F3C1CDA0C340EDC04F11404C4F120025D
:1004400020FA04F001FA02F340EA030021FA04F36F
:1004500045EA030130BDC4F10C04C4F1200220FAC6
:1004600002F001FA04F340EA0300294630BD21FA04
:1004700004F0294630BD94F0000F83F4801306BFCA
:1004800081F480110134013D4EE77FEA645C18BFBE
:100490007FEA655C29D094EA050F08BF90EA020F55
:1004A00005D054EA000C04BF1946104630BD91EA4D
:1004B000030F1EBF0021002030BD5FEA545C05D150
:1004C0004000494128BF41F0004130BD14F580048F
:1004D0003CBF01F5801130BD01F0004545F0FE4103
:1004E00041F470014FF0000030BD7FEA645C1ABF38
:1004F000194610467FEA655C1CBF0B46024650EA6F
:10050000013406BF52EA033591EA030F41F400219A
:1005100030BD00BF90F0000F04BF0021704730B520
:100520004FF4806404F132044FF000054FF00001F5
:1005300050E700BF90F0000F04BF0021704730B5B6
:100540004FF4806404F1320410F0004548BF40428B
:100550004FF000013EE700BF42004FEAE2014FEAE0
:1005600031014FEA02701FBF12F07F4393F07F4FBB
:1005700081F06051704732F07F4208BF704793F0BE
:100580007F4F04BF41F40021704730B54FF46074D1
:1005900001F0004521F000411CE700BF50EA0102D4
:1005A00008BF704730B54FF000050AE050EA01027D
:1005B00008BF704730B511F0004502D5404261EBED
:1005C00041014FF4806404F132045FEA915C3FF42E
:1005D000D8AE4FF003025FEADC0C18BF03325FEACB
:1005E000DC0C18BF033202EBDC02C2F1200300FA7C
:1005F00003FC20FA02F001FA03FE40EA0E0021FAA1
:1006000002F11444BDE600BF70B54FF0FF0C4CF48E
:10061000E06C1CEA11541DBF1CEA135594EA0C0F40
:1006200095EA0C0F00F0DEF82C4481EA030621EA7B
:100630004C5123EA4C5350EA013518BF52EA0335B6
:1006400041F4801143F4801338D0A0FB02CE4FF068
:100650000005E1FB02E506F00042E0FB03E54FF098
:100660000006E1FB03569CF0000F18BF4EF0010E90
:10067000A4F1FF04B6F5007F64F5407404D25FEA8C
:100680004E0E6D4146EB060642EAC62141EA55513F
:100690004FEAC52040EA5E504FEACE2EB4F1FD0C81
:1006A00088BFBCF5E06F1ED8BEF1004F08BF5FEAFF
:1006B000500E50F1000041EB045170BD06F00046B1
:1006C00046EA010140EA020081EA0301B4EB5C045E
:1006D000C2BFD4EB0C0541EA045170BD41F4801156
:1006E0004FF0000E013C00F3AB8014F1360FDEBF7B
:1006F000002001F0004170BDC4F10004203C35DA57
:100700000C341BDC04F11404C4F1200500FA05F3D9
:1007100020FA04F001FA05F240EA020001F000427A
:1007200021F0004110EBD37021FA04F642EB0601F0
:100730005EEA430E08BF20EAD37070BDC4F10C041A
:10074000C4F1200500FA04F320FA05F001FA04F2DE
:1007500040EA020001F0004110EBD37041F10001CA
:100760005EEA430E08BF20EAD37070BDC4F12005D5
:1007700000FA05F24EEA020E20FA04F301FA05F23D
:1007800043EA020321FA04F001F0004121FA04F2E5
:1007900020EA020000EBD3705EEA430E08BF20EAB5
:1007A000D37070BD94F0000F0FD101F000464000EF
:1007B00041EB010111F4801F08BF013CF7D041EA71
:1007C000060195F0000F18BF704703F00046520075
:1007D00043EB030313F4801F08BF013DF7D043EA46
:1007E0000603704794EA0C0F0CEA135518BF95EAFC
:1007F0000C0F0CD050EA410618BF52EA4306D1D183
:1008000081EA030101F000414FF0000070BD50EAA1
:10081000410606BF1046194652EA430619D094EA2B
:100820000C0F02D150EA013613D195EA0C0F05D115
:1008300052EA03361CBF104619460AD181EA030169
:1008400001F0004141F0FE4141F470014FF0000021
:1008500070BD41F0FE4141F4780170BD70B54FF0BC
:10086000FF0C4CF4E06C1CEA11541DBF1CEA13553C
:1008700094EA0C0F95EA0C0F00F0A7F8A4EB05041E
:1008800081EA030E52EA03354FEA013100F0888015
:100890004FEA03334FF0805545EA131343EA1263DE
:1008A0004FEA022245EA111545EA10654FEA002693
:1008B0000EF000419D4208BF964244F1FD0404F54C
:1008C000407402D25B084FEA3202B61A65EB0305A8
:1008D0005B084FEA32024FF480104FF4002CB6EB65
:1008E000020E75EB030E22BFB61A754640EA0C00E5
:1008F0005B084FEA3202B6EB020E75EB030E22BF25
:10090000B61A754640EA5C005B084FEA3202B6EB65
:10091000020E75EB030E22BFB61A754640EA9C0024
:100920005B084FEA3202B6EB020E75EB030E22BFF4
:10093000B61A754640EADC0055EA060E18D04FEAB2
:10094000051545EA16754FEA06164FEAC30343EA52
:1009500052734FEAC2025FEA1C1CC0D111F4801F1F
:100960000BD141EA00014FF000004FF0004CB6E718
:1009700011F4801F04BF01430020B4F1FD0C88BFB7
:10098000BCF5E06F3FF6AFAEB5EB030C04BFB6EBC2
:10099000020C5FEA500C50F1000041EB045170BDB5
:1009A0000EF0004E4EEA113114EB5C04C2BFD4EBE2
:1009B0000C0541EA045170BD41F480114FF0000E66
:1009C000013C90E645EA060E8DE60CEA135594EAE2
:1009D0000C0F08BF95EA0C0F3FF43BAF94EA0C0FE5
:1009E0000AD150EA01347FF434AF95EA0C0F7FF45A
:1009F00025AF104619462CE795EA0C0F06D152EAAE
:100A000003353FF4FDAE1046194622E750EA410691
:100A100018BF52EA43067FF4C5AE50EA41047FF4A2
:100A20000DAF52EA43057FF4EBAE12E74FF0FF3C07
:100A300006E000BF4FF0010C02E000BF4FF0010CD8
:100A40004DF804CD4FEA410C7FEA6C5C4FEA430C51
:100A500018BF7FEA6C5C1BD001B050EA410C0CBFA0
:100A600052EA430C91EA030F02BF90EA020F002002
:100A7000704710F1000F91EA030F58BF994208BF69
:100A800090422CBFD8176FEAE37040F00100704726
:100A90004FEA410C7FEA6C5C02D150EA013C07D17D
:100AA0004FEA430C7FEA6C5CD6D152EA033CD3D0C8
:100AB0005DF8040B704700BF8446104662468C46C2
:100AC0001946634600E000BF01B5FFF7B7FF0028F5
:100AD00048BF10F1000F01BD4DF808EDFFF7F4FF1E
:100AE0000CBF012000205DF808FB00BF4DF808EDA9
:100AF000FFF7EAFF34BF012000205DF808FB00BFCC
:100B00004DF808EDFFF7E0FF94BF012000205DF8ED
:100B100008FB00BF4DF808EDFFF7CEFF94BF0120A2
:100B200000205DF808FB00BF4DF808EDFFF7C4FF9B
:100B300034BF012000205DF808FB00BF4FEA4102EE
:100B400012F5001215D211D56FF47873B3EB62521F
:100B500012D94FEAC12343F0004343EA505311F046
:100B6000004F23FA02F018BF404270474FF00000D8
:100B7000704750EA013005D111F0004008BF6FF016
:100B8000004070474FF00000704700BF4A0011D28C
:100B900012F5001211D20DD56FF47873B3EB6252D7
:100BA0000ED44FEAC12343F0004343EA505323FAE3
:100BB00002F070474FF00000704750EA013002D158
:100BC0004FF0FF3070474FF00000704753B94AB9FB
:100BD000002908BF00281CBF4FF0FF314FF0FF3045
:100BE00000F0BEB9ADF1080C6DE904CE00F03CF8A0
:100BF000DDF804E0DDE9022304B0704738B50022D7
:100C0000002304460D46FFF771FF28B92046294608
:100C1000BDE8384000F00AB8204605F1004100F078
:100C200005F8404261EB410138BD00BFD0B50C4B27
:100C3000002206460F46FFF7E7FCFFF7A7FF044632
:100C4000FFF768FC074B0022FFF7DEFC02460B466D
:100C500030463946FFF720FBFFF798FF2146D0BD0D
:100C60000000F03D0000F0412DE9F047089D8E4660
:100C700004468846002B4AD18A42174662D9B2FA06
:100C800082F64EB1C6F1200301FA06F820FA03F30A
:100C9000B74043EA0808B4404FEA174E1FFA87FCF2
:100CA000B8FBFEF1230C0EFB118843EA084301FB5D
:100CB0000CF29A4209D9FB1801F1FF3080F0EA806A
:100CC0009A4240F2E78002393B449A1AA3B2B2FB3F
:100CD000FEF00EFB102243EA024300FB0CFC9C4595
:100CE00009D9FB1800F1FF3280F0D6809C4540F214
:100CF000D3803B44023840EA0140A3EB0C030021BF
:100D00001DB1F3400022C5E90032BDE8F0878B42F7
:100D100005D90DB1C5E9000100210846F5E7B3FA90
:100D200083F1002946D1734502D3824200F2058146
:100D3000841A6EEB030201209046002DE5D0C5E930
:100D40000048E2E7002A00F09080B2FA82F6002E16
:100D500040F0A4808A1A030C4FEA174E80B2BCB24E
:100D60000121B2FBFEFC0EFB1C2243EA024304FB02
:100D70000CF29A4207D9FB180CF1FF3802D29A42C2
:100D800000F2E080C4469B1AB3FBFEF20EFB123366
:100D900040EA034302FB04F49C4207D9FB1802F12A
:100DA000FF3002D29C4200F2CA8002461B1B42EA7C
:100DB0000C40A5E7C1F120068B4022FA06F71F433D
:100DC0000EFA01F420FA06F32EFA06FE4FEA17494E
:100DD000234300FA01F81FFA87FCBEFBF9F01C0C54
:100DE00009FB10EE44EA0E4400FB0CFEA64502FA95
:100DF00001F209D93C1900F1FF3A80F09C80A64528
:100E000040F2998002383C44A4EB0E041FFA83FEA2
:100E1000B4FBF9F309FB13444EEA044403FB0CFC56
:100E2000A44508D93C1903F1FF3E80F08280A44517
:100E30007FD9023B3C4443EA0040A4EB0C04A0FBF6
:100E400002EC64457346E14662D35FD05DB1B8EB16
:100E5000030264EB090404FA06F622FA01F31E43C6
:100E6000CC40C5E9006400214FE7B1FBF2FC010C66
:100E700041EA0E4180B240EA01423B4638463C46D8
:100E8000B846BE462026B1FBF7F1A2EB080241EAC4
:100E90000C4166E7014618E710462CE7C6F1200230
:100EA0002EFA02F3B740B14020FA02F24FEA174E91
:100EB0000A43B3FBFEF8BCB20EFB1833110C41EA37
:100EC000034108FB04F9B04089454FEA104380B262
:100ED0003ED9791808F1FF3C01D289451FD8A1EB12
:100EE0000901B1FBFEF909FB04F80EFB191192B2DE
:100EF00042EA0142424529D2BA1809F1FF31C4D26F
:100F00004245C2D2A9F102013A44BEE7F0459DD262
:100F1000BEEB02036CEB070C0138E14696E7A7EB4A
:100F200009094944A8F1020CB1FBFEF909FB04F8D8
:100F3000DBE773467FE7504666E70846FDE63B443D
:100F4000023A33E7ACF1020C3B441CE749469CE70C
:100F5000A1EB0901C446B1FBFEF909FB04F8C4E7A3
:100F6000704700BF80B485B000AF78607B6803F045
:100F70000703FB600C4BDB68BB60BA684FF6FF03EE
:100F80001340BB60FB681A02BB68134343F0BF63A6
:100F900043F40033BB60044ABB68D36000BF14371E
:100FA000BD465DF8047B704700ED00E080B400AF03
:100FB000044BDB681B0A03F007031846BD465DF8C7
:100FC000047B704700ED00E080B483B000AF0346BF
:100FD000FB7197F90730002B0BDBFB7903F01F0245
:100FE000074997F907305B09012000FA02F241F83E
:100FF000232000BF0C37BD465DF8047B704700BF5F
:1010000000E100E080B483B000AF03463960FB71BB
:1010100097F90730002B0ADB3B68DAB20C4997F9E5
:1010200007301201D2B20B4483F800230AE03B6878
:10103000DAB20849FB7903F00F03043B1201D2B284
:101040000B441A7600BF0C37BD465DF8047B704731
:1010500000E100E000ED00E080B489B000AFF8608E
:10106000B9607A60FB6803F00703FB61FB69C3F1B9
:101070000703042B28BF0423BB61FB690433062B41
:1010800002D9FB69033B00E000237B614FF0FF3294
:10109000BB6902FA03F3DA43BB681A407B699A40E2
:1010A0004FF0FF317B6901FA03F3D9437B680B40B2
:1010B000134318462437BD465DF8047B704780B45F
:1010C00089B000AFF860B9607A60FB682C331946CC
:1010D000BB6803F440734FF440727A617A6992FA04
:1010E000A2F23A613A69BA61BA69002A01D12022B2
:1010F00003E0BA69B2FA82F2D2B2D3409B000B4449
:10110000FB61FB691A68BB6803F01F031F2101FA2A
:1011100003F3DB431A407B6803F01F01BB6803F055
:101120001F0301FA03F31A43FB691A6000BF243757
:10113000BD465DF8047B704780B483B000AF786033
:1011400039607B689B6823F480623B681A437B6844
:101150009A6000BF0C37BD465DF8047B704780B4D1
:101160008FB000AFF860B9607A60FB680C33194645
:10117000BB6803F000734FF000727A617A6992FAEB
:10118000A2F23A613A69BA61BA69002A01D1202211
:1011900003E0BA69B2FA82F2D2B2D3409B000B44A8
:1011A0007B637B6B1A68BB6803F0F8734FF0F871D0
:1011B0003962396A91FAA1F1F961F9697962796A5A
:1011C000002901D1202103E0796AB1FA81F1C9B285
:1011D000CB40072101FA03F3DB431A40BB6803F05D
:1011E000F8734FF0F871F962F96A91FAA1F1B962F6
:1011F000B96A3963396B002901D1202103E0396BC9
:10120000B1FA81F1C9B2CB40796801FA03F31A430C
:101210007B6B1A6000BF3C37BD465DF8047B7047AE
:1012200080B485B000AFF860B9607A600D4ABB68E1
:1012300013441B781A46FB6813441B6823F0C00252
:101240000849BB680B441B781946FB680B441946D8
:101250007B6813430B6000BF1437BD465DF8047B09
:10126000704700BFD478000880B485B000AFF86044
:10127000B9607A600D4ABB6813441B781A46FB6854
:1012800013441B6823F490720849BB680B441B7815
:101290001946FB680B4419467B6813430B6000BF7B
:1012A0001437BD465DF8047B704700BFD478000852
:1012B00080B485B000AFF860B9607A600D4ABB6851
:1012C00013441B781A46FB6813441B6823F400720E
:1012D0000849BB680B441B781946FB680B44194648
:1012E0007B6813430B6000BF1437BD465DF8047B79
:1012F000704700BFD478000880B485B000AFF860B4
:10130000B9607A600D4ABB6813441B781A46FB68C3
:1013100013441B6823F480620849BB680B441B78A4
:101320001946FB680B4419467B6813430B6000BFEA
:101330001437BD465DF8047B704700BFD4780008C1
:1013400080B485B000AFF860B9607A600D4ABB68C0
:1013500013441B781A46FB6813441B6823F4C052DD
:101360000849BB680B441B781946FB680B441946B7
:101370007B6813430B6000BF1437BD465DF8047BE8
:10138000704700BFD478000880B485B000AFF86023
:10139000B9607A600D4ABB6813441B781A46FB6833
:1013A00013441B6823F4C0420849BB680B441B78F4
:1013B0001946FB680B4419467B6813430B6000BF5A
:1013C0001437BD465DF8047B704700BFD478000831
:1013D00080B485B000AFF860B9607A600D4ABB6830
:1013E00013441B781A46FB6813441B6823F44032ED
:1013F0000849BB680B441B781946FB680B44194627
:101400007B6813430B6000BF1437BD465DF8047B57
:10141000704700BFD478000880B485B000AFF86092
:10142000B9607A600D4ABB6813441B781A46FB68A2
:1014300013441B6823F060620849BB680B441B78A7
:101440001946FB680B4419467B6813430B6000BFC9
:101450001437BD465DF8047B704700BFD4780008A0
:1014600080B483B000AF786039600C4A3B681344A5
:101470001B781A467B6813445B6908493A680A443A
:10148000127811467A680A4423F00403536100BFBE
:101490000C37BD465DF8047B704700BFD478000868
:1014A00080B400AF054B1B68044A43F480331360DB
:1014B00000BFBD465DF8047B704700BF00380240A6
:1014C00080B400AF074B1B6803F40033B3F5003F53
:1014D0000CBF01230023DBB21846BD465DF8047B38
:1014E000704700BF0038024080B483B000AF78601E
:1014F000064B9B6823F0030204497B6813438B600F
:1015000000BF0C37BD465DF8047B704700380240D1
:1015100080B400AF044B9B6803F00C031846BD4633
:101520005DF8047B704700BF0038024080B483B090
:1015300000AF7860064B9B6823F0F00204497B689B
:1015400013438B6000BF0C37BD465DF8047B7047CA
:101550000038024080B483B000AF7860064B9B68CF
:1015600023F4E05204497B6813438B6000BF0C37BF
:10157000BD465DF8047B70470038024080B483B0FC
:1015800000AF7860064B9B6823F4604204497B6897
:1015900013438B6000BF0C37BD465DF8047B70477A
:1015A0000038024080B400AF054B1B68044A43F08A
:1015B0008073136000BFBD465DF8047B704700BFB9
:1015C0000038024080B400AF074B1B6803F0007383
:1015D000B3F1007F0CBF01230023DBB21846BD46E8
:1015E0005DF8047B704700BF0038024080B485B0CE
:1015F00000AFF860B9607A603B600D4B5A680D4BE4
:101600001340F968BA6811437A6892010A4308499D
:1016100013434B60064B5B6823F4403204493B683C
:1016200013434B6000BF1437BD465DF8047B704721
:10163000003802400080BFFF80B485B000AF786002
:10164000084B1A6B07497B6813430B63054B1A6BF6
:101650007B681340FB60FB6800BF1437BD465DF834
:10166000047B70470038024080B485B000AF7860DA
:10167000084B1A6C07497B6813430B64054B1A6CC3
:101680007B681340FB60FB6800BF1437BD465DF804
:10169000047B70470038024080B485B000AF7860AA
:1016A000084B5A6C07497B6813434B64054B5A6CD3
:1016B0007B681340FB60FB6800BF1437BD465DF8D4
:1016C000047B70470038024080B483B000AF78607C
:1016D000064B1B6823F0070204497B6813430B6029
:1016E00000BF0C37BD465DF8047B7047003C0240EC
:1016F00080B400AF044B1B6803F007031846BD46D7
:101700005DF8047B704700BF003C024080B483B0AA
:1017100000AF7860064B1B6823F4804204497B6865
:1017200013430B6000BF0C37BD465DF8047B704768
:101730000070004080B400AF074B5B6803F4804347
:10174000B3F5804F0CBF01230023DBB21846BD4622
:101750005DF8047B704700BF0070004080B483B028
:1017600000AF786039607B685B6823F010023B68EB
:101770001A437B685A6000BF0C37BD465DF8047B96
:10178000704780B483B000AF78607B68DB6843F457
:1017900000527B68DA6000BF0C37BD465DF8047B01
:1017A000704780B483B000AF78607B681B6923F416
:1017B00090427B681A617B685B6923F02A027B6830
:1017C0005A6100BF0C37BD465DF8047B704780B49A
:1017D00083B000AF786039607B683A689A6100BF77
:1017E0000C37BD465DF8047B704780B483B000AF12
:1017F000786039603B681A047B689A6100BF0C37D7
:10180000BD465DF8047B704780B485B000AF78605A
:1018100039607B685B69FB60FA683B6813401A04B7
:10182000FB68D9433B680B401A437B689A6100BF51
:101830001437BD465DF8047B7047000080B582B068
:1018400000AF78604FF400610348FFF7DDFF00BF91
:101850000837BD4680BD00BF0010024080B582B091
:1018600002AF4FF48040FFF717FF4FF08050FFF7B3
:10187000FBFE0320FFF776FBFFF798FB03460022F1
:101880000F211846FFF7E8FB034619464FF0FF30DB
:10189000FFF7B8FB00F04AF800F014FA00F0FAF98C
:1018A00000F046F900F096F900F08AF84FF4004392
:1018B0000193164B00934FF48053144A1449154872
:1018C00002F004FB062300934FF480430F4A1049B3
:1018D000114801F0ACFC012300934FF400530B4A74
:1018E0000B490E4801F0A3FC0223009300230C4A8D
:1018F0000C490D4801F08CFB4FF47A7003F022F88C
:1019000001F0DEFD03F040F8FCE700BF00100240EC
:101910000030014060020020780200209802002080
:101920000064024000200140B802002080B500AFF2
:101930000520FFF7C9FE00BFFFF7DAFE0346052BBF
:10194000FAD14FF48040FFF7E1FEFFF7A9FD00BF99
:10195000FFF7B6FD0346012BFAD10023A82204218C
:101960004FF48000FFF742FEFFF71CFE00BFFFF7B9
:1019700029FE0346012BFAD100BFFFF7DBFE034629
:10198000002BFAD00020FFF7D1FD4FF4A050FFF755
:10199000E1FD4FF40040FFF7F1FD0220FFF7A4FD49
:1019A00000BFFFF7B5FD0346082BFAD1034801F04D
:1019B00069FA024801F074FA00BF80BD007A030A98
:1019C00080B592B000AF07F13C0300221A605A6064
:1019D0009A6007F1280300221A605A609A60DA6060
:1019E0001A6107F1180300221A605A609A60DA60DF
:1019F0003B4600221A605A609A60DA601A615A61A6
:101A00004FF48070FFF748FE0120FFF715FE0C230E
:101A10003B6003237B6000233B613B4619463E4805
:101A200000F0FDFC002200213C48FFF7F5FC0022FD
:101A300000213A48FFF7F4FB002200213748FFF766
:101A4000C7FC4FF4807200213448FFF70DFC0022E0
:101A500000213248FFF72CFC4FF4806200212F4810
:101A6000FFF74AFC4FF4006200212C48FFF768FCA6
:101A70004FF4005200212948FFF786FC0021274837
:101A8000FFF7EEFC0023FB6300233B644FF48073FD
:101A90007B6407F13C031946214800F007FB002353
:101AA000BB624FF48013FB6200233B6302237B6322
:101AB0004FF44073BB6307F128031946184800F040
:101AC00021FB4FF480611648FFF736FB4FF480335B
:101AD000BB610023FB6107F118031946114800F0B0
:101AE0009DFA114A4FF400710D48FFF7E8FA012200
:101AF0000D490B48FFF733FB0C4A40F2052108481B
:101B0000FFF7DDFA012209490548FFF728FB00BF6E
:101B10004837BD4680BD00BF00000240006402405F
:101B200000200140002301400200600203009002F7
:101B300080B590B000AF07F11803282200211846A5
:101B400003F01BFF3B4600221A605A609A60DA607D
:101B50001A615A614FF48050FFF79EFD0120FFF794
:101B60006BFDE0233B6002237B600323BB6000230B
:101B7000FB6000233B6105237B613B46194613480C
:101B800000F04DFC0023BB614FF48273FB61002326
:101B90003B6200237B620123BB624FF40073FB6254
:101BA00018233B6300237B630023BB630A23FB638F
:101BB00007F118031946064800F00FFE00210448FB
:101BC000FFF7CCFD00BF4037BD4680BD000002409E
:101BD0000030014080B58EB000AF07F11C03002239
:101BE0001A605A609A60DA601A615A619A613B1D04
:101BF00000221A605A609A60DA601A615A612020E5
:101C0000FFF74AFD0420FFF717FDC0237B60022386
:101C1000BB600323FB6000233B6100237B6108233F
:101C2000BB613B1D1946194800F0F9FBFFF7BEF9EF
:101C30000346002200211846FFF70EFA0346194614
:101C40004720FFF7DFF94720FFF7BEF94FF4E133F4
:101C5000FB6100233B6200237B620023BB620C23F9
:101C6000FB6200233B6300237B6307F11C031946DF
:101C7000074801F06DF80648FFF793FD0448FFF7A9
:101C800080FD00BF3837BD4680BD00BF0008024060
:101C90000014014080B500AF4FF48000FFF7CCFC8A
:101CA000FFF784F90346002200211846FFF7D4F914
:101CB000034619463820FFF7A5F93820FFF784F9C5
:101CC00000BF80BD80B586B000AF3B4600221A60E1
:101CD0005A609A60DA601A615A618020FFF7ACFCA2
:101CE0000120FFF7A9FC1020FFF7A6FC0420FFF756
:101CF000A3FC4FF400611648FFF777FD4FF47041E5
:101D00001348FFF764FD4FF468433B6001237B6099
:101D10000023BB600023FB6000233B613B46194668
:101D20000B4800F07CFB4FF480533B6001237B6049
:101D30000323BB600023FB6000233B613B46194645
:101D4000034800F06CFB00BF1837BD4680BD00BFE4
:101D50000010024080B400AF00BFFDE780B400AFC8
:101D600000BFFDE780B400AF00BFFDE780B400AF67
:101D700000BFFDE780B400AF00BFFDE780B400AF57
:101D800000BFBD465DF8047B704780B400AF00BF64
:101D9000BD465DF8047B704780B400AF00BFBD4610
:101DA0005DF8047B704780B500AF02F0BDFD00BF59
:101DB00080BD80B400AF00BFBD465DF8047B7047B6
:101DC00080B500AF02F0BAFA00BF80BD80B400AFAA
:101DD00001231846BD465DF8047B704780B582B08C
:101DE00000AF7860396003F029FE034616221A60BE
:101DF0004FF0FF3318460837BD4680BD80B582B02E
:101E000000AF78604FF0FF317868FFF7E7FF00BF61
:101E1000FDE780B586B000AFF860B9607A60002356
:101E20007B610AE0AFF300800146BB685A1CBA60D0
:101E3000CAB21A707B6901337B617A697B689A4206
:101E4000F0DB7B6818461837BD4680BD80B586B08C
:101E500000AFF860B9607A6000237B6109E0BB687D
:101E60005A1CBA601B781846AFF300807B690133B7
:101E70007B617A697B689A42F1DB7B681846183788
:101E8000BD4680BD80B483B000AF78604FF0FF33B3
:101E900018460C37BD465DF8047B704780B483B0AC
:101EA00000AF786039603B684FF400525A600023FD
:101EB00018460C37BD465DF8047B704780B483B08C
:101EC00000AF7860012318460C37BD465DF8047BEF
:101ED000704780B485B000AFF860B9607A600023C5
:101EE00018461437BD465DF8047B704780B586B050
:101EF00000AF7860144A154BD31A7B617B693B6154
:101F0000134B1B68002B02D1114B124A1A60104B65
:101F10001A687B6813443A699A4207D203F08EFD2F
:101F200003460C221A604FF0FF3309E0084B1B6890
:101F3000FB60074B1A687B681344054A1360FB6813
:101F400018461837BD4680BD00000220000400007E
:101F5000E80200209806002080B400AF064BD3F8BA
:101F60008830054A43F47003C2F8883000BFBD468C
:101F70005DF8047B704700BF00ED00E0DFF834D06F
:101F8000FFF7EAFF0C480D490D4A002302E0D45840
:101F9000C4500433C4188C42F9D30A4A0A4C0023B3
:101FA00001E013600432A242FBD303F04DFDFFF7C2
:101FB00055FC704700000220000000204402002071
:101FC000E07C00084402002098060020FEE780B470
:101FD00083B000AF786039607B68DB6A23F47002FD
:101FE0003B681A437B68DA6200BF0C37BD465DF878
:101FF000047B704780B483B000AF78607B689B68D7
:1020000003F00103012B0CBF01230023DBB21846B0
:102010000C37BD465DF8047B7047000090B585B075
:1020200000AF786039600023FB731C48FFF7E2FFC4
:1020300004461B48FFF7DEFF03461C431948FFF721
:10204000D9FF03462343002B20D13B685B68002B5C
:1020500012D07B685A68144B13403A6811683A688A
:10206000526811433A68926811433A68D2680A4349
:102070001A437B685A600BE07B685A680A4B13402E
:102080003A6812681A437B685A6001E00123FB73C7
:10209000FB7B18461437BD4690BD00BF00200140B1
:1020A0000021014000220140E010FCFF80B584B017
:1020B00000AF786039600023FB737868FFF79AFF00
:1020C0000346002B17D17B685B6823F0407323F431
:1020D00080733A6811683A6892680A431A437B68C9
:1020E0005A607B689B6823F400623B685B681A4314
:1020F0007B689A6001E00123FB73FB7B1846103775
:10210000BD4680BD80B584B000AF786039600023E3
:10211000FB737868FFF76EFF0346002B2BD13B68FB
:102120005B68002B09D07B685B6823F468423B68DE
:102130009B681A437B685A6005E07B685B6823F400
:1021400068427B685A607B689A680E4B13403A6815
:10215000126802F070613A68D26811433A681269F5
:102160000A431A437B689A603B685B681946786843
:10217000FFF72DFF01E00123FB73FB7B18461037AF
:10218000BD4680BDFDFCFFC080B48BB000AFF860E1
:10219000B9607A60FB681A68BB687B617B6993FAF7
:1021A000A3F33B613B69BB61BB69002B01D12023D9
:1021B00003E0BB69B3FA83F3DBB25B00032101FAEE
:1021C00003F3DB431A40BB683B623B6A93FAA3F319
:1021D000FB61FB697B627B6A002B01D1202303E05A
:1021E0007B6AB3FA83F3DBB25B00796801FA03F32D
:1021F0001A43FB681A6000BF2C37BD465DF8047BAC
:10220000704780B485B000AFF860B9607A60FB6851
:102210005A68BB68DB431A40BB68796801FB03F36B
:102220001A43FB685A6000BF1437BD465DF8047B53
:10223000704780B48BB000AFF860B9607A60FB681B
:102240009A68BB687B617B6993FAA3F33B613B6946
:10225000BB61BB69002B01D1202303E0BB69B3FA4A
:1022600083F3DBB25B00032101FA03F3DB431A4083
:10227000BB683B623B6A93FAA3F3FB61FB697B6239
:102280007B6A002B01D1202303E07B6AB3FA83F33E
:10229000DBB25B00796801FA03F31A43FB689A60CA
:1022A00000BF2C37BD465DF8047B704780B48BB00F
:1022B00000AFF860B9607A60FB68DA68BB687B6180
:1022C0007B6993FAA3F33B613B69BB61BB69002B5C
:1022D00001D1202303E0BB69B3FA83F3DBB25B00D7
:1022E000032101FA03F3DB431A40BB683B623B6AFC
:1022F00093FAA3F3FB61FB697B627B6A002B01D13C
:10230000202303E07B6AB3FA83F3DBB25B007968D6
:1023100001FA03F31A43FB68DA6000BF2C37BD46AD
:102320005DF8047B704780B48BB000AFF860B96093
:102330007A60FB681A6ABB687B617B6993FAA3F3D6
:102340003B613B69BB61BB69002B01D1202303E0EA
:10235000BB69B3FA83F3DBB29B000F2101FA03F3ED
:10236000DB431A40BB683B623B6A93FAA3F3FB6111
:10237000FB697B627B6A002B01D1202303E07B6A2F
:10238000B3FA83F3DBB29B00796801FA03F31A43D3
:10239000FB681A6200BF2C37BD465DF8047B7047AE
:1023A00080B48BB000AFF860B9607A60FB685A6A9D
:1023B000BB681B0A7B617B6993FAA3F33B613B69B2
:1023C000BB61BB69002B01D1202303E0BB69B3FAD9
:1023D00083F3DBB29B000F2101FA03F3DB431A40C6
:1023E000BB681B0A3B623B6A93FAA3F3FB61FB6980
:1023F0007B627B6A002B01D1202303E07B6AB3FA66
:1024000083F3DBB29B00796801FA03F31A43FB689C
:102410005A6200BF2C37BD465DF8047B704780B51B
:102420008AB000AF7860396000237B6200233B6292
:102430003B681B68BB61BB6993FAA3F37B617B6953
:10244000FB61FB69002B01D1202303E0FB69B3FA98
:1024500083F3DBB27B6257E03B681A6801217B6A39
:1024600001FA03F313403B623B6A002B49D03B68FF
:102470005B68012B03D03B685B68022B0DD13B6886
:102480009B681A46396A7868FFF7D3FE3B68DB68B9
:102490001A46396A7868FFF7B4FE3B681B691A462A
:1024A000396A7868FFF702FF3B685B68022B21D12D
:1024B0003B6AFB60FB6893FAA3F3BB60BB683B61BC
:1024C0003B69002B01D1202303E03B69B3FA83F37E
:1024D000DBB2072B07D83B685B691A46396A786814
:1024E000FFF721FF06E03B685B691A46396A7868A6
:1024F000FFF756FF3B685B681A46396A7868FFF752
:1025000043FE7B6A01337B623B681A687B6A22FA6E
:1025100003F3002BA0D1002318462837BD4680BD09
:1025200080B400AF044B9B6803F00C031846BD4613
:102530005DF8047B704700BF0038024080B400AFF4
:10254000044B9B6803F0F0031846BD465DF8047B1E
:10255000704700BF0038024080B400AF044B9B6856
:1025600003F4E0531846BD465DF8047B704700BF96
:102570000038024080B400AF044B9B6803F4604312
:102580001846BD465DF8047B704700BF0038024026
:1025900080B400AF044B5B6803F480031846BD466B
:1025A0005DF8047B704700BF0038024080B400AF84
:1025B000044B5B689B09C3F308031846BD465DF8EE
:1025C000047B70470038024080B400AF044B5B6866
:1025D00003F440331846BD465DF8047B704700BFE6
:1025E0000038024080B400AF044B5B6803F03F0347
:1025F0001846BD465DF8047B704700BF00380240B6
:1026000080B582B000AF786000F020F802467B68A9
:102610001A607B681B68184600F040F802467B6829
:102620005A607B685B68184600F04EF802467B688B
:102630009A607B685B68184600F05AF802467B682F
:10264000DA6000BF0837BD4680BD000080B582B0AB
:1026500000AF00237B60FFF763FF0346082B0CD01D
:10266000082B0FD8002B02D0042B03D00AE0094B13
:102670007B600AE0084B7B6007E0082000F04CF824
:10268000786002E0034B7B6000BF7B681846083728
:10269000BD4680BD0024F40000127A0080B582B0EF
:1026A00000AF7860FFF74AFF03461B0903F00F03F2
:1026B000044AD35C1A467B68D34018460837BD46A7
:1026C00080BD00BFDC78000880B582B000AF7860C4
:1026D000FFF742FF03469B0A044AD35C1A467B6815
:1026E000D34018460837BD4680BD00BFEC780008CF
:1026F00080B582B000AF7860FFF73CFF03465B0B0C
:10270000044AD35C1A467B68D34018460837BD4656
:1027100080BD00BFEC78000890B587B000AF78604E
:1027200000237B610023FB6000233B61FFF730FF48
:10273000F860FB68002B04D0FB68B3F5800F03D072
:1027400005E0124B7B6105E0114B7B6102E00F4B12
:102750007B6100BF7B68082B13D1FFF743FF024664
:102760007B69B3FBF2F4FFF721FF034603FB04F49C
:10277000FFF72AFF03461B0C01335B00B4FBF3F3A6
:102780003B613B6918461C37BD4690BD0024F400F0
:1027900000127A0080B483B000AF78607B681B6859
:1027A00003F04003402B01D1012300E00023184631
:1027B0000C37BD465DF8047B704780B483B000AF32
:1027C000786039603B689BB21A467B681A6100BF2B
:1027D0000C37BD465DF8047B704780B584B000AF10
:1027E000786039600123FB737868FFF7D3FF0346F5
:1027F000002B39D17B681B6823F47F4323F0BF0390
:102800003A6811683A68526811433A68926811430D
:102810003A68D26811433A68126911433A685269BA
:1028200011433A68926911433A68D26911433A6890
:10283000126A0A431A437B681A607B685B6823F05C
:1028400004023B685B691B0C1A437B685A603B6857
:102850001B6AB3F5005F05D13B685B6A194678686F
:10286000FFF7ABFF0023FB737B68DB6923F4006297
:102870007B68DA61FB7B18461037BD4680BD80B4AB
:1028800083B000AF78607B68DB6803F40053B3F576
:10289000005F0CBF01230023DBB218460C37BD4696
:1028A0005DF8047B704780B483B000AF7860396016
:1028B0007B681B6923F440523B681A437B681A61AA
:1028C00000BF0C37BD465DF8047B704780B483B011
:1028D00000AF786039607B685B6923F440723B68C5
:1028E0001A437B685A6100BF0C37BD465DF8047B14
:1028F000704700002DE9B04FC0B000AFC7F8FC0032
:10290000C7F8F810C7F8F420C7F8F030D7F8F4305B
:10291000B3F5004F40F00C81D7F8F8300022C7F82B
:10292000E830C7F8EC20D7E93A4522462B46911803
:1029300039665B417B66D7E91823214612EB010813
:10294000294643EB01094FF000024FF000034FEA24
:10295000C90343EA58734FEAC80290469946234692
:1029600018EB0303C7F8E0302B4649EB0303C7F825
:10297000E430D7F8F03000229A4693461AEB0A0367
:10298000BB654BEB0B03FB65D7E91623D7E9380191
:10299000FEF71CF902460B46644BA3FB02235B09BE
:1029A0009BB21B019CB2D7F8F8300022C7F8D83090
:1029B000C7F8DC20D7E9368942464B46911839657D
:1029C0005B417B65D7E9142341465118B9644946F8
:1029D0004B41FB644FF000024FF00003D7E912AB0C
:1029E0005946CB00514643EA51735146CA0010463E
:1029F0001946034642469B18C7F8D0304B460A4654
:102A000042EB0303C7F8D430D7F8F0300022C7F800
:102A1000C830C7F8CC20D7E932120B46DB183B642C
:102A2000134642EB03037B64D7E91023D7E9340153
:102A3000FEF7CCF802460B4611463C4BA3FB0123A4
:102A40005B09642202FB03F3CB1ADB0003F13202C1
:102A5000364BA3FB02235B099BB25B009BB203F4E2
:102A6000F8739BB223449CB2D7F8F8300022C7F821
:102A7000C030C7F8C420D7E9308942464B46911888
:102A8000B9635B41FB63D7E90E23414651183963B3
:102A900049464B417B634FF000024FF00003D7E9FA
:102AA0000CAB5946CB00514643EA51735146CA001C
:102AB00010461946034642469B18C7F8B8304B46A5
:102AC0000A4642EB0303C7F8BC30D7F8F0300022C7
:102AD000C7F8B030C7F8B420D7E92C120B46DB1882
:102AE000BB62134642EB0303FB62D7E90A23D7E933
:102AF0002E01FEF76BF802460B460C4BA3FB0213AC
:102B00005B09642101FB03F3D31ADB003233074A6C
:102B1000A2FB03235B099BB203F007039BB2234490
:102B20009BB21A46D7F8FC309A6008E11F85EB513A
:102B3000D7F8F8300022C7F8A830C7F8AC20D7E99A
:102B40002A8942464B46911839625B417B62D7E93C
:102B5000082341465418494643EB01054FF0000253
:102B60004FF00003EB0043EA5473E20014461D46A5
:102B70004346E318C7F8A0304B4645EB0303C7F8BC
:102B8000A430D7F8F0300022C7F89830C7F89C205E
:102B90004FF000024FF00003D7E9264529468B008D
:102BA000214643EA917321468A00D7E92801FEF7BE
:102BB0000DF802460B46654BA3FB02235B099BB253
:102BC0001B019CB2D7F8F8300022C7F89030C7F844
:102BD0009420D7E9248942464B469118B9615B415C
:102BE000FB61D7E9062341465118396149464B41FB
:102BF0007B614FF000024FF00003D7E904AB594668
:102C0000CB00514643EA51735146CA00104619465B
:102C1000034642469B18C7F888304B460A4642EBAB
:102C20000303C7F88C30D7F8F0300022C7F88030A3
:102C3000C7F884204FF000024FF00003D7E9208945
:102C400049468B00414643EA917341468A00D7E9E1
:102C50002201FDF7BBFF02460B4611463B4BA3FB8F
:102C600001235B09642202FB03F3CB1A1B013233FD
:102C7000364AA2FB03235B099BB203F0F0039BB22D
:102C800023449CB2D7F8F8300022BB67FA67D7E933
:102C90001E8942464B469118B9605B41FB60D7E9FB
:102CA000022341465118396049464B417B604FF041
:102CB00000024FF00003D7E900AB5946CB00514664
:102CC00043EA51735146CA0010461946034642462C
:102CD0009B183B674B460A4642EB03037B67D7F8DA
:102CE000F0300022BB66FA664FF000024FF000039E
:102CF000D7E91A8949468B00414643EA9173414618
:102D00008A00D7E91C01FDF761FF02460B460F4B15
:102D1000A3FB02135B09642101FB03F3D31A1B011C
:102D200032330A4AA2FB03235B099BB203F00F0371
:102D30009BB223449BB21A46D7F8FC309A6000BF7E
:102D400007F58077BD46BDE8B08F00BF1F85EB510A
:102D500080B588B000AF786039600123FB7700232D
:102D6000BB617868FFF78BFD0346002B5ED17B6863
:102D7000DB6823F4164323F00C033A6851683A6881
:102D8000D26811433A68126911433A6892690A435A
:102D90001A437B68DA603B689B6819467868FFF7DE
:102DA00082FD3B685B6919467868FFF78FFD07F184
:102DB00008031846FFF724FC7B681F4A934202D1A0
:102DC0007B69BB6121E07B681C4A934202D13B696D
:102DD000BB611AE07B681A4A934202D13B69BB612E
:102DE00013E07B68174A934202D17B69BB610CE018
:102DF0007B68154A934202D13B69BB6105E07B6861
:102E0000124A934201D13B69BB61BB69002B0DD0D3
:102E10003B681B68002B09D00023FB773B689A694D
:102E20003B681B68B9697868FFF764FDFB7F18464B
:102E30002037BD4680BD00BF001001400044004067
:102E40000048004000140140004C00400050004089
:102E500080B483B000AF786039607A683B68B2FBB9
:102E6000F3F3074A013B5360054B00229A60044B81
:102E700005221A6000BF0C37BD465DF8047B704721
:102E800010E000E080B582B000AF78604FF47A7156
:102E90007868FFF7DDFF00BF0837BD4680BD000042
:102EA00080B483B000AF7860044A7B68136000BFD1
:102EB0000C37BD465DF8047B704700BF2C00002036
:102EC00080B483B000AF78607B689B6843F00102F8
:102ED0007B689A6000BF0C37BD465DF8047B704785
:102EE00080B483B000AF78607B689B6803F0010317
:102EF000012B0CBF01230023DBB218460C37BD4663
:102F00005DF8047B704780B483B000AF78607B6865
:102F10009B6843F080427B689A6000BF0C37BD46D7
:102F20005DF8047B7047000080B483B000AF786028
:102F300039600C4A3B6813441B781A467B6813447B
:102F40001B6808493A680A44127811467A680A44AC
:102F500043F00103136000BF0C37BD465DF8047BEE
:102F6000704700BFF478000880B485B000AFF86007
:102F7000B9607A600D4ABB6813441B781A46FB6837
:102F800013445B681B0C1B040849BA680A44127896
:102F90001146FA680A4411467A6813434B6000BF31
:102FA0001437BD465DF8047B704700BFF478000815
:102FB00080B485B000AFF860B9607A60074ABB683A
:102FC00013441B781A46FB6813441A467B68D36087
:102FD00000BF1437BD465DF8047B7047F4780008E5
:102FE00080B485B000AFF860B9607A60074ABB680A
:102FF00013441B781A46FB6813441A467B68936097
:1030000000BF1437BD465DF8047B7047F4780008B4
:1030100080B584B000AFF860B9607A603B60FB684F
:10302000BA681A60FB687A685A60FB683A689A6006
:10303000FB68BA69DA62FB685868FB689968FB68E4
:103040001B684C331A46FFF7CBFFFB685868FB68D8
:103050009968FB680C331A46FFF7AAFFFB685868AB
:10306000FB689968FB68DB6A1A46FFF77DFFFB681F
:103070005A68FB689B6819461046FFF755FF05E044
:10308000FB681B681846FFF71BFF00BFFB681B6847
:103090001846FFF725FF0346002BF1D0FB681B689D
:1030A0001846FFF730FF00BF1037BD4680BD80B423
:1030B00083B000AF78607B681B6843F040027B6898
:1030C0001A6000BF0C37BD465DF8047B704780B4C2
:1030D00083B000AF78607B681B6803F04003402B2F
:1030E00001D1012300E0002318460C37BD465DF8EE
:1030F000047B704780B483B000AF78607B689B68C6
:1031000003F00203022B01D1012300E00023184643
:103110000C37BD465DF8047B704780B483B000AFC8
:1031200078607B689B6803F08003802B01D10123CA
:1031300000E0002318460C37BD465DF8047B70475D
:1031400080B485B000AF78600B46FB707B680C33B1
:10315000FB60FB68FA781A7000BF1437BD465DF853
:10316000047B704780B483B000AF786039607B68BF
:103170003A689A6100BF0C37BD465DF8047B704722
:1031800080B483B000AF786039603B681A047B6814
:103190009A6100BF0C37BD465DF8047B704780B56F
:1031A00084B000AF786000BF7B681B681846FFF7EB
:1031B000A1FF0346002BF7D07B685A687B689B68A9
:1031C00019461046FFF7DCFF7B681B7B013BFB6069
:1031D0001EE07B6818687A68FB6813440D331B781F
:1031E0001946FFF7ADFF00BF7B681B681846FFF765
:1031F00081FF0346002BF7D000BF7B681B68184691
:10320000FFF78BFF0346002BF7D1FB68013BFB6008
:10321000FB68002BDDDA7B685A687B689B6819467F
:103220001046FFF79FFF00BF1037BD4680BD80B539
:103230008CB000AFF860B9607A603B60FB68BA6838
:103240001A60FB6897F838201A73FB687A685A602E
:10325000FB683A689A6007F1140300221A605A600A
:103260009A60DA601A615A61FB689B687B6101238E
:10327000BB610223FB6100233B6200237B62FB688E
:103280005B6807F1140211461846FFF7C8F8FB689F
:103290005A68FB689B6819461046FFF763FF0023D6
:1032A000FB6208E0FA68FB6A13440D3300221A70CF
:1032B000FB6A0133FB62FB681B7B1A46FB6A934285
:1032C000F0DB05E0FB681B681846FFF7F0FE00BF67
:1032D000FB681B681846FFF7FAFE0346002BF1D087
:1032E000F868FFF75CFF00BF3037BD4680BD0000C7
:1032F00080B584B000AF78600B46FB70FB78242B60
:1033000003D97B681B7B062B5AD0FB78082B03D98B
:103310007B681B7B012B55D07B681B7B062B38D130
:103320000023FB6008E07A68FB6813440D33002239
:103330001A70FB680133FB607B681B7B1A46FB68D5
:103340009342F0DBFB78002B36D0FB78013B1F4A21
:1033500082FB0312DB17D31AFB72FB785A1E1B4B3E
:1033600083FB0231D317C91A0B465B000B445B0089
:10337000D11A0B46BB72BB7A012202FA03F3DAB20E
:10338000FB7A02F03F02D1B27A6813440A465A73BC
:1033900012E07B681B7B012B0ED1FB78002B08D041
:1033A000FB78013B012202FA03F3DAB27B685A731D
:1033B00002E07B6800225A737868FFF7F0FE02E0B3
:1033C00000BF00E000BF1037BD4680BDABAAAA2AEF
:1033D00080B584B000AF78600023FB6008E07A68B5
:1033E000FB6813440D3300221A70FB680133FB6045
:1033F0007B681B7B1A46FB689342F0DB7868FFF71B
:10340000CEFE00BF1037BD4680BD000080B586B03F
:1034100000AF78600123FB7300233B617B687B6115
:103420001FE07B691B78202B05D17B6900221A7075
:103430000123FB7312E0FB7B002B0FD03B69072BB2
:103440000AD81D493B697A6941F823203B69013359
:103450003B610023FB7301E0022328E07B69013319
:103460007B617B691B78002BDBD13B69002B1DD076
:10347000124BBB6016E0104B1A68BB681B681946FC
:103480001046FCF7A5FE0346002B08D1BB685B681D
:103490003A690949104698470346DBB207E0BB6822
:1034A0000C33BB60BB681B68002BE4D101231846BA
:1034B0001837BD4680BD00BFEC020020440000204C
:1034C00080B500AF00F0AAFF01F016F80346074AE6
:1034D000136020220021064802F04FFA054B00221B
:1034E0001A70054800F0D6FF00BF80BD1003002011
:1034F000140300203403002040780008000000007E
:10350000B0B58AB000AF87ED020B786039607B6898
:103510007B627B6A3B623B68022B01DD02233B60DE
:103520004FF000024FF00003D7E90201FDF7DEFA89
:103530000346002B0AD0BC68FB6883F00045C7E94E
:1035400002457B6A5A1C7A622D221A703B68002B56
:103550004FDA4FF000027C4BD7E90201FDF7C6FAC3
:103560000346002B02D006233B6042E04FF00002EE
:10357000764BD7E90201FDF7B9FA0346002B02D0DA
:1035800005233B6035E04FF00002714BD7E90201A3
:10359000FDF7ACFA0346002B02D004233B6028E081
:1035A0004FF000026B4BD7E90201FDF79FFA03468B
:1035B000002B02D003233B601BE05FA3D3E9002371
:1035C000D7E90201FDF792FA0346002B02D002234D
:1035D0003B600EE05AA3D3E90023D7E90201FDF7CF
:1035E00085FA0346002B02D001233B6001E0002353
:1035F0003B603B68002B0DD0574A3B68DB0013440F
:10360000D3E90023D7E90201FCF748FE02460B4646
:10361000C7E90223D7E90201FDF790FA0346FB61EF
:10362000F869FCF787FF02460B46D7E90201FCF771
:1036300033FE02460B46C7E90223FB69002B05D186
:103640007B6A5A1C7A6230221A7038E07B6A3B62CD
:103650001AE0FA69414B83FB02139910D317C91A78
:103660000B469B000B445B00D11ACAB23B6A591C43
:1036700039623032D2B21A70FB69384A82FB0312C7
:103680009210DB17D31AFB61FB69002BE1D13B6A77
:10369000BB610EE03B6A013B3B623B6A1B78FB75FA
:1036A0007B6A1A783B6A1A707B6A5A1C7A62FA7DC6
:1036B0001A703A6A7B6A9A42ECD8BB697B623B68B3
:1036C000002B30D07B6A5A1C7A622E221A7025E0B9
:1036D0004FF000021D4BD7E90201FCF795FF0246AF
:1036E0000B46C7E90223D7E90201FDF74FFA03466B
:1036F000FB757B6A5A1C7A62FA7D3032D2B21A703C
:10370000FB7D1846FCF716FF02460B46D7E902017F
:10371000FCF7C2FD02460B46C7E902233B685A1E6E
:103720003A60002BD4D17B6A00221A707B6818465D
:103730002837BD46B0BD00BF000000000088C34070
:1037400000000000006AF8400000F03F0000244044
:103750000000594000408F400079000867666666A7
:1037600080B485B000AFF860B9607A603B60FA68F9
:10377000BB68D31AB9693A688A1A03FB02F27968FE
:10378000BB68CB1A92FBF3F23B681344184614371C
:10379000BD465DF8047B704780B584B000AF7860AB
:1037A0005CE0364B1B68184600F06FFC0346FB7369
:1037B000FB7B184600F04AFEFB7B0D2B02D0FB7B07
:1037C0000A2B27D12E4B1B78002B1FD02C4B1B789C
:1037D0001A462C4B00219954294B1B780133DAB23D
:1037E000274B1A702748FFF711FE0346BB73244B83
:1037F00000221A7097F90E30234A52F823301846E7
:1038000000F048FE214800F045FE27E0204800F087
:1038100041FE23E0FB7B082B02D0FB7B7F2B0AD1F0
:10382000174B1B78002B19D0154B1B78013BDAB2D4
:10383000134B1A7012E0124B1B781946114AFB7B8E
:1038400053540F4B1B780133DAB20D4B1A700C4BEB
:103850001B781F2B02D90A4B00221A70074B1B68DA
:10386000184600F0D3FB034683F00103DBB2002BC4
:1038700097D100BF00BF1037BD4680BD10030020A8
:103880003403002014030020300000205C7800087E
:103890006078000880B584B000AF786039600F4868
:1038A00000F0F8FD0E4BFB600FE0FB681B6818464C
:1038B00000F0F0FDFB689B68184600F0EBFD09483E
:1038C00000F0E8FDFB680C33FB60FB681B68002B15
:1038D000EBD1002318461037BD4680BD687800083C
:1038E000440000208078000880B586B002AF786080
:1038F00039603B6808331B68184601F0A2F803469C
:10390000FB733B680C331B68184601F097F853ECC7
:10391000102B10461946FDF739F90346BB733B6877
:1039200004331B6851491846FCF752FC0346002B30
:1039300045D1FB7B002B12D17B68022B01DC0323DA
:1039400090E07B68032B01DD02238BE000214848D7
:1039500000F052FA4748FFF73BFD002382E0FB7B73
:10396000002B27D0FB7B242B24D87B68032B01DC86
:10397000032377E07B68042B01DD022372E0BB7B2D
:10398000642B01D904236DE0B87BFF23009300234F
:1039900064220021FFF7E4FE03463B733B7B1A469B
:1039A0000021334800F07EFAFB7B19463148FFF7CF
:1039B0009FFC56E0FB7B242B53D9042352E03B6849
:1039C00004331B682C491846FCF702FC0346002B05
:1039D00045D1FB7B002B12D17B68022B01DC03233A
:1039E00040E07B68032B01DD02233BE001212048FE
:1039F00000F002FA2148FFF7EBFC002332E0FB7BEA
:103A0000002B27D0FB7B082B24D87B68032B01DC01
:103A1000032327E07B68042B01DD022322E0BB7B2C
:103A2000642B01D904231DE0B87BFF2300930023FE
:103A300064220021FFF794FE03467B737B7B1A46CA
:103A400001210B4800F02EFAFB7B19460B48FFF7CB
:103A50004FFC06E0FB7B082B03D9042302E0042380
:103A600000E0002318461037BD4680BD847800086A
:103A70006002002078020020887800089802002068
:103A800080B485B000AF0346FB80FB884FF47A72A8
:103A900002FB03F307EE903AF8EEE77A9FED0D7A1A
:103AA00027EE877ADFED0C6AC7EE267AC7ED037A38
:103AB00097ED037ADFED096AC7EE267AC7ED037A40
:103AC000FB6807EE903AB0EE670A1437BD465DF822
:103AD000047B70473333534000F07F4500007A4346
:103AE000B0B586B000AF786039607B68012B01DC2F
:103AF000032355E07B68022B01DD022350E03B6885
:103B000004331B6828491846FCF762FB0346002B68
:103B10001CD1264800F0BEFC254B9B891846FFF7B8
:103B2000AFFF87ED050A7869FCF716FD04460D46E0
:103B300007F108030221184645EC104BFFF7E0FCA3
:103B4000034619461B4800F0DDFE28E03B680433BD
:103B50001B6819491846FCF73BFB0346002B1CD198
:103B6000164800F097FC124BDB891846FFF788FFD8
:103B700087ED050A7869FCF7EFFC04460D4607F16E
:103B800008030221184645EC104BFFF7B9FC034629
:103B90001946084800F0B6FE01E0042300E00023C7
:103BA00018461837BD46B0BD847800088C780008E8
:103BB000B80200209C78000888780008A4780008E3
:103BC00080B483B000AF78607B681B6843F040022C
:103BD0007B681A6000BF0C37BD465DF8047B7047F8
:103BE00080B483B000AF78607B681B6803F040034B
:103BF000402B01D1012300E0002318460C37BD46BD
:103C00005DF8047B704780B483B000AF78607B6858
:103C10009B6803F00203022B01D1012300E0002383
:103C200018460C37BD465DF8047B704780B483B0FE
:103C300000AF78607B689B6803F08003802B01D124
:103C4000012300E0002318460C37BD465DF8047BD5
:103C5000704780B485B000AF78600B46FB707B681E
:103C60000C33FB60FB68FA781A7000BF1437BD464E
:103C70005DF8047B704780B485B000AF78600B4678
:103C80007B807B680C33FB60FB687A881A8000BFFE
:103C90001437BD465DF8047B704780B483B000AF35
:103CA000786039607B683A689A6100BF0C37BD461E
:103CB0005DF8047B704780B483B000AF78603960F2
:103CC0003B681A047B689A6100BF0C37BD465DF8FB
:103CD000047B704780B584B000AF786000BF7B681C
:103CE0001B681846FFF78FFF0346002BF7D0002311
:103CF000FB6076E07B685A687B689B6819461046D3
:103D0000FFF7D9FFFB68002B0CD07A68FB681344DF
:103D100014331B781BB21B011AB2364B13431BB270
:103D20009BB20BE07A68FB68134414331B781BB218
:103D30001B011BB243F440531BB29BB27B817B68D7
:103D40001A687B891B0A9BB2DBB219461046FFF743
:103D500080FF00BF7B681B681846FFF754FF0346CF
:103D6000002BF7D000BF7B681B681846FFF75EFF8B
:103D70000346002BF7D17B681B687A89D2B21146C3
:103D80001846FFF766FF00BF7B681B681846FFF701
:103D90003AFF0346002BF7D000BF7B681B6818462C
:103DA000FFF744FF0346002BF7D17B685A687B6816
:103DB0009B6819461046FFF770FF7B68DA687B68DE
:103DC0001B6919461046FFF776FF00BF7B68DA686B
:103DD0007B681B6919461046FFF75FFFFB680133DC
:103DE000FB60FB68012B85DD00BF00BF1037BD46BF
:103DF00080BD00BF00B0FFFF80B584B000AF786029
:103E00000B46FB7000BF7B681B681846FFF7FBFE84
:103E10000346002BF7D07B685A687B689B6819467D
:103E20001046FFF748FFFB78002B02D04FF42043E9
:103E300001E04FF40053FB817B681B68FA8911464F
:103E40001846FFF718FF00BF7B681B681846FFF78E
:103E5000DAFE0346002BF7D000BF7B681B681846CC
:103E6000FFF7E4FE0346002BF7D17B685A687B68B6
:103E70009B6819461046FFF710FF7B68DA687B687D
:103E80001B6919461046FFF716FF00BF7B68DA680A
:103E90007B681B6919461046FFF7FFFE00BF10370D
:103EA000BD4680BD80B582B000AF78600B46FB7028
:103EB0001346BB70FB787A681344BA781A75786831
:103EC000FFF708FF00BF0837BD4680BD80B58CB046
:103ED00000AFF860B9607A603B60FB68BA681A604E
:103EE000FB687A685A60FB683A689A60FB68BA6B4C
:103EF000DA60FB68FA6B1A6107F1140300221A609A
:103F00005A609A60DA601A615A61FB689B687B614B
:103F10000123BB610223FB6100233B6200237B6220
:103F2000FB685B6807F1140211461846FEF777FA42
:103F3000FB681B697B61FB68DB6807F114021146B3
:103F40001846FEF76CFAFB685A68FB689B681946CE
:103F50001046FFF7A2FEFB68DA68FB681B6919468A
:103F60001046FFF79AFE0023FB6208E0FA68FB6A3E
:103F70001344143300221A70FB6A0133FB62FB6A9C
:103F8000012BF3DD05E0FB681B681846FFF718FE00
:103F900000BFFB681B681846FFF722FE0346002B94
:103FA000F1D0F868FFF796FE00BF3037BD4680BD00
:103FB00080B483B000AF786072B600BF7B68002227
:103FC000A3F800217B680022A3F802217B6800226D
:103FD000A3F8042162B600BF00BF0C37BD465DF8F0
:103FE000047B704780B483B000AF78607B68B3F81F
:103FF00004319BB2B3F5807F0CBF01230023DBB2F9
:1040000018460C37BD465DF8047B704780B483B01A
:1040100000AF78607B68B3F804319BB2002B0CBF13
:1040200001230023DBB218460C37BD465DF8047B44
:10403000704780B483B000AF03463960FB713B68C2
:104040003A68B2F8002192B21344FA791A7072B643
:1040500000BF3B68B3F800319BB201339BB2DBB2C7
:104060009AB23B68A3F800213B68B3F804319BB2D5
:1040700001339AB23B68A3F8042162B600BF00BFC7
:104080000C37BD465DF8047B704780B485B000AF47
:1040900078607B687A68B2F8022192B213441B7888
:1040A000FB7372B600BF7B68B3F802319BB2013379
:1040B0009BB2DBB29AB27B68A3F802217B68B3F8AB
:1040C00004319BB2013B9AB27B68A3F8042162B62B
:1040D00000BFFB7B18461437BD465DF8047B704774
:1040E00080B483B000AF78607B681B6803F0020384
:1040F000022B0CBF01230023DBB218460C37BD4650
:104100005DF8047B704780B483B000AF78607B6853
:104110001B6803F00403042B0CBF01230023DBB254
:1041200018460C37BD465DF8047B704780B483B0F9
:1041300000AF78607B681B6803F00803082B0CBF96
:1041400001230023DBB218460C37BD465DF8047B23
:10415000704780B483B000AF78607B681B6803F061
:104160002003202B0CBF01230023DBB218460C37A1
:10417000BD465DF8047B704780B483B000AF7860C3
:104180007B681B6803F08003802B0CBF0123002396
:10419000DBB218460C37BD465DF8047B704780B42F
:1041A00085B000AF78607B681B68FB60FB687B684C
:1041B0005B68FB60FB6800BF1437BD465DF8047B9D
:1041C000704780B485B000AF78607B681B68FB6087
:1041D000FB687B685B68FB60FB6800BF1437BD460B
:1041E0005DF8047B704780B485B000AF78607B6871
:1041F0001B68FB60FB687B685B68FB60FB6800BF5B
:104200001437BD465DF8047B704780B489B000AFB9
:1042100078607B680C33FB60FB6853E8003FBB6051
:10422000BB6843F02003FB617B680C33FA69BA6119
:104230007B617969BA6941E800233B613B69002BE6
:10424000E7D100BF00BF2437BD465DF8047B70474F
:1042500080B489B000AF78607B680C33FB60FB688A
:1042600053E8003FBB60BB6843F08003FB617B68A1
:104270000C33FA69BA617B617969BA6941E8002354
:104280003B613B69002BE7D100BF00BF2437BD462F
:104290005DF8047B704780B489B000AF78607B68BC
:1042A0000C33FB60FB6853E8003FBB60BB6823F046
:1042B0008003FB617B680C33FA69BA617B617969C1
:1042C000BA6941E800233B613B69002BE7D100BF9D
:1042D00000BF2437BD465DF8047B704780B483B0CF
:1042E00000AF78607B68DB6803F02003202B0CBFF5
:1042F00001230023DBB218460C37BD465DF8047B72
:10430000704780B483B000AF78607B685B68DBB2D5
:1043100018460C37BD465DF8047B704780B483B007
:1043200000AF78600B46FB70FA787B685A6000BF7C
:104330000C37BD465DF8047B7047000080B582B045
:1043400000AF3448FFF718FF0346002B1ED0324B56
:104350001B6803F583731846FFF758FE034683F086
:104360000103DBB2002B0ED02B4B1B6803F58373CC
:104370001846FFF78AFE0346FB71FB79194625486C
:10438000FFF7CCFF02E02348FFF785FF2148FFF746
:10439000E0FE0346002B3AD01E48FFF79FFF03467E
:1043A000002B34D01B48FFF7ACFF0346BB71194804
:1043B000FFF7BCFE0346002B0BD11648FFF790FE1B
:1043C0000346002B05D11348FFF79DFE0346002B43
:1043D00009D01048FFF707FF0E48FFF7E0FE0D4831
:1043E000FFF7EFFE12E00C4B1B681846FFF7FAFDD3
:1043F000034683F00103DBB2002B07D0064B1B689A
:104400001A46BB7911461846FFF713FE00BF08375E
:10441000BD4680BD001401407400002080B500AF8F
:10442000084B1B6803F583731846FFF7C1FD054B66
:104430001B681846FFF7BCFD0348FFF7E6FE00BF08
:1044400080BD00BF740000200014014080B582B020
:1044500000AF0346FB7100BF0C4B1B6803F5837371
:104460001846FFF7BFFD0346002BF5D1074B1B682D
:1044700003F58372FB7911461846FFF7DAFD04480D
:10448000FFF7E6FE00BF0837BD4680BD7400002080
:104490000014014080B582B000AF786006E07B6810
:1044A0005A1C7A601B781846FFF7D0FF7B681B7890
:1044B000002BF4D100BF00BF0837BD4680BD80B5DA
:1044C00084B000AF78600B46FB700023FB7309E0FB
:1044D0007B685A1C7A601B781846FFF7B7FFFB7B96
:1044E0000133FB73FA7BFB789A42F1D300BF00BF24
:1044F0001037BD4680BD000080B400AF034B1B6881
:104500001846BD465DF8047B704700BF740000206C
:1045100080B58EB000AF78603960E2E10023FB62C5
:1045200002E0FB6A0133FB62FB6A7A6813441B7882
:10453000252B05D0FB6A7A6813441B78002BF0D139
:10454000FB6ADBB219467868FFF7B9FFFB6A7A6845
:1045500013447B607B681B78252B40F0C2817B680D
:1045600001337B6000233B62202387F837307B6870
:104570005A1C7A601B78253B532B00F2AC8101A2B8
:1045800052F823F0C9480008D7480008D748000867
:10459000D7480008D7480008D7480008D74800087F
:1045A000D7480008D7480008D7480008D74800086F
:1045B000D5460008D5460008D5460008D54600086F
:1045C000D5460008D5460008D5460008D54600085F
:1045D000D5460008D5460008D7480008D748000847
:1045E000D7480008D7480008D7480008D74800082F
:1045F000D7480008D7480008D7480008D74800081F
:10460000D7480008D7480008D7480008D74800080E
:10461000D7480008D7480008D7480008D7480008FE
:10462000D7480008D7480008D7480008D7480008EE
:10463000D7480008D7480008D7480008D7480008DE
:10464000D7480008D7480008D7480008D7480008CE
:10465000B9470008D7480008D7480008D7480008DD
:10466000D7480008D7480008D7480008D7480008AE
:10467000D7480008D7480008D7480008094700086D
:1046800021470008D7480008D7480008D748000845
:10469000D748000821470008D7480008D748000835
:1046A000D7480008D7480008D7480008D74800086E
:1046B000B9470008D7480008D74800084B4700080A
:1046C000D7480008A1470008D7480008D748000885
:1046D000B94700087B68013B1B78302B05D13B6A4A
:1046E000002B02D1302387F837303A6A13469B00FB
:1046F00013445B003B627B68013B1B781A463B6AB4
:104700001344303B3B6232E73B681A1D3A601B683A
:10471000BB6207F1280301211846FFF7D0FEE0E055
:104720003B681A1D3A601B68BB6200237B62BB6A50
:10473000002B05DABB6A5B42BB620123BB6101E06F
:104740000023BB610A23FB6141E03B681A1D3A600C
:104750001B683B630023FB6202E0FB6A0133FB62E0
:10476000FB6A3A6B13441B78002BF6D1FB6ADBB271
:104770001946386BFFF7A3FE3A6AFB6A9A4240F289
:10478000AF80FB6A3A6AD31A3B6203E001215A48C0
:10479000FFF795FE3B6A5A1E3A62002BF6D19FE066
:1047A0003B681A1D3A601B68BB6200237B620A23C8
:1047B000FB610023BB610AE03B681A1D3A601B687D
:1047C000BB6200237B621023FB610023BB610123DA
:1047D000FB6207E0FB69FA6A02FB03F3FB623B6AD8
:1047E000013B3B62FB6AFA6903FB02F2BB6A9A4235
:1047F00009D8FB6AFA6903FB02F2FB69B2FBF3F228
:10480000FB6A9A42E6D0BB69002B02D03B6A013BAF
:104810003B62BB69002B0DD097F83730302B09D1A4
:104820007B6A5A1C7A6238333B442D2203F8302CC1
:104830000023BB613B6A012B15D93B6A0F2B12D8B1
:104840003B6A013B3B620BE07B6A5A1C7A6238335D
:104850003B4497F8372003F8302C3B6A013B3B621E
:104860003B6A002BF0D1BB69002B21D07B6A5A1C1C
:104870007A6238333B442D2203F8302C18E01F486D
:10488000BA6AFB6AB2FBF3F3FA69B3FBF2F101FB1C
:1048900002F29B1AC2187B6A591C7962127838336B
:1048A0003B4403F8302CFB69FA6AB2FBF3F3FB627A
:1048B000FB6A002BE3D17B6ADAB207F108031146E9
:1048C0001846FFF7FCFD0CE07B68013B0121184610
:1048D000FFF7F5FD05E005210948FFF7F0FD00E0D1
:1048E00000BF7B681B78002B7FF418AE00BF00BFB1
:1048F0003837BD4680BD00BFC8780008B4780008CE
:10490000CC7800080FB480B582B000AF07F1140373
:104910007B6079683869FFF7FBFD00BF0837BD464B
:10492000BDE8804004B0704780B400AF044B1B6802
:104930000133034A136000BFBD465DF8047B704736
:104940004805002080B483B000AF78600B4B1A6834
:104950007B68B2FBF3F30A4A013B5360084B002229
:104960009A60074B07221A60064A7B68136000BFF3
:104970000C37BD465DF8047B704700BF2C0000205B
:1049800010E000E07800002080B582B000AF002386
:104990007B6022E07A6813469B0013449B00144A14
:1049A00013443B603B681B7C002B13D03B68DB68E7
:1049B000184600F023F802463B689B689A4209D3E8
:1049C0000C4B1A683B68DA603B681B683A685268AF
:1049D000104698477B6801337B60074B1B687A68F9
:1049E0009A42D7D300BF00BF0837BD4680BD00BF85
:1049F00004000020480500200000002080B582B09F
:104A000000AF7860054B1B681946786800F008F81D
:104A1000034618460837BD4680BD00BF4805002044
:104A200080B483B000AF786039603A687B68D31A8D
:104A300018460C37BD465DF8047B7047002100F036
:104A400007BE0A22002100F089BE70B504460D465B
:104A500045EC104B164601F0E7FF51EC100B7EB110
:104A6000C5F30A53C3F16B03002B09DD1B0503F1EA
:104A70007F55002405F5401522462B46FBF7C4FD63
:104A800041EC100B70BD00002DE9F04F9FB00C46BB
:104A9000179200221A9205904FF0000A4FF0000B77
:104AA0000A46199211782B294AD038D80D2932D8C4
:104AB000082932D800293BD000220E92199D2A786D
:104AC000302A40F0B2806A7802F0DF02582A6ED1B4
:104AD00002930E9B01931AAB00938F4A05981BAB70
:104AE00019A901F0A3F810F00F06044605D0062E10
:104AF00028D10135002319950E93179B002B40F008
:104B00008E850E9BCBB152460BF1004343EC102B2C
:104B10001FB0BDE8F08F2029CED10132C1E72D2989
:104B2000CAD101210E91511C19915278002AC5D188
:104B3000179B1994002B40F0708552465B46E5E7C1
:104B40000021EFE71A9A3AB135211CA802F066F865
:104B50001A99059801F03CFC013E1B9A042E06D8D8
:104B6000DFE806F014031D201400DDE91CABE105AD
:104B700048BF4BF0004B2BF000431B0D1B05002BD7
:104B8000BBD100F05BFF22230360B6E7DDE91CA385
:104B900002F2334223F4801343EA025BE7E7DFF8D3
:104BA00080B1E4E76FF0004B4FF0FF3ADFE7199B6D
:104BB0005A1C19925B78302BF9D0002B9DD0012321
:104BC00000270893199B0C930B97B9460A22199852
:104BD0000578A5F13003D9B2092928D94F49012216
:104BE00000F0D3FE002832D000202A460A904D461D
:104BF0000346652A01D0452A14D11DB9089A0243FB
:104C000096D00025199C621C199262782B2A7AD0C2
:104C10002D2A7ED04FF0000CA2F13001092940F27C
:104C2000858019944FF00008A5E00023C8E7B9F18A
:104C3000080FD8BF0B9900F10100DABF02FB013366
:104C40000B9302FB073709F101091990BFE7199B84
:104C50005A1C19925A78B9F1000F3BD00A904D4670
:104C6000A2F13003092B12D90123C2E7199B5A1C68
:104C700019925A780130302AF8D0A2F13103082B6A
:104C800000F2D284199B0A9000200C930546303A1A
:104C900000F1010318D00A9919440A912E464FF0E9
:104CA0000A0E711CA1EB050C634515DC20EAE070CF
:104CB0002B18082B05F1010505441ADC0B990A2372
:104CC00003FB01230B930023199A511C199152786D
:104CD0001846C5E74846CEE7082E05DC0B9E0EFBBE
:104CE00006F60B960E46DCE71029D8BF0EFB07F739
:104CF000F8E70F2BDCBF0A2303FB0727E3E70023BA
:104D00000A9301237AE74FF0000CA21C1992A278B3
:104D100082E74FF0010CF8E7947A00081879000850
:104D20000000F07F199A511C19915278302AF9D05D
:104D3000A2F1310108293FF675AF303A0992199A6C
:104D40000F924FF00A08199A561C19965278A2F140
:104D5000300EBEF1090F39D90F99761A082E44F694
:104D60001F6803DC09998845A8BF8846BCF1000F7D
:104D700001D0C8F10008002D4ED1089908437FF4F6
:104D8000BCAE002B7FF4D4AE692A28D025DC492A9A
:104D900025D04E2A7FF4CCAE9A4919A801F068F9C3
:104DA00000283FF4C5AE199B1B78282B2ED19649BD
:104DB0001CAA19A801F070F9052827D11D9BDDF860
:104DC00070A043F0FF4B4BF4E00B96E6099908FB0B
:104DD0000121A1F130020992B5E76E2ADAE78B4989
:104DE00019A801F045F900283FF4A2AE199B8849A3
:104DF000013B19A8199301F03BF910B9199B013334
:104E00001993DFF81CB24FF0000A76E6814800F0F3
:104E100053FE5BEC10AB70E60A9B0B98A8EB030308
:104E2000B9F1000F08BFA946102D09932C46A8BF61
:104E30001024FBF76FFB092D82468B4613DC099B80
:104E4000002B3FF45AAE099B78DD162B5FDC7249CC
:104E500001EBC301D1E9000152465B46FBF7D4FBED
:104E600082468B4649E66C4B03EBC40353E912239D
:104E7000FBF7CAFB824638468B46FBF74BFB0246E4
:104E80000B4650465946FBF709FA0F2D82468B46D2
:104E9000D5DD099B2C1B1C44002C40F3938014F09F
:104EA0000F030AD05C4901EBC30152465B46D1E9CE
:104EB0000001FBF7A9FB82468B4634F00F0473D048
:104EC000B4F59A7F49DD0024A0460B94A146059ACB
:104ED000DFF84CB1222313604FF0000A0B9B002B2C
:104EE0003FF40BAE1A99059801F072FA05984946FD
:104EF00001F06EFA0598414601F06AFA0B9905989F
:104F000001F066FA0598214601F062FAF5E5099A82
:104F1000C5F125039342BCDB3F4CC5F10F0504EB03
:104F2000C50152465B46D1E90001FBF76DFB099BC9
:104F30005D1B04EBC504D4E900238FE71633A8DB1F
:104F40000A9BA3EB0808344B03EBC808D8E90023FD
:104F500050465946FBF782FC82E700232F4F24116D
:104F6000504659461E46012C21DC0BB182468B4629
:104F70002A49ABF1547B01EBC60152465B46D1E9AD
:104F80000001FBF741FB264B0A460B4025498B42AB
:104F9000824698D8A1F580118B4286BFDFF888B091
:104FA0004FF0FF3A02F1547B0023089376E0E207CA
:104FB00004D5D7E90023FBF727FB01230136641052
:104FC0000837D0E7F0D0644214F00F020AD0124B39
:104FD00003EBC20350465946D3E90023FBF73EFCDE
:104FE00082468B462411DFD01F2C1FDD0024A046F3
:104FF0000B94A146059A22234FF0000A4FF0000BB4
:1050000013606BE723790008807A00081A7900089A
:105010001D7900084A7A0008087C0008E07B000837
:105020000000F07F0000A07CFFFFEF7F14F0100372
:1050300018BF6A23A94E0893504659460023E70734
:1050400004D5D6E90023FBF7DFFA0123641006F14B
:105050000806F4D10BB182468B46089BB3B1CBF363
:105060000A52C2F16B03002B59460FDD1F2B56DD90
:10507000342BDEBF4FF0FF33C2F14B0293404FF0B1
:10508000000ACCBF4FF05C7B03EA010B0022002337
:1050900050465946FBF720FD0028A7D10B9B0093F3
:1050A0000C9905982B464A4601F0FAF90B90002816
:1050B0003FF409AF099A0A9B002AA3EB0803A8BF93
:1050C00000231293002422EAE2731693A0460B9B5E
:1050D0000598596801F03CF9814600283FF4F7AE85
:1050E0000B9B1A69023203F10C0192000C3000F0A4
:1050F000D2FC4BEC10AB05981CAA1BA9CDE90CAB5C
:1051000001F002FD1A9000283FF4E1AE059801215C
:1051100001F05CFA804648B94FF00008D7E64FF03E
:10512000FF3202FA03F303EA0A0AAFE71B9D1C9A57
:10513000002DABBF129B169B169E129FACBFEF18A3
:105140005E1B089BED1A1544654B013D9D42C2F163
:10515000360250DA5B1B1F2BA2EB03024FF001015A
:105160003DDC01FA03F3139300231093BD18089B51
:10517000AF4216441E443B46A8BF2B46B342A8BFCD
:105180003346002BC2BFED1AF61AFF1A129B002BF2
:1051900016DD414605981A4601F0D0FA80460028EF
:1051A000BAD001461A9A059801F026FA0A9000280A
:1051B0003FF48DAE1A99059801F00AF90A9B1A93EB
:1051C000002D1DDC099B002B23DD4946169A05980E
:1051D00001F0B4FA8146E0B94FF0000977E6C5F175
:1051E0007F4505F57F0505F57B45E23501FA05F3B9
:1051F00010931391BAE70023109301231393B5E79B
:105200001A9905982A4601F0F3FA1A900028D9D184
:105210005DE6002E07DD49460598324601F0E8FAC2
:1052200081460028D8D0002F08DD414605983A462F
:1052300001F0DEFA804600283FF449AE1A9905983D
:105240004A4601F05DFB044600283FF440AEC368C7
:105250000F930023C360414601F036FB002845DA76
:105260000F9B53EA0A036BD1CBF31303002B67D1D7
:105270002BF000431B0D1B05B3F1D66F60D963699A
:1052800013B92369012B5BDD21460122059801F04A
:10529000AFFA4146044601F017FB002850DD2BF021
:1052A0000043089A1B0D1B05002A6AD0B3F1D66F84
:1052B00067D8B3F15C7F7FF69DAE0A4B50465946E6
:1052C0000022FBF7A1F9084B0B4082468B46002BCE
:1052D0007FF408AE059A2223136003E6A87A00083B
:1052E00002FCFFFF000050390000F07FCDF828B02D
:1052F00065D10F9ACBF313035AB39F4A93422BD134
:10530000089B514603B39D4B5A461340B3F1D46FEB
:105310004FF0FF321BD81B0DC3F16B0302FA03F3EE
:10532000994219D1964B0A9A9A4202D101313FF41F
:10533000CEAD924B0A9A1A4002F5801B4FF0000A3C
:10534000089B002BB9D1CDE54FF0FF33E8E71346BA
:10535000E6E753EA0A03A2D0109BDBB10A9A134294
:10536000EED00F9B089A50465946BBB1FFF76DFB34
:10537000DDE90C0153EC102BFAF790FF82468B46C7
:10538000DEE7A3F580136FEA135B6FEA0B5B4FF068
:10539000FF3AD5E7139B13EA0A0FE1E7FFF755FB46
:1053A000DDE90C0153EC102BFAF776FF0022002305
:1053B00082468B46FBF790FB0028C1D01AE6414697
:1053C000204601F0F9FB57EC106B00224FF08043B0
:1053D00030463946FBF794FB00286FD00F9B002B1B
:1053E0007AD1BAF1000F58D10A9BC3F31303002BF3
:1053F0005AD1644B002230463946FBF777FB002830
:1054000059D130463946604B0022FBF7FDF806467D
:105410000F4607F1004306960793DDE90623574D33
:10542000CDE910230A9B1D40584B9D4240F0B280AD
:105430000A9BA3F1547B4BEC10AB01F0F5FADDE9CC
:10544000062351EC100BFBF7DFF852465B46FAF7E8
:1054500025FF0B4649494E4A19409142824642D99E
:105460000D9A474B9A4203D10C9B01333FF42FAD69
:10547000DFF80CB14FF0FF3A1A99059800F0A8FF39
:105480000598494600F0A4FF0598414600F0A0FFAA
:105490000598214600F09CFF19E6BAF1010F03D1EF
:1054A0000A9B002B3FF4A6AD9FED2B7B354F8DED76
:1054B000067B0026B1E7344F0026AAE7324B304680
:1054C00039460022FBF7A0F80F9B06460F46002B3B
:1054D0009FD0CDE90667A0E79FED217B8DED067B90
:1054E00057EC176B99E703F1547B089BCDF828B074
:1054F000002BC1D12BF000431B0D1B059D42BBD1DE
:1055000030463946FBF77AFBFBF750F802460B466C
:1055100030463946FAF7C0FE0B460246CDE90C2369
:10552000CBF313060F9B46EA0A061E436FD00EA369
:10553000D3E90023FBF7DAFA00287FF4D3AC0CA3FD
:10554000D3E90023DDE90C01FBF7EEFA002893D044
:10555000C8E400BFAFF30080000000000000F0BF0F
:10556000000000000000F03F9535A094FFFFDF3FF2
:1055700035E5AF350000E03FFFFF0F000000F07F92
:10558000FFFFEF7F0000F03F0000E03F0000E07F02
:10559000FFFF9F7C089B23B3B5F1D46F21D828A3CC
:1055A000D3E9002330463946FBF7AAFAA0B13946C1
:1055B0003046FBF7EBFA012838BF0120FAF7AAFFC3
:1055C0000F9B06460F46FBB901F10043149015935B
:1055D000DDE91423CDE91023119B03F1D6635B1B96
:1055E00011939DED0C0BDDE910AB01F01DFA504657
:1055F00053EC102B5946FBF707F8DDE90C23FAF7BB
:105600004DFE82468B4670E7CDE91467E0E70EA3B6
:10561000D3E90023FBF76AFA98E700230E93179A61
:10562000199B1360FFF76DBA652A3FF468AB452AF2
:105630003FF465AB0123FFF7A0BB00BFAFF30080D1
:105640000000C0FFFFFFDF419535A094FFFFCF3F73
:105650000A4601460248034B0068FFF715BA00BF2F
:10566000F401002088000020242B2DE9F047864615
:10567000904601D8012B06D100F0E0F91623036013
:105680000020BDE8F08734480D462A4615F8014B46
:10569000065D16F00806F8D12D2C10D12C780126C5
:1056A000951C33F0100215D1302C0DD12A7802F060
:1056B000DF02582A08D16C78023510230AE02B2C1F
:1056C00004BF2C78951CECE7002BF6D1302C14BFCE
:1056D0000A23082306F1004C0CF1FF3C0022BCFB1E
:1056E000F3F9104603FB19CAA4F13007092F0FD8AC
:1056F0003C46A3421BDD571C07D0814514D301D182
:10570000A24511DB00FB0340012215F8014BEBE73A
:10571000A4F14107192F01D8373CEAE7A4F161074A
:10572000192F04D8573CE4E74FF0FF32EDE7531C44
:1057300008D12223CEF800306046B8F1000FA0D087
:10574000691E06E006B14042B8F1000F99D0002A68
:10575000F6D1C8F8001094E7D17A000813460A463B
:10576000014602480068FFF77FBF00BFF401002038
:10577000002310B50446C0E90033C0E90433836058
:1057800081814366C2818361194608225C3000F042
:10579000F4F80D4B63620D4BA3620D4BE3620D4BAE
:1057A00023630D4B24629C4206D003F168029442AD
:1057B00002D0D0339C4205D104F15800BDE810401E
:1057C00000F066B910BD00BFF55800081759000871
:1057D0004F590008735900084C050020024A03493C
:1057E000034800F069B800BF7C000020C96D0008C4
:1057F000F801002041680C4B994210B5044601D0D5
:1058000001F0E2FAA168094B994202D0204601F06A
:10581000DBFAE168064B994204D02046BDE810400F
:1058200001F0D2BA10BD00BF4C050020B405002025
:105830001C06002010B50B4B0B4C0C4A1A6020467E
:1058400000220421FFF794FF04F1680001220921DE
:10585000FFF78EFF04F1D0000222BDE810401221B4
:10586000FFF786BF840600204C050020DD570008A6
:10587000014800F00EB900BF8D060020014800F07D
:1058800009B900BF8D06002010B50446FFF7F0FFF0
:10589000236A1BB1BDE81040FFF7F0BF044B236241
:1058A000044B1B68002BF5D1FFF7C4FFF2E700BFE4
:1058B000F5570008840600202DE9F843074688467E
:1058C00014460026D4E90195B9F1010905D52468EB
:1058D000002CF7D13046BDE8F883AB89012B07D9FE
:1058E000B5F90E30013303D029463846C047064388
:1058F0006835E9E710B50C46B1F90E1000F07AF8FA
:105900000028ABBF636DA3891B1823F48053ACBF81
:105910006365A38110BD2DE9F0411F468B89DB052E
:1059200005460C46164605D5B1F90E100223002295
:1059300000F04EF8A389B4F90E1023F48053A3812C
:1059400032463B462846BDE8F04100F065B810B548
:105950000C46B1F90E1000F03BF8431CA38915BFAB
:10596000606523F4805343F48053A38118BFA3815F
:1059700010BDB1F90E1000F01BB80244034693426B
:1059800000D1704703F8011BF9E710B56AB101397E
:10599000841810F8012B11F8013F9A4203D1A0425C
:1059A00001D0002AF5D1D01A10BD1046FCE7000046
:1059B00038B5064D0023044608462B60FCF762FA12
:1059C000431C02D12B6803B1236038BD8806002038
:1059D00038B5074D04460846114600222A601A468B
:1059E000FCF777FA431C02D12B6803B1236038BD62
:1059F0008806002038B5074D0446084611460022A7
:105A00002A601A46FCF705FA431C02D12B6803B141
:105A1000236038BD8806002038B5074D0446084687
:105A2000114600222A601A46FCF710FA431C02D1E4
:105A30002B6803B1236038BD88060020014B18682D
:105A4000704700BFF401002070B50D4D0D4C641B74
:105A5000A4100026A64209D10B4D0C4C01F068FEA3
:105A6000641BA4100026A64205D170BD55F8043B66
:105A700098470136EEE755F8043B98470136F2E7C0
:105A8000D87C0008D87C0008D87C0008DC7C0008A2
:105A90007047704770470A44914200F1FF3300D1CC
:105AA000704710B511F8014B03F8014F9142F9D13D
:105AB00010BD0000000000009FED010B704700BF0B
:105AC000000000000000F87F38B50546002941D0ED
:105AD00051F8043C0C1F002BB8BFE41800F02CFC5C
