:020000040800F2
:100000000000022011210008CD1E0008D51E0008A6
:10001000DD1E0008E51E0008ED1E000800000000BF
:10002000000000000000000000000000F51E0008B5
:10003000031F000800000000111F00081F1F000818
:100040006121000861210008612100086121000888
:100050006121000861210008612100086121000878
:100060006121000861210008612100086121000868
:100070006121000861210008612100086121000858
:100080006121000861210008612100086121000848
:100090006121000861210008612100086121000838
:1000A0006121000861210008612100086121000828
:1000B0006121000861210008612100086121000818
:1000C0006121000861210008612100086121000808
:1000D000311F00086121000861210008612100082A
:1000E00061210008612100086121000861210008E8
:1000F00061210008612100086121000861210008D8
:1001000061210008612100086121000861210008C7
:1001100061210008612100086121000861210008B7
:10012000451F0008612100086121000861210008C5
:100130006121000861210008612100086121000897
:100140006121000861210008612100086121000887
:10015000612100086121000861210008531F000887
:100160006121000861210008612100086121000867
:1001700061210008612100086121000800000000E1
:08018000612100086121000863
:1001900010B5054C237833B9044B13B10448AFF3C1
:1001A00000800123237010BD5802002000000000D1
:1001B0005888000808B5034B1BB103490348AFF347
:1001C000008008BD000000005C0200205888000884
:1001D00010F8012B11F8013B012A28BF9A42F7D0F1
:1001E000D01A70470000000000000000000000006E
:1001F00001F0FF01102A2BDB10F0070F08D010F8D8
:10020000013B013A8B422DD010F0070F42B3F6D1DB
:10021000F0B441EA012141EA014122F007047FF0F4
:1002200000070023F0E80256083C85EA010586EA4B
:10023000010685FA47F5A3FA87F586FA47F6A5FA87
:1002400087F68EB9EED1F0BC01F0FF0102F0070293
:1002500032B110F8013B013A83EA010313B1F8D13E
:100260000020704701387047002D06BF354603381F
:10027000073815F0010F07D1013015F4807F02BF58
:10028000013015F4C03F0130F0BC0138704700BFA9
:1002900081F0004102E000BF83F0004330B54FEA37
:1002A00041044FEA430594EA050F08BF90EA020FA4
:1002B0001FBF54EA000C55EA020C7FEA645C7FEA37
:1002C000655C00F0E2804FEA5454D4EB5555B8BF5A
:1002D0006D420CDD2C4480EA020281EA030382EACB
:1002E000000083EA010180EA020281EA0303362D5D
:1002F00088BF30BD11F0004F4FEA01314FF4801C30
:100300004CEA113102D0404261EB410113F0004F41
:100310004FEA03334CEA133302D0524263EB4303F8
:1003200094EA050F00F0A780A4F10104D5F1200E96
:100330000DDB02FA0EFC22FA05F2801841F10001F1
:1003400003FA0EF2801843FA05F359410EE0A5F1C5
:1003500020050EF1200E012A03FA0EFC28BF4CF0F6
:10036000020C43FA05F3C01851EBE37101F00045AC
:1003700007D54FF0000EDCF1000C7EEB00006EEBB9
:100380000101B1F5801F1BD3B1F5001F0CD3490843
:100390005FEA30004FEA3C0C04F101044FEA44529A
:1003A00012F5800F80F09A80BCF1004F08BF5FEA21
:1003B000500C50F1000041EB045141EA050130BD01
:1003C0005FEA4C0C404141EB0101013C28BFB1F513
:1003D000801FE9D291F0000F04BF01460020B1FA5E
:1003E00081F308BF2033A3F10B03B3F120020CDA31
:1003F0000C3208DD02F1140CC2F10C0201FA0CF00F
:1004000021FA02F10CE002F11402D8BFC2F1200C73
:1004100001FA02F120FA0CFCDCBF41EA0C01904029
:10042000E41AA2BF01EB0451294330BD6FEA040472
:100430001F3C1CDA0C340EDC04F11404C4F120025D
:1004400020FA04F001FA02F340EA030021FA04F36F
:1004500045EA030130BDC4F10C04C4F1200220FAC6
:1004600002F001FA04F340EA0300294630BD21FA04
:1004700004F0294630BD94F0000F83F4801306BFCA
:1004800081F480110134013D4EE77FEA645C18BFBE
:100490007FEA655C29D094EA050F08BF90EA020F55
:1004A00005D054EA000C04BF1946104630BD91EA4D
:1004B000030F1EBF0021002030BD5FEA545C05D150
:1004C0004000494128BF41F0004130BD14F580048F
:1004D0003CBF01F5801130BD01F0004545F0FE4103
:1004E00041F470014FF0000030BD7FEA645C1ABF38
:1004F000194610467FEA655C1CBF0B46024650EA6F
:10050000013406BF52EA033591EA030F41F400219A
:1005100030BD00BF90F0000F04BF0021704730B520
:100520004FF4806404F132044FF000054FF00001F5
:1005300050E700BF90F0000F04BF0021704730B5B6
:100540004FF4806404F1320410F0004548BF40428B
:100550004FF000013EE700BF42004FEAE2014FEAE0
:1005600031014FEA02701FBF12F07F4393F07F4FBB
:1005700081F06051704732F07F4208BF704793F0BE
:100580007F4F04BF41F40021704730B54FF46074D1
:1005900001F0004521F000411CE700BF50EA0102D4
:1005A00008BF704730B54FF000050AE050EA01027D
:1005B00008BF704730B511F0004502D5404261EBED
:1005C00041014FF4806404F132045FEA915C3FF42E
:1005D000D8AE4FF003025FEADC0C18BF03325FEACB
:1005E000DC0C18BF033202EBDC02C2F1200300FA7C
:1005F00003FC20FA02F001FA03FE40EA0E0021FAA1
:1006000002F11444BDE600BF70B54FF0FF0C4CF48E
:10061000E06C1CEA11541DBF1CEA135594EA0C0F40
:1006200095EA0C0F00F0DEF82C4481EA030621EA7B
:100630004C5123EA4C5350EA013518BF52EA0335B6
:1006400041F4801143F4801338D0A0FB02CE4FF068
:100650000005E1FB02E506F00042E0FB03E54FF098
:100660000006E1FB03569CF0000F18BF4EF0010E90
:10067000A4F1FF04B6F5007F64F5407404D25FEA8C
:100680004E0E6D4146EB060642EAC62141EA55513F
:100690004FEAC52040EA5E504FEACE2EB4F1FD0C81
:1006A00088BFBCF5E06F1ED8BEF1004F08BF5FEAFF
:1006B000500E50F1000041EB045170BD06F00046B1
:1006C00046EA010140EA020081EA0301B4EB5C045E
:1006D000C2BFD4EB0C0541EA045170BD41F4801156
:1006E0004FF0000E013C00F3AB8014F1360FDEBF7B
:1006F000002001F0004170BDC4F10004203C35DA57
:100700000C341BDC04F11404C4F1200500FA05F3D9
:1007100020FA04F001FA05F240EA020001F000427A
:1007200021F0004110EBD37021FA04F642EB0601F0
:100730005EEA430E08BF20EAD37070BDC4F10C041A
:10074000C4F1200500FA04F320FA05F001FA04F2DE
:1007500040EA020001F0004110EBD37041F10001CA
:100760005EEA430E08BF20EAD37070BDC4F12005D5
:1007700000FA05F24EEA020E20FA04F301FA05F23D
:1007800043EA020321FA04F001F0004121FA04F2E5
:1007900020EA020000EBD3705EEA430E08BF20EAB5
:1007A000D37070BD94F0000F0FD101F000464000EF
:1007B00041EB010111F4801F08BF013CF7D041EA71
:1007C000060195F0000F18BF704703F00046520075
:1007D00043EB030313F4801F08BF013DF7D043EA46
:1007E0000603704794EA0C0F0CEA135518BF95EAFC
:1007F0000C0F0CD050EA410618BF52EA4306D1D183
:1008000081EA030101F000414FF0000070BD50EAA1
:10081000410606BF1046194652EA430619D094EA2B
:100820000C0F02D150EA013613D195EA0C0F05D115
:1008300052EA03361CBF104619460AD181EA030169
:1008400001F0004141F0FE4141F470014FF0000021
:1008500070BD41F0FE4141F4780170BD70B54FF0BC
:10086000FF0C4CF4E06C1CEA11541DBF1CEA13553C
:1008700094EA0C0F95EA0C0F00F0A7F8A4EB05041E
:1008800081EA030E52EA03354FEA013100F0888015
:100890004FEA03334FF0805545EA131343EA1263DE
:1008A0004FEA022245EA111545EA10654FEA002693
:1008B0000EF000419D4208BF964244F1FD0404F54C
:1008C000407402D25B084FEA3202B61A65EB0305A8
:1008D0005B084FEA32024FF480104FF4002CB6EB65
:1008E000020E75EB030E22BFB61A754640EA0C00E5
:1008F0005B084FEA3202B6EB020E75EB030E22BF25
:10090000B61A754640EA5C005B084FEA3202B6EB65
:10091000020E75EB030E22BFB61A754640EA9C0024
:100920005B084FEA3202B6EB020E75EB030E22BFF4
:10093000B61A754640EADC0055EA060E18D04FEAB2
:10094000051545EA16754FEA06164FEAC30343EA52
:1009500052734FEAC2025FEA1C1CC0D111F4801F1F
:100960000BD141EA00014FF000004FF0004CB6E718
:1009700011F4801F04BF01430020B4F1FD0C88BFB7
:10098000BCF5E06F3FF6AFAEB5EB030C04BFB6EBC2
:10099000020C5FEA500C50F1000041EB045170BDB5
:1009A0000EF0004E4EEA113114EB5C04C2BFD4EBE2
:1009B0000C0541EA045170BD41F480114FF0000E66
:1009C000013C90E645EA060E8DE60CEA135594EAE2
:1009D0000C0F08BF95EA0C0F3FF43BAF94EA0C0FE5
:1009E0000AD150EA01347FF434AF95EA0C0F7FF45A
:1009F00025AF104619462CE795EA0C0F06D152EAAE
:100A000003353FF4FDAE1046194622E750EA410691
:100A100018BF52EA43067FF4C5AE50EA41047FF4A2
:100A20000DAF52EA43057FF4EBAE12E74FF0FF3C07
:100A300006E000BF4FF0010C02E000BF4FF0010CD8
:100A40004DF804CD4FEA410C7FEA6C5C4FEA430C51
:100A500018BF7FEA6C5C1BD001B050EA410C0CBFA0
:100A600052EA430C91EA030F02BF90EA020F002002
:100A7000704710F1000F91EA030F58BF994208BF69
:100A800090422CBFD8176FEAE37040F00100704726
:100A90004FEA410C7FEA6C5C02D150EA013C07D17D
:100AA0004FEA430C7FEA6C5CD6D152EA033CD3D0C8
:100AB0005DF8040B704700BF8446104662468C46C2
:100AC0001946634600E000BF01B5FFF7B7FF0028F5
:100AD00048BF10F1000F01BD4DF808EDFFF7F4FF1E
:100AE0000CBF012000205DF808FB00BF4DF808EDA9
:100AF000FFF7EAFF34BF012000205DF808FB00BFCC
:100B00004DF808EDFFF7E0FF94BF012000205DF8ED
:100B100008FB00BF4DF808EDFFF7CEFF94BF0120A2
:100B200000205DF808FB00BF4DF808EDFFF7C4FF9B
:100B300034BF012000205DF808FB00BF4FEA4102EE
:100B400012F5001215D211D56FF47873B3EB62521F
:100B500012D94FEAC12343F0004343EA505311F046
:100B6000004F23FA02F018BF404270474FF00000D8
:100B7000704750EA013005D111F0004008BF6FF016
:100B8000004070474FF00000704700BF4A0011D28C
:100B900012F5001211D20DD56FF47873B3EB6252D7
:100BA0000ED44FEAC12343F0004343EA505323FAE3
:100BB00002F070474FF00000704750EA013002D158
:100BC0004FF0FF3070474FF00000704753B94AB9FB
:100BD000002908BF00281CBF4FF0FF314FF0FF3045
:100BE00000F0BEB9ADF1080C6DE904CE00F03CF8A0
:100BF000DDF804E0DDE9022304B0704738B50022D7
:100C0000002304460D46FFF771FF28B92046294608
:100C1000BDE8384000F00AB8204605F1004100F078
:100C200005F8404261EB410138BD00BFD0B50C4B27
:100C3000002206460F46FFF7E7FCFFF7A7FF044632
:100C4000FFF768FC074B0022FFF7DEFC02460B466D
:100C500030463946FFF720FBFFF798FF2146D0BD0D
:100C60000000F03D0000F0412DE9F047089D8E4660
:100C700004468846002B4AD18A42174662D9B2FA06
:100C800082F64EB1C6F1200301FA06F820FA03F30A
:100C9000B74043EA0808B4404FEA174E1FFA87FCF2
:100CA000B8FBFEF1230C0EFB118843EA084301FB5D
:100CB0000CF29A4209D9FB1801F1FF3080F0EA806A
:100CC0009A4240F2E78002393B449A1AA3B2B2FB3F
:100CD000FEF00EFB102243EA024300FB0CFC9C4595
:100CE00009D9FB1800F1FF3280F0D6809C4540F214
:100CF000D3803B44023840EA0140A3EB0C030021BF
:100D00001DB1F3400022C5E90032BDE8F0878B42F7
:100D100005D90DB1C5E9000100210846F5E7B3FA90
:100D200083F1002946D1734502D3824200F2058146
:100D3000841A6EEB030201209046002DE5D0C5E930
:100D40000048E2E7002A00F09080B2FA82F6002E16
:100D500040F0A4808A1A030C4FEA174E80B2BCB24E
:100D60000121B2FBFEFC0EFB1C2243EA024304FB02
:100D70000CF29A4207D9FB180CF1FF3802D29A42C2
:100D800000F2E080C4469B1AB3FBFEF20EFB123366
:100D900040EA034302FB04F49C4207D9FB1802F12A
:100DA000FF3002D29C4200F2CA8002461B1B42EA7C
:100DB0000C40A5E7C1F120068B4022FA06F71F433D
:100DC0000EFA01F420FA06F32EFA06FE4FEA17494E
:100DD000234300FA01F81FFA87FCBEFBF9F01C0C54
:100DE00009FB10EE44EA0E4400FB0CFEA64502FA95
:100DF00001F209D93C1900F1FF3A80F09C80A64528
:100E000040F2998002383C44A4EB0E041FFA83FEA2
:100E1000B4FBF9F309FB13444EEA044403FB0CFC56
:100E2000A44508D93C1903F1FF3E80F08280A44517
:100E30007FD9023B3C4443EA0040A4EB0C04A0FBF6
:100E400002EC64457346E14662D35FD05DB1B8EB16
:100E5000030264EB090404FA06F622FA01F31E43C6
:100E6000CC40C5E9006400214FE7B1FBF2FC010C66
:100E700041EA0E4180B240EA01423B4638463C46D8
:100E8000B846BE462026B1FBF7F1A2EB080241EAC4
:100E90000C4166E7014618E710462CE7C6F1200230
:100EA0002EFA02F3B740B14020FA02F24FEA174E91
:100EB0000A43B3FBFEF8BCB20EFB1833110C41EA37
:100EC000034108FB04F9B04089454FEA104380B262
:100ED0003ED9791808F1FF3C01D289451FD8A1EB12
:100EE0000901B1FBFEF909FB04F80EFB191192B2DE
:100EF00042EA0142424529D2BA1809F1FF31C4D26F
:100F00004245C2D2A9F102013A44BEE7F0459DD262
:100F1000BEEB02036CEB070C0138E14696E7A7EB4A
:100F200009094944A8F1020CB1FBFEF909FB04F8D8
:100F3000DBE773467FE7504666E70846FDE63B443D
:100F4000023A33E7ACF1020C3B441CE749469CE70C
:100F5000A1EB0901C446B1FBFEF909FB04F8C4E7A3
:100F6000704700BF80B400AF044BDB681B0A03F07E
:100F700007031846BD465DF8047B704700ED00E0AE
:100F800080B483B000AF0346FB7197F90730002BA4
:100F90000BDBFB7903F01F02074997F907305B0968
:100FA000012000FA02F241F8232000BF0C37BD46B1
:100FB0005DF8047B704700BF00E100E080B483B0BF
:100FC00000AF03463960FB7197F90730002B0ADB4D
:100FD0003B68DAB20C4997F907301201D2B20B44E0
:100FE00083F800230AE03B68DAB20849FB7903F092
:100FF0000F03043B1201D2B20B441A7600BF0C3728
:10100000BD465DF8047B704700E100E000ED00E0C4
:1010100080B489B000AFF860B9607A60FB6803F013
:101020000703FB61FB69C3F10703042B28BF0423FB
:10103000BB61FB690433062B02D9FB69033B00E06B
:1010400000237B614FF0FF32BB6902FA03F3DA43FE
:10105000BB681A407B699A404FF0FF317B6901FA07
:1010600003F3D9437B680B40134318462437BD462E
:101070005DF8047B704780B489B000AFF860B96058
:101080007A60FB682C331946BB6803F440734FF455
:1010900040727A617A6992FAA2F23A613A69BA6167
:1010A000BA69002A01D1202203E0BA69B2FA82F2B9
:1010B000D2B2D3409B000B44FB61FB691A68BB684A
:1010C00003F01F031F2101FA03F3DB431A407B687F
:1010D00003F01F01BB6803F01F0301FA03F31A4377
:1010E000FB691A6000BF2437BD465DF8047B70477A
:1010F00080B483B000AF786039607B689B6823F46C
:1011000080623B681A437B689A6000BF0C37BD461B
:101110005DF8047B704780B48FB000AFF860B960B1
:101120007A60FB680C331946BB6803F000734FF01C
:1011300000727A617A6992FAA2F23A613A69BA6106
:10114000BA69002A01D1202203E0BA69B2FA82F218
:10115000D2B2D3409B000B447B637B6B1A68BB68A5
:1011600003F0F8734FF0F8713962396A91FAA1F11E
:10117000F961F9697962796A002901D1202103E0D6
:10118000796AB1FA81F1C9B2CB40072101FA03F3C0
:10119000DB431A40BB6803F0F8734FF0F871F96253
:1011A000F96A91FAA1F1B962B96A3963396B002918
:1011B00001D1202103E0396BB1FA81F1C9B2CB40F2
:1011C000796801FA03F31A437B6B1A6000BF3C375E
:1011D000BD465DF8047B704780B485B000AFF86011
:1011E000B9607A600D4ABB6813441B781A46FB68E5
:1011F00013441B6823F0C0020849BB680B441B78EA
:101200001946FB680B4419467B6813430B6000BF0B
:101210001437BD465DF8047B704700BF388A00086C
:1012200080B485B000AFF860B9607A600D4ABB68E1
:1012300013441B781A46FB6813441B6823F490720E
:101240000849BB680B441B781946FB680B441946D8
:101250007B6813430B6000BF1437BD465DF8047B09
:10126000704700BF388A000880B485B000AFF860CE
:10127000B9607A600D4ABB6813441B781A46FB6854
:1012800013441B6823F400720849BB680B441B78A5
:101290001946FB680B4419467B6813430B6000BF7B
:1012A0001437BD465DF8047B704700BF388A0008DC
:1012B00080B485B000AFF860B9607A600D4ABB6851
:1012C00013441B781A46FB6813441B6823F480629E
:1012D0000849BB680B441B781946FB680B44194648
:1012E0007B6813430B6000BF1437BD465DF8047B79
:1012F000704700BF388A000880B485B000AFF8603E
:10130000B9607A600D4ABB6813441B781A46FB68C3
:1013100013441B6823F4C0520849BB680B441B7874
:101320001946FB680B4419467B6813430B6000BFEA
:101330001437BD465DF8047B704700BF388A00084B
:1013400080B485B000AFF860B9607A600D4ABB68C0
:1013500013441B781A46FB6813441B6823F4C042ED
:101360000849BB680B441B781946FB680B441946B7
:101370007B6813430B6000BF1437BD465DF8047BE8
:10138000704700BF388A000880B485B000AFF860AD
:10139000B9607A600D4ABB6813441B781A46FB6833
:1013A00013441B6823F440320849BB680B441B7884
:1013B0001946FB680B4419467B6813430B6000BF5A
:1013C0001437BD465DF8047B704700BF388A0008BB
:1013D00080B485B000AFF860B9607A600D4ABB6830
:1013E00013441B781A46FB6813441B6823F06062A1
:1013F0000849BB680B441B781946FB680B44194627
:101400007B6813430B6000BF1437BD465DF8047B57
:10141000704700BF388A000880B483B000AF78609E
:1014200039600C4A3B6813441B781A467B681344A6
:101430005B6908493A680A44127811467A680A4496
:1014400023F00403536100BF0C37BD465DF8047BF5
:10145000704700BF388A000880B400AF054B1B6896
:10146000044A43F48033136000BFBD465DF8047B3B
:10147000704700BF0038024080B400AF074B1B68C4
:1014800003F40033B3F5003F0CBF01230023DBB2AC
:101490001846BD465DF8047B704700BF0038024027
:1014A00080B483B000AF7860064B9B6823F00302E2
:1014B00004497B6813438B6000BF0C37BD465DF861
:1014C000047B70470038024080B400AF044B9B6837
:1014D00003F00C031846BD465DF8047B704700BF5F
:1014E0000038024080B483B000AF7860064B9B6840
:1014F00023F0F00204497B6813438B6000BF0C3774
:10150000BD465DF8047B70470038024080B483B06C
:1015100000AF7860064B9B6823F4E05204497B6877
:1015200013438B6000BF0C37BD465DF8047B7047EA
:101530000038024080B483B000AF7860064B9B68EF
:1015400023F4604204497B6813438B6000BF0C376F
:10155000BD465DF8047B70470038024080B400AFA0
:10156000054B1B68044A43F08073136000BFBD46FF
:101570005DF8047B704700BF0038024080B400AFC4
:10158000074B1B6803F00073B3F1007F0CBF01230E
:101590000023DBB21846BD465DF8047B704700BFF0
:1015A0000038024080B485B000AFF860B9607A605E
:1015B0003B600D4B5A680D4B1340F968BA681143F4
:1015C0007A6892010A43084913434B60064B5B68F3
:1015D00023F4403204493B6813434B6000BF143787
:1015E000BD465DF8047B7047003802400080BFFFB5
:1015F00080B485B000AF7860084B1A6B07497B68F0
:1016000013430B63054B1A6B7B681340FB60FB684D
:1016100000BF1437BD465DF8047B704700380240B8
:1016200080B485B000AF7860084B5A6C07497B687E
:1016300013434B64054B5A6C7B681340FB60FB689B
:1016400000BF1437BD465DF8047B70470038024088
:1016500080B483B000AF7860064B1B6823F00702AC
:1016600004497B6813430B6000BF0C37BD465DF82F
:10167000047B7047003C024080B400AF044B1B6801
:1016800003F007031846BD465DF8047B704700BFB2
:10169000003C024080B483B000AF7860064B1B680A
:1016A00023F4804204497B6813430B6000BF0C376E
:1016B000BD465DF8047B70470070004080B400AF09
:1016C000074B5B6803F48043B3F5804F0CBF0123E5
:1016D0000023DBB21846BD465DF8047B704700BFAF
:1016E0000070004080B483B000AF786039607B68E0
:1016F0005B6823F010023B681A437B685A6000BFA6
:101700000C37BD465DF8047B704780B483B000AFF2
:1017100078607B68DB6843F400527B68DA6000BF66
:101720000C37BD465DF8047B704780B483B000AFD2
:1017300078607B681B6923F490427B681A617B6840
:101740005B6923F02A027B685A6100BF0C37BD46F3
:101750005DF8047B704780B483B000AF7860396077
:101760007B683A689A6100BF0C37BD465DF8047B20
:10177000704780B483B000AF786039603B681A046A
:101780007B689A6100BF0C37BD465DF8047B7047EB
:1017900080B485B000AF786039607B685B69FB60BE
:1017A000FA683B6813401A04FB68D9433B680B4056
:1017B0001A437B689A6100BF1437BD465DF8047B0D
:1017C0007047000080B582B000AF78604FF40061D0
:1017D0000348FFF7DDFF00BF0837BD4680BD00BFEF
:1017E0000010024080B584B004AF00F0BBFC00F0F4
:1017F00075F800F07BFA00F061FA00F077F900F07C
:10180000FDF900F0BBF800F0C3F94FF40043019379
:10181000254B00934FF48053234A2449244803F076
:10182000E7FB062300934FF480431F4A1F492148DA
:1018300002F0B6FA012300934FF400531A4A1B49F1
:101840001D4802F0ADFA0223009300231B4A1C49F5
:101850001C4802F083F9062300934FF400731A4AE0
:101860001A491B4802F09CFA4FF480730393194BFA
:1018700002934FF400630193134B00934FF4806382
:10188000114A1249144802F0E2FD4FF47A711248ED
:1018900002F07CFD4FF47A7004F0E6F802F06CFE82
:1018A00004F004F9FCE700BF0010024000300140E2
:1018B000CC020020E4020020040300200064024067
:1018C0000020014024030020000C024000380040AA
:1018D00054030020000802407403002080B500AFCC
:1018E0000520FFF7B5FE00BFFFF7C6FE0346052B38
:1018F000FAD14FF48040FFF7CDFEFFF7ADFD00BFFA
:10190000FFF7BAFD0346012BFAD10023A8220421D8
:101910004FF48000FFF746FEFFF720FE00BFFFF701
:101920002DFE0346012BFAD100BFFFF7C7FE034689
:10193000002BFAD00020FFF7D5FD4FF4A050FFF7A1
:10194000E5FD4FF40040FFF7F5FD0220FFF7A8FD8D
:1019500000BFFFF7B9FD0346082BFAD1064802F095
:1019600045F80F2000F020FC0346002B01D000F0CA
:101970002FFA00BF80BD00BF007A030A80B592B085
:1019800000AF07F13C0300221A605A609A6007F129
:10199000280300221A605A609A60DA601A6107F11F
:1019A000180300221A605A609A60DA603B460022EF
:1019B0001A605A609A60DA601A615A614FF4807056
:1019C000FFF72EFE0120FFF713FE0C233B600323DD
:1019D0007B6000233B613B4619463E4801F0C7FA55
:1019E000002200213C48FFF7F3FC002200213A4886
:1019F000FFF7F2FB002200213748FFF7C5FC4FF448
:101A0000807200213448FFF70BFC0022002132488D
:101A1000FFF72AFC4FF4806200212F48FFF748FCB3
:101A20004FF4006200212C48FFF766FC4FF400528F
:101A300000212948FFF784FC00212748FFF7ECFC30
:101A40000023FB6300233B644FF480737B6407F146
:101A50003C031946214801F0D1F80023BB624FF442
:101A60008013FB6200233B6302237B634FF44073CC
:101A7000BB6307F128031946184801F0EBF84FF44F
:101A800080611648FFF734FB4FF48033BB610023BD
:101A9000FB6107F118031946114801F067F8114A74
:101AA0004FF400710D48FFF7E6FA01220D490B488B
:101AB000FFF731FB0C4A40F205210848FFF7DBFA3B
:101AC000012209490548FFF726FB00BF4837BD46FC
:101AD00080BD00BF000002400064024000200140C1
:101AE00000230140020060020300900280B590B024
:101AF00000AF07F1180328220021184604F0D1FF97
:101B00003B4600221A605A609A60DA601A615A6194
:101B10004FF48050FFF784FD0120FFF769FDE023BB
:101B20003B6002237B600323BB600023FB60002338
:101B30003B6105237B613B461946134801F017FAC8
:101B40000023BB614FF48273FB6100233B620023DF
:101B50007B620123BB624FF40073FB6218233B637B
:101B600000237B630023BB630A23FB6307F1180395
:101B70001946064801F0D9FB00210448FFF7B2FDE1
:101B800000BF4037BD4680BD00000240003001402C
:101B900080B500AF174B184A1A60164B4FF482728B
:101BA0005A60144B00229A60124B0022DA60114BEB
:101BB00000221A610F4B01225A610E4B4FF4007242
:101BC0009A610C4B2022DA610A4B00221A62094BFF
:101BD00000225A62074B00229A62064B0A22DA62FE
:101BE000044800F0F5FD0346002B01D000F0F0F8AA
:101BF00000BF80BD740200200038004080B58EB068
:101C000000AF07F11C0300221A605A609A60DA6084
:101C10001A615A619A613B1D00221A605A609A60EB
:101C2000DA601A615A612020FFF7FAFC0420FFF7FE
:101C3000DFFCC0237B600223BB600323FB60002327
:101C40003B6100237B610823BB613B1D194619489A
:101C500001F08DF9FFF786F90346002200211846AE
:101C6000FFF7D6F9034619464720FFF7A7F94720A3
:101C7000FFF786F94FF4E133FB6100233B62002359
:101C80007B620023BB620C23FB6200233B630023C7
:101C90007B6307F11C031946074801F001FE064863
:101CA000FFF743FD0448FFF730FD00BF3837BD465E
:101CB00080BD00BF000802400014014080B500AFA5
:101CC0004FF48000FFF794FCFFF74CF90346002225
:101CD00000211846FFF79CF9034619463820FFF704
:101CE0006DF93820FFF74CF900BF80BD80B586B094
:101CF00000AF3B4600221A605A609A60DA601A61AF
:101D00005A618020FFF774FC0120FFF771FC10205E
:101D1000FFF76EFC0220FFF76BFC0820FFF768FC62
:101D20000420FFF765FC4FF400612648FFF721FD12
:101D30004FF460612448FFF71CFD4FF470412148C7
:101D4000FFF709FD4FF468433B6001237B600023EC
:101D5000BB600023FB6000233B613B4619461948EA
:101D600001F005F94FF480533B6001237B600323AE
:101D7000BB600023FB6000233B613B4619461148D2
:101D800001F0F5F84FF460633B6001237B600023B2
:101D9000BB600023FB6000233B613B4619460A48B9
:101DA00001F0E5F84FF480733B6000237B60002373
:101DB0003B613B461946054801F0D9F800BF18378A
:101DC000BD4680BD00100240000C024000080240E9
:101DD00080B400AF72B600BF00BFFDE780B483B02F
:101DE00000AF00237B60104B5B6C0F4A43F48043D1
:101DF00053640D4B5B6C03F480437B607B68002372
:101E00003B60094B1B6C084A43F080531364064B3C
:101E10001B6C03F080533B603B6800BF0C37BD4632
:101E20005DF8047B704700BF0038024080B58AB07F
:101E300000AF786007F1140300221A605A609A60BC
:101E4000DA601A617B681B681D4A934234D1002313
:101E50003B611C4B1B6C1B4A43F480431364194BBE
:101E60001B6C03F480433B613B690023FB60154B13
:101E70001B6B144A43F002031363124B1B6B03F0FA
:101E80000203FB60FB684FF460437B610223BB618C
:101E90000023FB6103233B6205237B6207F11403EC
:101EA0001946094800F0F8FA00220021242000F029
:101EB0009AFA242000F0B3FA00BF2837BD4680BD4F
:101EC00000380040003802400004024080B400AFF7
:101ED00000BFFDE780B400AF00BFFDE780B400AFF6
:101EE00000BFFDE780B400AF00BFFDE780B400AFE6
:101EF00000BFFDE780B400AF00BFBD465DF8047BC6
:101F0000704780B400AF00BFBD465DF8047B7047EA
:101F100080B400AF00BFBD465DF8047B704780B55C
:101F200000AF03F093FD00F06FF900BF80BD00002B
:101F300080B500AF024800F0D5FC00BF80BD00BFF7
:101F40007402002080B400AF00BFBD465DF8047B82
:101F5000704780B500AF03F083FA00BF80BD80B446
:101F600000AF01231846BD465DF8047B704780B57D
:101F700082B000AF7860396004F0F4FD03461622A9
:101F80001A604FF0FF3318460837BD4680BD80B554
:101F900082B000AF78604FF0FF317868FFF7E7FF5D
:101FA00000BFFDE780B586B000AFF860B9607A6029
:101FB00000237B610AE0AFF300800146BB685A1C36
:101FC000BA60CAB21A707B6901337B617A697B6837
:101FD0009A42F0DB7B6818461837BD4680BD80B555
:101FE00086B000AFF860B9607A6000237B6109E0D9
:101FF000BB685A1CBA601B781846AFF300807B6937
:1020000001337B617A697B689A42F1DB7B68184611
:102010001837BD4680BD80B483B000AF78604FF004
:10202000FF3318460C37BD465DF8047B704780B41B
:1020300083B000AF786039603B684FF400525A605B
:10204000002318460C37BD465DF8047B704780B40A
:1020500083B000AF7860012318460C37BD465DF8A9
:10206000047B704780B485B000AFF860B9607A60D7
:10207000002318461437BD465DF8047B7047000006
:1020800080B586B000AF7860144A154BD31A7B61D7
:102090007B693B61134B1B68002B02D1114B124A29
:1020A0001A60104B1A687B6813443A699A4207D247
:1020B00004F058FD03460C221A604FF0FF3309E08C
:1020C000084B1B68FB60074B1A687B681344054A82
:1020D0001360FB6818461837BD4680BD000002201B
:1020E00000040000980300205007002080B400AFD7
:1020F000064BD3F88830054A43F47003C2F88830A1
:1021000000BFBD465DF8047B704700BF00ED00E0F6
:10211000DFF834D0FFF7EAFF0C480D490D4A0023E1
:1021200002E0D458C4500433C4188C42F9D30A4A8C
:102130000A4C002301E013600432A242FBD304F0F6
:1021400017FDFFF74FFB7047000002200000002042
:1021500058020020408E0008580200204C07002042
:10216000FEE7000080B500AF0E4B1B680D4A43F43C
:10217000007313600B4B1B680A4A43F480631360BF
:10218000084B1B68074A43F480731360032000F078
:102190001FF90F2000F008F8FFF720FE0023184673
:1021A00080BD00BF003C024080B582B000AF7860C7
:1021B000124B1A68124B1B7819464FF47A73B3FB13
:1021C000F1F3B2FBF3F3184600F037F90346002BA6
:1021D00001D001230EE07B680F2B0AD8002279681A
:1021E0004FF0FF3000F0FFF8064A7B6813600023D1
:1021F00000E0012318460837BD4680BD2C000020B2
:10220000340000203000002080B400AF064B1B7863
:102210001A46064B1B681344044A136000BFBD46B0
:102220005DF8047B704700BF340000209C03002051
:1022300080B485B000AF78607B6803F00703FB6073
:102240000C4BDB68BB60BA684FF6FF031340BB6002
:10225000FB681A02BB68134343F0BF6343F40033C7
:10226000BB60044ABB68D36000BF1437BD465DF84D
:10227000047B704700ED00E080B400AF044BDB68E6
:102280001B0A03F007031846BD465DF8047B704740
:1022900000ED00E080B483B000AF0346FB7197F916
:1022A0000730002B0BDBFB7903F01F02074997F97E
:1022B00007305B09012000FA02F241F8232000BF39
:1022C0000C37BD465DF8047B704700BF00E100E0BD
:1022D00080B483B000AF03463960FB7197F90730D3
:1022E000002B0ADB3B68DAB20C4997F90730120180
:1022F000D2B20B4483F800230AE03B68DAB2084903
:10230000FB7903F00F03043B1201D2B20B441A769F
:1023100000BF0C37BD465DF8047B704700E100E06C
:1023200000ED00E080B489B000AFF860B9607A6079
:10233000FB6803F00703FB61FB69C3F10703042B90
:1023400028BF0423BB61FB690433062B02D9FB6958
:10235000033B00E000237B614FF0FF32BB6902FAD0
:1023600003F3DA43BB681A407B699A404FF0FF31B0
:102370007B6901FA03F3D9437B680B40134318468A
:102380002437BD465DF8047B7047000080B582B0FD
:1023900000AF78607B68013BB3F1807F01D30123FC
:1023A0000FE00A4A7B68013B53600F214FF0FF307A
:1023B000FFF78EFF054B00229A60044B07221A603C
:1023C000002318460837BD4680BD00BF10E000E07E
:1023D00080B582B000AF78607868FFF729FF00BF52
:1023E0000837BD4680BD80B586B000AF0346B960F2
:1023F0007A60FB7300237B61FFF73EFF78617A68A8
:10240000B9687869FFF78EFF024697F90F301146D9
:102410001846FFF75DFF00BF1837BD4680BD80B589
:1024200082B000AF0346FB7197F907301846FFF7FB
:1024300031FF00BF0837BD4680BD80B582B000AF18
:1024400078607868FFF7A2FF034618460837BD4654
:1024500080BD80B483B000AF78607B6893F835307E
:10246000DBB2022B04D07B6880225A6501230CE08A
:102470007B68052283F835207B681B681A687B68B7
:102480001B6822F001021A60002318460C37BD4673
:102490005DF8047B7047000080B489B000AF7860BD
:1024A000396000237B6100233B610023BB61002373
:1024B000FB616BE10122FB6902FA03F37B613B687C
:1024C0001B687A6913403B613A697B699A4240F024
:1024D0005A813B685B6803F00303012B05D03B681E
:1024E0005B6803F00303022B30D17B689B68BB6100
:1024F000FB695B00032202FA03F3DB43BA69134072
:10250000BB613B68DA68FB695B0002FA03F3BA69F6
:102510001343BB617B68BA699A607B685B68BB6187
:102520000122FB6902FA03F3DB43BA691340BB6182
:102530003B685B681B0903F00102FB6902FA03F3C5
:10254000BA691343BB617B68BA695A603B685B68D0
:1025500003F00303032B17D07B68DB68BB61FB69C7
:102560005B00032202FA03F3DB43BA691340BB6149
:102570003B689A68FB695B0002FA03F3BA6913438C
:10258000BB617B68BA69DA603B685B6803F0030390
:10259000022B23D1FB69DA087B68083253F822301A
:1025A000BB61FB6903F007039B000F2202FA03F3F0
:1025B000DB43BA691340BB613B681A69FB6903F0EE
:1025C00007039B0002FA03F3BA691343BB61FB697B
:1025D000DA087B680832B96943F822107B681B6807
:1025E000BB61FB695B00032202FA03F3DB43BA69B8
:1025F0001340BB613B685B6803F00302FB695B004F
:1026000002FA03F3BA691343BB617B68BA691A60C3
:102610003B685B6803F44033002B00F0B480002378
:10262000FB60604B5B6C5F4A43F4804353645D4BDB
:102630005B6C03F48043FB60FB685B4AFB699B08AF
:10264000023352F82330BB61FB6903F003039B00A4
:102650000F2202FA03F3DB43BA691340BB617B68C4
:10266000524A93422BD07B68514A934225D07B68D3
:10267000504A93421FD07B684F4A934219D07B68DF
:102680004E4A934213D07B684D4A93420DD07B68EB
:102690004C4A934207D07B684B4A934201D10723AF
:1026A0000EE008230CE006230AE0052308E00423DB
:1026B00006E0032304E0022302E0012300E00023FC
:1026C000FA6902F0030292009340BA691343BB61B6
:1026D0003549FB699B080233BA6941F823203B4B1B
:1026E0009B68BB613B69DB43BA691340BB613B68D4
:1026F0005B6803F48013002B03D0BA693B69134372
:10270000BB61324ABB699360304BDB68BB613B699C
:10271000DB43BA691340BB613B685B6803F4001399
:10272000002B03D0BA693B691343BB61274ABB69DD
:10273000D360264B5B68BB613B69DB43BA691340DE
:10274000BB613B685B6803F40033002B03D0BA69BC
:102750003B691343BB611D4ABB6953601B4B1B683C
:10276000BB613B69DB43BA691340BB613B685B6893
:1027700003F48033002B03D0BA693B691343BB6178
:10278000124ABB691360FB690133FB61FB690F2BC4
:102790007FF690AE00BF00BF2437BD465DF8047BD6
:1027A000704700BF0038024000380140000002407E
:1027B0000004024000080240000C024000100240E9
:1027C0000014024000180240001C0240003C01407E
:1027D00080B582B000AF78607B68002B01D1012307
:1027E0007BE07B685B6A002B08D17B685B68B3F594
:1027F000827F09D07B680022DA6105E07B680022D5
:102800001A617B6800225A617B6800229A627B68A9
:1028100093F85130DBB2002B06D17B68002283F89D
:1028200050207868FFF702FB7B68022283F8512072
:102830007B681B681A687B681B6822F040021A607C
:102840007B685B6803F482727B689B6803F40443D3
:102850001A437B68DB6803F400631A437B681B69D7
:1028600003F002031A437B685B6903F001031A4318
:102870007B689B6903F400731A437B68DB6903F090
:1028800038031A437B681B6A03F0800342EA0301A2
:102890007B689B6A03F400527B681B680A431A60DA
:1028A0007B689B691B0C03F004017B685B6A03F087
:1028B00010027B681B680A435A607B681B68DA69F0
:1028C0007B681B6822F40062DA617B6800225A652B
:1028D0007B68012283F85120002318460837BD4643
:1028E00080BD000080B588B000AF78607B681B6851
:1028F0005B68FB617B681B689B68BB61BB699B096C
:1029000003F00103002B0FD1BB6903F00103002B7F
:102910000AD0FB699B0903F00103002B04D07B68FC
:102920001B6C78689847D7E0BB695B0803F001032C
:10293000002B0AD0FB69DB0903F00103002B04D054
:102940007B685B6C78689847C6E0BB695B0903F0FD
:102950000103002B0CD1BB699B0903F00103002B81
:1029600006D1BB691B0A03F00103002B00F0B48001
:10297000FB695B0903F00103002B00F0AD80BB692C
:102980009B0903F00103002B23D07B6893F851309F
:10299000DBB2032B11D07B685B6D43F004027B68D4
:1029A0005A6500237B617B681B68DB687B617B6801
:1029B0001B689B687B617B690BE000233B617B6844
:1029C0001B68DB683B617B681B689B683B613B69FC
:1029D00082E0BB695B0903F00103002B14D07B6824
:1029E0005B6D43F001027B685A650023FB607B68E6
:1029F0001B689B68FB607B681B681A687B681B68A8
:102A000022F040021A60FB68BB691B0A03F0010355
:102A1000002B0CD07B685B6D43F008027B685A6525
:102A20000023BB607B681B689B68BB60BB687B68DE
:102A30005B6D002B4FD07B681B685A687B681B68F6
:102A400022F0E0025A607B68012283F85120FB6982
:102A500003F00203002B04D1FB6903F00103002BF8
:102A600034D07B681B685A687B681B6822F00302BD
:102A70005A607B68DB6C002B11D07B68DB6C184ADA
:102A80001A657B68DB6C1846FFF7E3FC0346002BF6
:102A900005D07B685B6D43F040027B685A657B68BC
:102AA0009B6C002B16D07B689B6C0D4A1A657B686B
:102AB0009B6C1846FFF7CDFC0346002B0AD07B68C1
:102AC0005B6D43F040027B685A6503E0786800F074
:102AD00009F800E000BF00BF2037BD4680BD00BF41
:102AE000F92A000880B483B000AF786000BF0C37CB
:102AF000BD465DF8047B704780B584B000AF786058
:102B00007B689B6BFB60FB680022DA87FB68002216
:102B1000DA86F868FFF7E6FF00BF1037BD4680BDD4
:102B200080B483B000AF786039607B68DB6A23F4DF
:102B300070023B681A437B68DA6200BF0C37BD46FF
:102B40005DF8047B704780B483B000AF78607B6829
:102B50009B6803F00103012B0CBF01230023DBB2B0
:102B600018460C37BD465DF8047B704790B585B0BC
:102B700000AF786039600023FB731C48FFF7E3FF68
:102B800004461B48FFF7DFFF03461C431948FFF7C5
:102B9000DAFF03462343002B20D13B685B68002B00
:102BA00012D07B685A68144B13403A6811683A682F
:102BB000526811433A68926811433A68D2680A43EE
:102BC0001A437B685A600BE07B685A680A4B1340D3
:102BD0003A6812681A437B685A6001E00123FB736C
:102BE000FB7B18461437BD4690BD00BF0020014056
:102BF0000021014000220140E010FCFF80B584B0BC
:102C000000AF786039600023FB737868FFF79BFFA3
:102C10000346002B17D17B685B6823F0407323F4D5
:102C200080733A6811683A6892680A431A437B686D
:102C30005A607B689B6823F400623B685B681A43B8
:102C40007B689A6001E00123FB73FB7B1846103719
:102C5000BD4680BD80B584B000AF78603960002388
:102C6000FB737868FFF76FFF0346002B2BD13B689F
:102C70005B68002B09D07B685B6823F468423B6883
:102C80009B681A437B685A6005E07B685B6823F4A5
:102C900068427B685A607B689A680E4B13403A68BA
:102CA000126802F070613A68D26811433A6812699A
:102CB0000A431A437B689A603B685B6819467868E8
:102CC000FFF72EFF01E00123FB73FB7B1846103753
:102CD000BD4680BDFDFCFFC080B48BB000AFF86086
:102CE000B9607A60FB681A68BB687B617B6993FA9C
:102CF000A3F33B613B69BB61BB69002B01D120237E
:102D000003E0BB69B3FA83F3DBB25B00032101FA92
:102D100003F3DB431A40BB683B623B6A93FAA3F3BD
:102D2000FB61FB697B627B6A002B01D1202303E0FE
:102D30007B6AB3FA83F3DBB25B00796801FA03F3D1
:102D40001A43FB681A6000BF2C37BD465DF8047B50
:102D5000704780B485B000AFF860B9607A60FB68F6
:102D60005A68BB68DB431A40BB68796801FB03F310
:102D70001A43FB685A6000BF1437BD465DF8047BF8
:102D8000704780B48BB000AFF860B9607A60FB68C0
:102D90009A68BB687B617B6993FAA3F33B613B69EB
:102DA000BB61BB69002B01D1202303E0BB69B3FAEF
:102DB00083F3DBB25B00032101FA03F3DB431A4028
:102DC000BB683B623B6A93FAA3F3FB61FB697B62DE
:102DD0007B6A002B01D1202303E07B6AB3FA83F3E3
:102DE000DBB25B00796801FA03F31A43FB689A606F
:102DF00000BF2C37BD465DF8047B704780B48BB0B4
:102E000000AFF860B9607A60FB68DA68BB687B6124
:102E10007B6993FAA3F33B613B69BB61BB69002B00
:102E200001D1202303E0BB69B3FA83F3DBB25B007B
:102E3000032101FA03F3DB431A40BB683B623B6AA0
:102E400093FAA3F3FB61FB697B627B6A002B01D1E0
:102E5000202303E07B6AB3FA83F3DBB25B0079687B
:102E600001FA03F31A43FB68DA6000BF2C37BD4652
:102E70005DF8047B704780B48BB000AFF860B96038
:102E80007A60FB681A6ABB687B617B6993FAA3F37B
:102E90003B613B69BB61BB69002B01D1202303E08F
:102EA000BB69B3FA83F3DBB29B000F2101FA03F392
:102EB000DB431A40BB683B623B6A93FAA3F3FB61B6
:102EC000FB697B627B6A002B01D1202303E07B6AD4
:102ED000B3FA83F3DBB29B00796801FA03F31A4378
:102EE000FB681A6200BF2C37BD465DF8047B704753
:102EF00080B48BB000AFF860B9607A60FB685A6A42
:102F0000BB681B0A7B617B6993FAA3F33B613B6956
:102F1000BB61BB69002B01D1202303E0BB69B3FA7D
:102F200083F3DBB29B000F2101FA03F3DB431A406A
:102F3000BB681B0A3B623B6A93FAA3F3FB61FB6924
:102F40007B627B6A002B01D1202303E07B6AB3FA0A
:102F500083F3DBB29B00796801FA03F31A43FB6841
:102F60005A6200BF2C37BD465DF8047B704780B5C0
:102F70008AB000AF7860396000237B6200233B6237
:102F80003B681B68BB61BB6993FAA3F37B617B69F8
:102F9000FB61FB69002B01D1202303E0FB69B3FA3D
:102FA00083F3DBB27B6257E03B681A6801217B6ADE
:102FB00001FA03F313403B623B6A002B49D03B68A4
:102FC0005B68012B03D03B685B68022B0DD13B682B
:102FD0009B681A46396A7868FFF7D3FE3B68DB685E
:102FE0001A46396A7868FFF7B4FE3B681B691A46CF
:102FF000396A7868FFF702FF3B685B68022B21D1D2
:103000003B6AFB60FB6893FAA3F3BB60BB683B6160
:103010003B69002B01D1202303E03B69B3FA83F322
:10302000DBB2072B07D83B685B691A46396A7868B8
:10303000FFF721FF06E03B685B691A46396A78684A
:10304000FFF756FF3B685B681A46396A7868FFF7F6
:1030500043FE7B6A01337B623B681A687B6A22FA13
:1030600003F3002BA0D1002318462837BD4680BDAE
:1030700080B400AF044B9B6803F00C031846BD46B8
:103080005DF8047B704700BF0038024080B400AF99
:10309000044B9B6803F0F0031846BD465DF8047BC3
:1030A000704700BF0038024080B400AF044B9B68FB
:1030B00003F4E0531846BD465DF8047B704700BF3B
:1030C0000038024080B400AF044B9B6803F46043B7
:1030D0001846BD465DF8047B704700BF00380240CB
:1030E00080B400AF044B5B6803F480031846BD4610
:1030F0005DF8047B704700BF0038024080B400AF29
:10310000044B5B689B09C3F308031846BD465DF892
:10311000047B70470038024080B400AF044B5B680A
:1031200003F440331846BD465DF8047B704700BF8A
:103130000038024080B400AF044B5B6803F03F03EB
:103140001846BD465DF8047B704700BF003802405A
:1031500080B582B000AF786000F020F802467B684E
:103160001A607B681B68184600F040F802467B68CE
:103170005A607B685B68184600F04EF802467B6830
:103180009A607B685B68184600F05AF802467B68D4
:10319000DA6000BF0837BD4680BD000080B582B050
:1031A00000AF00237B60FFF763FF0346082B0CD0C2
:1031B000082B0FD8002B02D0042B03D00AE0094BB8
:1031C0007B600AE0084B7B6007E0082000F04CF8C9
:1031D000786002E0034B7B6000BF7B6818460837CD
:1031E000BD4680BD0024F40000127A0080B582B094
:1031F00000AF7860FFF74AFF03461B0903F00F0397
:10320000044AD35C1A467B68D34018460837BD464B
:1032100080BD00BF408A000880B582B000AF7860F2
:10322000FFF742FF03469B0A044AD35C1A467B68B9
:10323000D34018460837BD4680BD00BF508A0008FD
:1032400080B582B000AF7860FFF73CFF03465B0BB0
:10325000044AD35C1A467B68D34018460837BD46FB
:1032600080BD00BF508A000890B587B000AF78607D
:1032700000237B610023FB6000233B61FFF730FFED
:10328000F860FB68002B04D0FB68B3F5800F03D017
:1032900005E0124B7B6105E0114B7B6102E00F4BB7
:1032A0007B6100BF7B68082B13D1FFF743FF024609
:1032B0007B69B3FBF2F4FFF721FF034603FB04F441
:1032C000FFF72AFF03461B0C01335B00B4FBF3F34B
:1032D0003B613B6918461C37BD4690BD0024F40095
:1032E00000127A0080B483B000AF78607B681B68FE
:1032F00003F04003402B01D1012300E000231846D6
:103300000C37BD465DF8047B704780B483B000AFD6
:10331000786039603B689BB21A467B681A6100BFCF
:103320000C37BD465DF8047B704780B584B000AFB4
:10333000786039600123FB737868FFF7D3FF034699
:10334000002B39D17B681B6823F47F4323F0BF0334
:103350003A6811683A68526811433A6892681143B2
:103360003A68D26811433A68126911433A6852695F
:1033700011433A68926911433A68D26911433A6835
:10338000126A0A431A437B681A607B685B6823F001
:1033900004023B685B691B0C1A437B685A603B68FC
:1033A0001B6AB3F5005F05D13B685B6A1946786814
:1033B000FFF7ABFF0023FB737B68DB6923F400623C
:1033C0007B68DA61FB7B18461037BD4680BD80B450
:1033D00083B000AF78607B68DB6803F40053B3F51B
:1033E000005F0CBF01230023DBB218460C37BD463B
:1033F0005DF8047B704780B483B000AF78603960BB
:103400007B681B6923F440523B681A437B681A614E
:1034100000BF0C37BD465DF8047B704780B483B0B5
:1034200000AF786039607B685B6923F440723B6869
:103430001A437B685A6100BF0C37BD465DF8047BB8
:10344000704700002DE9B04FC0B000AFC7F8FC00D6
:10345000C7F8F810C7F8F420C7F8F030D7F8F43000
:10346000B3F5004F40F00C81D7F8F8300022C7F8D0
:10347000E830C7F8EC20D7E93A4522462B469118A8
:1034800039665B417B66D7E91823214612EB0108B8
:10349000294643EB01094FF000024FF000034FEAC9
:1034A000C90343EA58734FEAC80290469946234637
:1034B00018EB0303C7F8E0302B4649EB0303C7F8CA
:1034C000E430D7F8F03000229A4693461AEB0A030C
:1034D000BB654BEB0B03FB65D7E91623D7E9380136
:1034E000FDF774FB02460B46644BA3FB02235B090A
:1034F0009BB21B019CB2D7F8F8300022C7F8D83035
:10350000C7F8DC20D7E9368942464B469118396521
:103510005B417B65D7E9142341465118B96449469C
:103520004B41FB644FF000024FF00003D7E912ABB0
:103530005946CB00514643EA51735146CA001046E2
:103540001946034642469B18C7F8D0304B460A46F8
:1035500042EB0303C7F8D430D7F8F0300022C7F8A5
:10356000C830C7F8CC20D7E932120B46DB183B64D1
:10357000134642EB03037B64D7E91023D7E93401F8
:10358000FDF724FB02460B4611463C4BA3FB0123EF
:103590005B09642202FB03F3CB1ADB0003F1320266
:1035A000364BA3FB02235B099BB25B009BB203F487
:1035B000F8739BB223449CB2D7F8F8300022C7F8C6
:1035C000C030C7F8C420D7E9308942464B4691182D
:1035D000B9635B41FB63D7E90E2341465118396358
:1035E00049464B417B634FF000024FF00003D7E99F
:1035F0000CAB5946CB00514643EA51735146CA00C1
:1036000010461946034642469B18C7F8B8304B4649
:103610000A4642EB0303C7F8BC30D7F8F03000226B
:10362000C7F8B030C7F8B420D7E92C120B46DB1826
:10363000BB62134642EB0303FB62D7E90A23D7E9D7
:103640002E01FDF7C3FA02460B460C4BA3FB0213F7
:103650005B09642101FB03F3D31ADB003233074A11
:10366000A2FB03235B099BB203F007039BB2234435
:103670009BB21A46D7F8FC309A6008E11F85EB51DF
:10368000D7F8F8300022C7F8A830C7F8AC20D7E93F
:103690002A8942464B46911839625B417B62D7E9E1
:1036A000082341465418494643EB01054FF00002F8
:1036B0004FF00003EB0043EA5473E20014461D464A
:1036C0004346E318C7F8A0304B4645EB0303C7F861
:1036D000A430D7F8F0300022C7F89830C7F89C2003
:1036E0004FF000024FF00003D7E9264529468B0032
:1036F000214643EA917321468A00D7E92801FDF764
:1037000065FA02460B46654BA3FB02235B099BB29D
:103710001B019CB2D7F8F8300022C7F89030C7F8E8
:103720009420D7E9248942464B469118B9615B4100
:10373000FB61D7E9062341465118396149464B419F
:103740007B614FF000024FF00003D7E904AB59460C
:10375000CB00514643EA51735146CA001046194600
:10376000034642469B18C7F888304B460A4642EB50
:103770000303C7F88C30D7F8F0300022C7F8803048
:10378000C7F884204FF000024FF00003D7E92089EA
:1037900049468B00414643EA917341468A00D7E986
:1037A0002201FDF713FA02460B4611463B4BA3FBE1
:1037B00001235B09642202FB03F3CB1A1B013233A2
:1037C000364AA2FB03235B099BB203F0F0039BB2D2
:1037D00023449CB2D7F8F8300022BB67FA67D7E9D8
:1037E0001E8942464B469118B9605B41FB60D7E9A0
:1037F000022341465118396049464B417B604FF0E6
:1038000000024FF00003D7E900AB5946CB00514608
:1038100043EA51735146CA001046194603464246D0
:103820009B183B674B460A4642EB03037B67D7F87E
:10383000F0300022BB66FA664FF000024FF0000342
:10384000D7E91A8949468B00414643EA91734146BC
:103850008A00D7E91C01FDF7B9F902460B460F4B68
:10386000A3FB02135B09642101FB03F3D31A1B01C1
:1038700032330A4AA2FB03235B099BB203F00F0316
:103880009BB223449BB21A46D7F8FC309A6000BF23
:1038900007F58077BD46BDE8B08F00BF1F85EB51AF
:1038A00080B588B000AF786039600123FB770023D2
:1038B000BB617868FFF78BFD0346002B5ED17B6808
:1038C000DB6823F4164323F00C033A6851683A6826
:1038D000D26811433A68126911433A6892690A43FF
:1038E0001A437B68DA603B689B6819467868FFF783
:1038F00082FD3B685B6919467868FFF78FFD07F129
:1039000008031846FFF724FC7B681F4A934202D144
:103910007B69BB6121E07B681C4A934202D13B6911
:10392000BB611AE07B681A4A934202D13B69BB61D2
:1039300013E07B68174A934202D17B69BB610CE0BC
:103940007B68154A934202D13B69BB6105E07B6805
:10395000124A934201D13B69BB61BB69002B0DD078
:103960003B681B68002B09D00023FB773B689A69F2
:103970003B681B68B9697868FFF764FDFB7F1846F0
:103980002037BD4680BD00BF00100140004400400C
:103990000048004000140140004C0040005000402E
:1039A00080B485B000AF78600F4B1B68FB60FB688C
:1039B0007B68B3F1FF3F0CD07B6801337B6008E08C
:1039C000094B1B6803F48033002B02D07B68013B5A
:1039D0007B607B68002BF3D100BF00BF1437BD466E
:1039E0005DF8047B704700BF10E000E080B483B056
:1039F00000AF7860044A7B68136000BF0C37BD4697
:103A00005DF8047B704700BF2C00002080B483B0B9
:103A100000AF78607B689B6843F001027B689A6026
:103A200000BF0C37BD465DF8047B704780B483B09F
:103A300000AF78607B689B6803F00103012B0CBF2B
:103A400001230023DBB218460C37BD465DF8047B2A
:103A5000704780B483B000AF78607B689B6843F0A8
:103A600080427B689A6000BF0C37BD465DF8047BDE
:103A70007047000080B483B000AF786039600C4AB2
:103A80003B6813441B781A467B6813441B6808493B
:103A90003A680A44127811467A680A4443F00103EE
:103AA000136000BF0C37BD465DF8047B704700BF54
:103AB000588A000880B485B000AFF860B9607A60B9
:103AC0000D4ABB6813441B781A46FB6813445B68B5
:103AD0001B0C1B040849BA680A4412781146FA689C
:103AE0000A4411467A6813434B6000BF1437BD4641
:103AF0005DF8047B704700BF588A000880B485B029
:103B000000AFF860B9607A60074ABB6813441B785D
:103B10001A46FB6813441A467B68D36000BF14370B
:103B2000BD465DF8047B7047588A000880B485B0B4
:103B300000AFF860B9607A60074ABB6813441B782D
:103B40001A46FB6813441A467B68936000BF14371B
:103B5000BD465DF8047B7047588A000880B584B084
:103B600000AFF860B9607A603B60FB68BA681A60C1
:103B7000FB687A685A60FB683A689A60FB68BA69C1
:103B8000DA62FB685868FB689968FB681B684C330D
:103B90001A46FFF7CBFFFB685868FB689968FB681B
:103BA0000C331A46FFF7AAFFFB685868FB68996850
:103BB000FB68DB6A1A46FFF77DFFFB685A68FB6803
:103BC0009B6819461046FFF755FF05E0FB681B6828
:103BD0001846FFF71BFF00BFFB681B681846FFF77E
:103BE00025FF0346002BF1D0FB681B681846FFF742
:103BF00030FF00BF1037BD4680BD80B483B000AF3A
:103C000078607B681B6843F040027B681A6000BFE5
:103C10000C37BD465DF8047B704780B483B000AFBD
:103C200078607B681B6803F04003402B01D10123BF
:103C300000E0002318460C37BD465DF8047B704752
:103C400080B483B000AF78607B689B6803F00203A8
:103C5000022B01D1012300E0002318460C37BD469A
:103C60005DF8047B704780B483B000AF78607B68F8
:103C70009B6803F08003802B01D1012300E0002327
:103C800018460C37BD465DF8047B704780B483B09E
:103C900000AF78607B680C331B78DBB218460C37BA
:103CA000BD465DF8047B704780B485B000AF786096
:103CB0000B46FB707B680C33FB60FB68FA781A706C
:103CC00000BF1437BD465DF8047B704780B483B0F5
:103CD00000AF786039607B683A689A6100BF0C3742
:103CE000BD465DF8047B704780B483B000AF786058
:103CF00039603B681A047B689A6100BF0C37BD4687
:103D00005DF8047B704780B584B000AF786000BF79
:103D10007B681B681846FFF793FF0346002BF7D01C
:103D20007B685A687B689B6819461046FFF7DCFF82
:103D30007B681B7B013BFB6023E07B6818687A682B
:103D4000FB6813440D331B781946FFF7ADFF00BF26
:103D50007B681B681846FFF773FF0346002BF7D0FC
:103D600000BF7B681B681846FFF77DFF0346002BEA
:103D7000F7D17B681B681846FFF788FFFB68013B9B
:103D8000FB60FB68002BD8DA7B685A687B689B680D
:103D900019461046FFF79AFF00BF1037BD4680BD99
:103DA00080B58CB000AFF860B9607A603B60FB68AA
:103DB000BA681A60FB6897F838201A73FB687A684B
:103DC0005A60FB683A689A6007F1140300221A608F
:103DD0005A609A60DA601A615A61FB689B687B617D
:103DE0000123BB610223FB6100233B6200237B6252
:103DF000FB685B6807F1140211461846FFF7B7F835
:103E0000FB685A68FB689B6819461046FFF75EFF1F
:103E10000023FB6208E0FA68FB6A13440D330022BA
:103E20001A70FB6A0133FB62FB681B7B1A46FB6A54
:103E30009342F0DB05E0FB681B681846FFF7DDFEE8
:103E400000BFFB681B681846FFF7E7FE0346002B20
:103E5000F1D0F868FFF757FF00BF3037BD4680BD8F
:103E600080B584B000AF78600B46FB70FB78242BE4
:103E700003D97B681B7B062B5AD0FB78082B03D910
:103E80007B681B7B012B55D07B681B7B062B38D1B5
:103E90000023FB6008E07A68FB6813440D330022BE
:103EA0001A70FB680133FB607B681B7B1A46FB685A
:103EB0009342F0DBFB78002B36D0FB78013B1F4AA6
:103EC00082FB0312DB17D31AFB72FB785A1E1B4BC3
:103ED00083FB0231D317C91A0B465B000B445B000E
:103EE000D11A0B46BB72BB7A012202FA03F3DAB293
:103EF000FB7A02F03F02D1B27A6813440A465A7341
:103F000012E07B681B7B012B0ED1FB78002B08D0C5
:103F1000FB78013B012202FA03F3DAB27B685A73A1
:103F200002E07B6800225A737868FFF7ECFE02E03B
:103F300000BF00E000BF1037BD4680BDABAAAA2A73
:103F400080B584B000AF78600023FB6008E07A6839
:103F5000FB6813440D3300221A70FB680133FB60C9
:103F60007B681B7B1A46FB689342F0DB7868FFF79F
:103F7000CAFE00BF1037BD4680BD80B483B000AF1D
:103F800078607B681B6843F040027B681A6000BF62
:103F90000C37BD465DF8047B704780B483B000AF3A
:103FA00078607B681B6803F04003402B01D101233C
:103FB00000E0002318460C37BD465DF8047B7047CF
:103FC00080B483B000AF78607B689B6803F0010326
:103FD000012B01D1012300E0002318460C37BD4618
:103FE0005DF8047B704780B483B000AF78607B6875
:103FF0009B6803F00203022B01D1012300E00023A0
:1040000018460C37BD465DF8047B704780B483B01A
:1040100000AF78607B689B6803F08003802B01D140
:10402000012300E0002318460C37BD465DF8047BF1
:10403000704780B483B000AF78607B680C331B7826
:10404000DBB218460C37BD465DF8047B704780B480
:1040500085B000AF78600B46FB707B680C33FB606B
:10406000FB68FA781A7000BF1437BD465DF8047B10
:10407000704780B483B000AF786039607B681A699C
:104080003B6813403A689A420CBF01230023DBB21D
:1040900018460C37BD465DF8047B704780B483B08A
:1040A00000AF786039607B683A689A6100BF0C376E
:1040B000BD465DF8047B704780B483B000AF786084
:1040C00039603B681A047B689A6100BF0C37BD46B3
:1040D0005DF8047B704780B582B000AF78600B4616
:1040E0007B8000BF7B681B681846FFF77CFF034698
:1040F000002BF7D07B681A687B881B0A9BB2DBB267
:1041000019461046FFF7A3FF00BF7B681B681846DF
:10411000FFF769FF0346002BF7D000BF7B681B68E1
:104120001846FFF773FF0346002BF7D17B681B6827
:104130001846FFF77EFF7B681B687A88D2B211466B
:104140001846FFF784FF00BF7B681B681846FFF71F
:104150004AFF0346002BF7D000BF7B681B68184658
:10416000FFF754FF0346002BF7D17B681B68184606
:10417000FFF75FFF00BF0837BD4680BD80B584B044
:1041800000AF78600023FB810023BB8100BF7B6808
:104190001B681846FFF727FF0346002BF7D07B6804
:1041A0001B68AA211846FFF752FF00BF7B681B68F7
:1041B0001846FFF72BFF0346002BF7D100BF7B68A3
:1041C0001B681846FFF7FCFE0346002BF7D07B6800
:1041D0001B681846FFF72DFF0346FB8100BF7B6875
:1041E0001B681846FFF712FF0346002BF7D100BFEC
:1041F0007B681B681846FFF7F6FE0346002BF7D0D6
:104200007B681B68AA211846FFF721FF00BF7B6867
:104210001B681846FFF7FAFE0346002BF7D100BFD4
:104220007B681B681846FFF7CBFE0346002BF7D0D0
:104230007B681B681846FFF7FCFE0346BB8100BF86
:104240007B681B681846FFF7E1FE0346002BF7D199
:10425000B7F90E301B021AB2B7F90C3013431BB278
:104260009BB218461037BD4680BD80B582B000AF06
:1042700078607B684FF430429A837B685A687B6829
:104280009B6819461046FFF717FF7B689B8B194602
:104290007868FFF720FF7B685A687B689B6819463F
:1042A0001046FFF7FBFE00BF0837BD4680BD80B556
:1042B00084B000AF78600B467B807B685A687B686F
:1042C0009B6819461046FFF7F7FE7B684FF4604283
:1042D0009A837B687A88DA837B689B8B1BB223F492
:1042E0007F6323F00F031AB27B68DB8B1BB2C3F32F
:1042F0000B031BB213431BB2FB81FB891946786881
:10430000FFF7E9FE7B685A687B689B681946104690
:10431000FFF7C4FE00BF1037BD4680BD80B582B038
:1043200000AF78600B46FB70FB78002B06D1164B74
:104330001B8819467868FFF7BAFF20E0FB78012B4D
:104340001DD17B685A687B689B6819461046FFF749
:10435000B3FE7B684FF470429A837B6840F6FD623F
:10436000DA837B689B8B19467868FFF7B4FE7B681D
:104370005A687B689B6819461046FFF78FFE00BF9E
:104380000837BD4680BD00BF3600002080B584B030
:1043900000AF786039607B68DA687B681B69194612
:1043A0001046FFF789FE3B68FB6000BF7B685A69D7
:1043B0007B689B6919461046FFF75BFE0346002B9E
:1043C00004D0FB685A1EFA60002BEFD13B68FB60FB
:1043D00000BF7B685A697B689B6919461046FFF7E6
:1043E00048FE0346002B04D1FB685A1EFA60002BDE
:1043F000EFD17B68DA687B681B6919461046FFF7C6
:104400004DFE7B685A687B689B6819461046FFF72B
:1044100053FE7868FFF7B2FE03461A467B681A849B
:1044200000BF7B681B681846FFF7F0FD0346002BB2
:10443000F7D17B685A687B689B6819461046FFF77E
:104440002DFE7B681B8C18461037BD4680BD80B59D
:1044500084B000AFF860B9607A603B60FB68BA680E
:104460001A60FB687A685A60FB683A689A60FB6871
:10447000BA69DA60FB68FA691A61FB683A6A5A61DC
:10448000FB687A6A9A61FB684FF6FF721A8405E04E
:10449000FB681B681846FFF770FD00BFFB681B68D0
:1044A0001846FFF77AFD0346002BF1D00021F8688B
:1044B000FFF734FFF868FFF7D8FE00BF1037BD469E
:1044C00080BD000080B586B000AF78600123FB732B
:1044D00000233B617B687B611FE07B691B78202B9D
:1044E00005D17B6900221A700123FB7312E0FB7B6C
:1044F000002B0FD03B69072B0AD81D493B697A690D
:1045000041F823203B6901333B610023FB7301E049
:10451000022328E07B6901337B617B691B78002BD8
:10452000DBD13B69002B1DD0124BBB6016E0104B5A
:104530001A68BB681B6819461046FBF749FE03461C
:10454000002B08D1BB685B683A6909491046984757
:104550000346DBB207E0BB680C33BB60BB681B687B
:10456000002BE4D1012318461837BD4680BD00BF9B
:10457000A00300204C00002080B500AF00F0E0FF59
:1045800001F04CF80346074A136020220021064838
:1045900002F087FA054B00221A70054801F00CF86A
:1045A00000BF80BDC4030020C8030020E803002032
:1045B0009089000800000000B0B58AB000AF87ED18
:1045C000020B786039607B687B627B6A3B623B6888
:1045D000022B01DD02233B604FF000024FF000038D
:1045E000D7E90201FCF782FA0346002B0AD0BC6827
:1045F000FB6883F00045C7E902457B6A5A1C7A6272
:104600002D221A703B68002B4FDA4FF000027C4BD2
:10461000D7E90201FCF76AFA0346002B02D0062311
:104620003B6042E04FF00002764BD7E90201FCF715
:104630005DFA0346002B02D005233B6035E04FF0C6
:104640000002714BD7E90201FCF750FA0346002B38
:1046500002D004233B6028E04FF000026B4BD7E907
:104660000201FCF743FA0346002B02D003233B6010
:104670001BE05FA3D3E90023D7E90201FCF736FA78
:104680000346002B02D002233B600EE05AA3D3E97D
:104690000023D7E90201FCF729FA0346002B02D0D8
:1046A00001233B6001E000233B603B68002B0DD001
:1046B000574A3B68DB001344D3E90023D7E90201E2
:1046C000FBF7ECFD02460B46C7E90223D7E90201DE
:1046D000FCF734FA0346FB61F869FBF72BFF02464F
:1046E0000B46D7E90201FBF7D7FD02460B46C7E9A7
:1046F0000223FB69002B05D17B6A5A1C7A623022A7
:104700001A7038E07B6A3B621AE0FA69414B83FB1E
:1047100002139910D317C91A0B469B000B445B0078
:10472000D11ACAB23B6A591C39623032D2B21A70FD
:10473000FB69384A82FB03129210DB17D31AFB6124
:10474000FB69002BE1D13B6ABB610EE03B6A013B98
:104750003B623B6A1B78FB757B6A1A783B6A1A706E
:104760007B6A5A1C7A62FA7D1A703A6A7B6A9A42AC
:10477000ECD8BB697B623B68002B30D07B6A5A1C4B
:104780007A622E221A7025E04FF000021D4BD7E905
:104790000201FBF739FF02460B46C7E90223D7E9BE
:1047A0000201FCF7F3F90346FB757B6A5A1C7A6237
:1047B000FA7D3032D2B21A70FB7D1846FBF7BAFE92
:1047C00002460B46D7E90201FBF766FD02460B469F
:1047D000C7E902233B685A1E3A60002BD4D17B6A9A
:1047E00000221A707B6818462837BD46B0BD00BF4E
:1047F000000000000088C34000000000006AF8408C
:104800000000F03F000024400000594000408F406D
:10481000608A00086766666680B485B000AFF8609D
:10482000B9607A603B60FA68BB68D31AB9693A68C4
:104830008A1A03FB02F27968BB68CB1A92FBF3F287
:104840003B68134418461437BD465DF8047B704737
:1048500080B584B000AF78605CE0364B1B681846CA
:1048600000F0A5FC0346FB73FB7B184600F080FEBE
:10487000FB7B0D2B02D0FB7B0A2B27D12E4B1B7809
:10488000002B1FD02C4B1B781A462C4B002199541F
:10489000294B1B780133DAB2274B1A702748FFF7F0
:1048A00011FE0346BB73244B00221A7097F90E3099
:1048B000234A52F82330184600F07EFE214800F0CB
:1048C0007BFE27E0204800F077FE23E0FB7B082BEF
:1048D00002D0FB7B7F2B0AD1174B1B78002B19D002
:1048E000154B1B78013BDAB2134B1A7012E0124BD6
:1048F0001B781946114AFB7B53540F4B1B7801332D
:10490000DAB20D4B1A700C4B1B781F2B02D90A4BD5
:1049100000221A70074B1B68184600F009FC03467A
:1049200083F00103DBB2002B97D100BF00BF10372B
:10493000BD4680BDC4030020E8030020C80300205A
:1049400038000020AC890008B089000880B584B028
:1049500000AF786039600F4800F02EFE0E4BFB6010
:104960000FE0FB681B68184600F026FEFB689B689A
:10497000184600F021FE094800F01EFEFB680C33CB
:10498000FB60FB681B68002BEBD100231846103737
:10499000BD4680BDB88900084C000020D0890008C1
:1049A00080B586B002AF786039603B6808331B6819
:1049B000184601F0D8F80346FB733B680C331B68BC
:1049C000184601F0CDF853EC102B10461946FCF7B1
:1049D000DDF80346BB733B6804331B685149184636
:1049E000FBF7F6FB0346002B45D1FB7B002B12D1D6
:1049F0007B68022B01DC032390E07B68032B01DD45
:104A000002238BE00021484800F088FA4748FFF76E
:104A100097FA002382E0FB7B002B27D0FB7B242B23
:104A200024D87B68032B01DC032377E07B68042B0D
:104A300001DD022372E0BB7B642B01D904236DE00E
:104A4000B87BFF230093002364220021FFF7E4FEDC
:104A500003463B733B7B1A460021334800F0B4FA0F
:104A6000FB7B19463148FFF7FBF956E0FB7B242B13
:104A700053D9042352E03B6804331B682C49184681
:104A8000FBF7A6FB0346002B45D1FB7B002B12D185
:104A90007B68022B01DC032340E07B68032B01DDF4
:104AA00002233BE00121204800F038FA2148FFF7BB
:104AB00047FA002332E0FB7B002B27D0FB7B082B3F
:104AC00024D87B68032B01DC032327E07B68042BBD
:104AD00001DD022322E0BB7B642B01D904231DE00E
:104AE000B87BFF230093002364220021FFF794FE8C
:104AF00003467B737B7B1A4601210B4800F064FA66
:104B0000FB7B19460B48FFF7ABF906E0FB7B082B54
:104B100003D9042302E0042300E0002318461037E1
:104B2000BD4680BDD4890008CC020020E4020020EC
:104B3000D88900080403002080B485B000AF034684
:104B4000FB80FB884FF47A7202FB03F307EE903A86
:104B5000F8EEE77A9FED0D7A27EE877ADFED0C6AA3
:104B6000C7EE267AC7ED037A97ED037ADFED096A7F
:104B7000C7EE267AC7ED037AFB6807EE903AB0EEEF
:104B8000670A1437BD465DF8047B704733335340E2
:104B900000F07F4500007A43B0B586B000AF786082
:104BA00039607B68012B01DC032355E07B68022B15
:104BB00001DD022350E03B6804331B682849184696
:104BC000FBF706FB0346002B1CD1264800F0F4FC43
:104BD000254B9B891846FFF7AFFF87ED050A7869DB
:104BE000FBF7BAFC04460D4607F1080302211846FC
:104BF00045EC104BFFF7E0FC034619461B4800F05C
:104C000013FF28E03B6804331B6819491846FBF77B
:104C1000DFFA0346002B1CD1164800F0CDFC124BE6
:104C2000DB891846FFF788FF87ED050A7869FBF7EF
:104C300093FC04460D4607F108030221184645EC93
:104C4000104BFFF7B9FC03461946084800F0ECFE8C
:104C500001E0042300E0002318461837BD46B0BD2C
:104C6000D4890008DC89000824030020EC890008AE
:104C7000D8890008F489000880B584B000AF786056
:104C800039607B68012B01DC032321E07B68022B68
:104C900001DD02231CE03B6804331B68184600F06A
:104CA00062FF0346FB73FB7B19460B48FFF7D8F8FE
:104CB0000A20FEF775FE4FF47A710848FFF766FB8D
:104CC000FB7B064A128C1946054800F0ADFE002316
:104CD00018461037BD4680BD5403002074030020E1
:104CE000048A000880B483B000AF78607B681B68DA
:104CF00043F040027B681A6000BF0C37BD465DF888
:104D0000047B704780B483B000AF78607B681B6819
:104D100003F04003402B01D1012300E0002318469B
:104D20000C37BD465DF8047B704780B483B000AF9C
:104D300078607B689B6803F00203022B01D101239A
:104D400000E0002318460C37BD465DF8047B704731
:104D500080B483B000AF78607B689B6803F0800309
:104D6000802B01D1012300E0002318460C37BD46FB
:104D70005DF8047B704780B485B000AF78600B4667
:104D8000FB707B680C33FB60FB68FA781A7000BF1D
:104D90001437BD465DF8047B704780B485B000AF22
:104DA00078600B467B807B680C33FB60FB687A88FD
:104DB0001A8000BF1437BD465DF8047B704780B48D
:104DC00083B000AF786039607B683A689A6100BF51
:104DD0000C37BD465DF8047B704780B483B000AFEC
:104DE000786039603B681A047B689A6100BF0C37B1
:104DF000BD465DF8047B704780B584B000AF786035
:104E000000BF7B681B681846FFF78FFF0346002B27
:104E1000F7D00023FB6076E07B685A687B689B686C
:104E200019461046FFF7D9FFFB68002B0CD07A68B3
:104E3000FB68134414331B781BB21B011AB2364BA8
:104E400013431BB29BB20BE07A68FB681344143324
:104E50001B781BB21B011BB243F440531BB29BB225
:104E60007B817B681A687B891B0A9BB2DBB219467F
:104E70001046FFF780FF00BF7B681B681846FFF7EE
:104E800054FF0346002BF7D000BF7B681B68184611
:104E9000FFF75EFF0346002BF7D17B681B687A891A
:104EA000D2B211461846FFF766FF00BF7B681B6849
:104EB0001846FFF73AFF0346002BF7D000BF7B6888
:104EC0001B681846FFF744FF0346002BF7D17B68A9
:104ED0005A687B689B6819461046FFF770FF7B682D
:104EE000DA687B681B6919461046FFF776FF00BF3A
:104EF0007B68DA687B681B6919461046FFF75FFF1D
:104F0000FB680133FB60FB68012B85DD00BF00BF40
:104F10001037BD4680BD00BF00B0FFFF80B584B034
:104F200000AF78600B46FB7000BF7B681B681846BB
:104F3000FFF7FBFE0346002BF7D07B685A687B68BF
:104F40009B6819461046FFF748FFFB78002B02D0FC
:104F50004FF4204301E04FF40053FB817B681B6852
:104F6000FA8911461846FFF718FF00BF7B681B68D7
:104F70001846FFF7DAFE0346002BF7D000BF7B6828
:104F80001B681846FFF7E4FE0346002BF7D17B6849
:104F90005A687B689B6819461046FFF710FF7B68CC
:104FA000DA687B681B6919461046FFF716FF00BFD9
:104FB0007B68DA687B681B6919461046FFF7FFFEBD
:104FC00000BF1037BD4680BD80B582B000AF7860AD
:104FD0000B46FB701346BB70FB787A681344BA78B3
:104FE0001A757868FFF708FF00BF0837BD4680BD17
:104FF00080B58CB000AFF860B9607A603B60FB6848
:10500000BA681A60FB687A685A60FB683A689A6006
:10501000FB68BA6BDA60FB68FA6B1A6107F114037C
:1050200000221A605A609A60DA601A615A61FB685D
:105030009B687B610123BB610223FB6100233B6210
:1050400000237B62FB685B6807F114021146184677
:10505000FDF78DFFFB681B697B61FB68DB6807F16F
:10506000140211461846FDF782FFFB685A68FB6878
:105070009B6819461046FFF7A2FEFB68DA68FB68DA
:105080001B6919461046FFF79AFE0023FB6208E0F1
:10509000FA68FB6A1344143300221A70FB6A013366
:1050A000FB62FB6A012BF3DD05E0FB681B68184619
:1050B000FFF718FE00BFFB681B681846FFF722FECB
:1050C0000346002BF1D0F868FFF796FE00BF30379B
:1050D000BD4680BD80B483B000AF786072B600BFBB
:1050E0007B680022A3F800217B680022A3F802213C
:1050F0007B680022A3F8042162B600BF00BF0C3712
:10510000BD465DF8047B704780B483B000AF786023
:105110007B68B3F804319BB2B3F5807F0CBF0123E9
:105120000023DBB218460C37BD465DF8047B7047A0
:1051300080B483B000AF78607B68B3F804319BB271
:10514000002B0CBF01230023DBB218460C37BD46F1
:105150005DF8047B704780B483B000AF03463960CC
:10516000FB713B683A68B2F8002192B21344FA79B5
:105170001A7072B600BF3B68B3F800319BB20133BE
:105180009BB2DBB29AB23B68A3F800213B68B3F84C
:1051900004319BB201339AB23B68A3F8042162B692
:1051A00000BF00BF0C37BD465DF8047B704780B47C
:1051B00085B000AF78607B687A68B2F8022192B25D
:1051C00013441B78FB7372B600BF7B68B3F80231DF
:1051D0009BB201339BB2DBB29AB27B68A3F8022187
:1051E0007B68B3F804319BB2013B9AB27B68A3F8A9
:1051F000042162B600BFFB7B18461437BD465DF83C
:10520000047B704780B483B000AF78607B681B6814
:1052100003F00203022B0CBF01230023DBB218466C
:105220000C37BD465DF8047B704780B483B000AF97
:1052300078607B681B6803F00403042B0CBF012318
:105240000023DBB218460C37BD465DF8047B70477F
:1052500080B483B000AF78607B681B6803F00803FC
:10526000082B0CBF01230023DBB218460C37BD46C8
:105270005DF8047B704780B483B000AF78607B68D2
:105280001B6803F02003202B0CBF01230023DBB29B
:1052900018460C37BD465DF8047B704780B483B078
:1052A00000AF78607B681B6803F08003802B0CBF25
:1052B00001230023DBB218460C37BD465DF8047BA2
:1052C000704780B485B000AF78607B681B68FB6076
:1052D000FB687B685B68FB60FB6800BF1437BD46FA
:1052E0005DF8047B704780B485B000AF78607B6860
:1052F0001B68FB60FB687B685B68FB60FB6800BF4A
:105300001437BD465DF8047B704780B485B000AFAC
:1053100078607B681B68FB60FB687B685B68FB6090
:10532000FB6800BF1437BD465DF8047B704780B44E
:1053300089B000AF78607B680C33FB60FB6853E892
:10534000003FBB60BB6843F02003FB617B680C330C
:10535000FA69BA617B617969BA6941E800233B6106
:105360003B69002BE7D100BF00BF2437BD465DF885
:10537000047B704780B489B000AF78607B680C33E1
:10538000FB60FB6853E8003FBB60BB6843F08003F1
:10539000FB617B680C33FA69BA617B617969BA6930
:1053A00041E800233B613B69002BE7D100BF00BF10
:1053B0002437BD465DF8047B704780B489B000AFE8
:1053C00078607B680C33FB60FB6853E8003FBB6090
:1053D000BB6823F08003FB617B680C33FA69BA6118
:1053E0007B617969BA6941E800233B613B69002B25
:1053F000E7D100BF00BF2437BD465DF8047B70478E
:1054000080B483B000AF78607B68DB6803F0200372
:10541000202B0CBF01230023DBB218460C37BD46FE
:105420005DF8047B704780B483B000AF78607B6820
:105430005B68DBB218460C37BD465DF8047B7047ED
:1054400080B483B000AF78600B46FB70FA787B685D
:105450005A6000BF0C37BD465DF8047B7047000002
:1054600080B582B000AF3448FFF718FF0346002B29
:105470001ED0324B1B6803F583731846FFF758FEA6
:10548000034683F00103DBB2002B0ED02B4B1B68CD
:1054900003F583731846FFF78AFE0346FB71FB7919
:1054A00019462548FFF7CCFF02E02348FFF785FFA8
:1054B0002148FFF7E0FE0346002B3AD01E48FFF7D5
:1054C0009FFF0346002B34D01B48FFF7ACFF034679
:1054D000BB711948FFF7BCFE0346002B0BD11648E1
:1054E000FFF790FE0346002B05D11348FFF79DFE02
:1054F0000346002B09D01048FFF707FF0E48FFF7BF
:10550000E0FE0D48FFF7EFFE12E00C4B1B6818465B
:10551000FFF7FAFD034683F00103DBB2002B07D04F
:10552000064B1B681A46BB7911461846FFF713FE57
:1055300000BF0837BD4680BD001401408800002030
:1055400080B500AF084B1B6803F583731846FFF75F
:10555000C1FD054B1B681846FFF7BCFD0348FFF76C
:10556000E6FE00BF80BD00BF88000020001401409F
:1055700080B582B000AF0346FB7100BF0C4B1B68C7
:1055800003F583731846FFF7BFFD0346002BF5D1E3
:10559000074B1B6803F58372FB7911461846FFF72A
:1055A000DAFD0448FFF7E6FE00BF0837BD4680BDC0
:1055B000880000200014014080B582B000AF786000
:1055C00006E07B685A1C7A601B781846FFF7D0FF0C
:1055D0007B681B78002BF4D100BF00BF0837BD46A5
:1055E00080BD80B584B000AF78600B46FB700023AF
:1055F000FB7309E07B685A1C7A601B781846FFF73A
:10560000B7FFFB7B0133FB73FA7BFB789A42F1D344
:1056100000BF00BF1037BD4680BD000080B400AFA2
:10562000034B1B681846BD465DF8047B704700BFFE
:105630008800002080B58EB000AF78603960E2E16C
:105640000023FB6202E0FB6A0133FB62FB6A7A68BB
:1056500013441B78252B05D0FB6A7A6813441B780A
:10566000002BF0D1FB6ADBB219467868FFF7B9FF6F
:10567000FB6A7A6813447B607B681B78252B40F0BB
:10568000C2817B6801337B6000233B62202387F863
:1056900037307B685A1C7A601B78253B532B00F20D
:1056A000AC8101A252F823F0ED590008FB59000823
:1056B000FB590008FB590008FB590008FB5900087A
:1056C000FB590008FB590008FB590008FB5900086A
:1056D000FB590008F9570008F9570008F957000866
:1056E000F9570008F9570008F9570008F95700085A
:1056F000F9570008F9570008F9570008FB59000846
:10570000FB590008FB590008FB590008FB59000829
:10571000FB590008FB590008FB590008FB59000819
:10572000FB590008FB590008FB590008FB59000809
:10573000FB590008FB590008FB590008FB590008F9
:10574000FB590008FB590008FB590008FB590008E9
:10575000FB590008FB590008FB590008FB590008D9
:10576000FB590008FB590008FB590008FB590008C9
:10577000FB590008DD580008FB590008FB590008D8
:10578000FB590008FB590008FB590008FB590008A9
:10579000FB590008FB590008FB590008FB59000899
:1057A0002D58000845580008FB590008FB5900080F
:1057B000FB590008FB59000845580008FB59000830
:1057C000FB590008FB590008FB590008FB59000869
:1057D000FB590008DD580008FB590008FB59000878
:1057E0006F580008FB590008C5580008FB5900080D
:1057F000FB590008DD5800087B68013B1B78302B03
:1058000005D13B6A002B02D1302387F837303A6A42
:1058100013469B0013445B003B627B68013B1B7893
:105820001A463B6A1344303B3B6232E73B681A1D21
:105830003A601B68BB6207F1280301211846FFF795
:10584000D0FEE0E03B681A1D3A601B68BB62002393
:105850007B62BB6A002B05DABB6A5B42BB62012339
:10586000BB6101E00023BB610A23FB6141E03B68AF
:105870001A1D3A601B683B630023FB6202E0FB6A6F
:105880000133FB62FB6A3A6B13441B78002BF6D1A1
:10589000FB6ADBB21946386BFFF7A3FE3A6AFB6A74
:1058A0009A4240F2AF80FB6A3A6AD31A3B6203E045
:1058B00001215A48FFF795FE3B6A5A1E3A62002BB7
:1058C000F6D19FE03B681A1D3A601B68BB6200235B
:1058D0007B620A23FB610023BB610AE03B681A1D5F
:1058E0003A601B68BB6200237B621023FB610023CC
:1058F000BB610123FB6207E0FB69FA6A02FB03F369
:10590000FB623B6A013B3B62FB6AFA6903FB02F202
:10591000BB6A9A4209D8FB6AFA6903FB02F2FB6987
:10592000B2FBF3F2FB6A9A42E6D0BB69002B02D0CD
:105930003B6A013B3B62BB69002B0DD097F83730C7
:10594000302B09D17B6A5A1C7A6238333B442D22B2
:1059500003F8302C0023BB613B6A012B15D93B6A4D
:105960000F2B12D83B6A013B3B620BE07B6A5A1C4F
:105970007A6238333B4497F8372003F8302C3B6A7F
:10598000013B3B623B6A002BF0D1BB69002B21D06D
:105990007B6A5A1C7A6238333B442D2203F8302C40
:1059A00018E01F48BA6AFB6AB2FBF3F3FA69B3FB6B
:1059B000F2F101FB02F29B1AC2187B6A591C796250
:1059C000127838333B4403F8302CFB69FA6AB2FB97
:1059D000F3F3FB62FB6A002BE3D17B6ADAB207F1D7
:1059E000080311461846FFF7FCFD0CE07B68013BFD
:1059F00001211846FFF7F5FD05E005210948FFF7ED
:105A0000F0FD00E000BF7B681B78002B7FF418AE30
:105A100000BF00BF3837BD4680BD00BF2C8A0008DC
:105A2000188A0008308A00080FB480B582B000AF31
:105A300007F114037B6079683869FFF7FBFD00BF4D
:105A40000837BD46BDE8804004B0704780B400AF61
:105A5000044B1B680133034A136000BFBD465DF869
:105A6000047B7047FC05002080B483B000AF7860F1
:105A70000B4B1A687B68B2FBF3F30A4A013B536095
:105A8000084B00229A60074B07221A60064A7B687F
:105A9000136000BF0C37BD465DF8047B704700BF44
:105AA0002C00002010E000E08C00002080B582B0C7
:105AB00000AF00237B6022E07A6813469B0013440A
:105AC0009B00144A13443B603B681B7C002B13D0A3
:105AD0003B68DB68184600F023F802463B689B6889
