:020000040800F2
:100000000000022025250008B1220008B9220008BE
:10001000C1220008C9220008D12200080000000007
:10002000000000000000000000000000D9220008CD
:10003000E722000800000000F52200080323000862
:100040007525000875250008752500087525000828
:100050007525000875250008752500087525000818
:100060007525000875250008752500087525000808
:1000700075250008752500087525000875250008F8
:1000800075250008752500087525000875250008E8
:1000900075250008752500087525000875250008D8
:1000A000752500081123000875250008752500082E
:1000B00075250008752500087525000875250008B8
:1000C00075250008752500087525000875250008A8
:1000D00045230008752500087525000875250008CA
:1000E0007525000875250008752500087525000888
:1000F0007525000875250008752500087525000878
:100100007525000875250008752500087525000867
:100110007525000875250008752500087525000857
:100120005923000875250008752500087525000865
:100130007525000875250008752500087525000837
:100140007525000875250008752500087525000827
:100150007525000875250008752500086723000827
:100160007525000875250008752500087525000807
:100170007525000875250008752500080000000099
:08018000752500087525000833
:1001900010B5054C237833B9044B13B10448AFF3C1
:1001A00000800123237010BDC40200200000000065
:1001B0000493000808B5034B1BB103490348AFF390
:1001C000008008BD00000000C80200200493000861
:1001D00010F8012B11F8013B012A28BF9A42F7D0F1
:1001E000D01A70470000000000000000000000006E
:1001F00001F0FF01102A2BDB10F0070F08D010F8D8
:10020000013B013A8B422DD010F0070F42B3F6D1DB
:10021000F0B441EA012141EA014122F007047FF0F4
:1002200000070023F0E80256083C85EA010586EA4B
:10023000010685FA47F5A3FA87F586FA47F6A5FA87
:1002400087F68EB9EED1F0BC01F0FF0102F0070293
:1002500032B110F8013B013A83EA010313B1F8D13E
:100260000020704701387047002D06BF354603381F
:10027000073815F0010F07D1013015F4807F02BF58
:10028000013015F4C03F0130F0BC0138704700BFA9
:1002900081F0004102E000BF83F0004330B54FEA37
:1002A00041044FEA430594EA050F08BF90EA020FA4
:1002B0001FBF54EA000C55EA020C7FEA645C7FEA37
:1002C000655C00F0E2804FEA5454D4EB5555B8BF5A
:1002D0006D420CDD2C4480EA020281EA030382EACB
:1002E000000083EA010180EA020281EA0303362D5D
:1002F00088BF30BD11F0004F4FEA01314FF4801C30
:100300004CEA113102D0404261EB410113F0004F41
:100310004FEA03334CEA133302D0524263EB4303F8
:1003200094EA050F00F0A780A4F10104D5F1200E96
:100330000DDB02FA0EFC22FA05F2801841F10001F1
:1003400003FA0EF2801843FA05F359410EE0A5F1C5
:1003500020050EF1200E012A03FA0EFC28BF4CF0F6
:10036000020C43FA05F3C01851EBE37101F00045AC
:1003700007D54FF0000EDCF1000C7EEB00006EEBB9
:100380000101B1F5801F1BD3B1F5001F0CD3490843
:100390005FEA30004FEA3C0C04F101044FEA44529A
:1003A00012F5800F80F09A80BCF1004F08BF5FEA21
:1003B000500C50F1000041EB045141EA050130BD01
:1003C0005FEA4C0C404141EB0101013C28BFB1F513
:1003D000801FE9D291F0000F04BF01460020B1FA5E
:1003E00081F308BF2033A3F10B03B3F120020CDA31
:1003F0000C3208DD02F1140CC2F10C0201FA0CF00F
:1004000021FA02F10CE002F11402D8BFC2F1200C73
:1004100001FA02F120FA0CFCDCBF41EA0C01904029
:10042000E41AA2BF01EB0451294330BD6FEA040472
:100430001F3C1CDA0C340EDC04F11404C4F120025D
:1004400020FA04F001FA02F340EA030021FA04F36F
:1004500045EA030130BDC4F10C04C4F1200220FAC6
:1004600002F001FA04F340EA0300294630BD21FA04
:1004700004F0294630BD94F0000F83F4801306BFCA
:1004800081F480110134013D4EE77FEA645C18BFBE
:100490007FEA655C29D094EA050F08BF90EA020F55
:1004A00005D054EA000C04BF1946104630BD91EA4D
:1004B000030F1EBF0021002030BD5FEA545C05D150
:1004C0004000494128BF41F0004130BD14F580048F
:1004D0003CBF01F5801130BD01F0004545F0FE4103
:1004E00041F470014FF0000030BD7FEA645C1ABF38
:1004F000194610467FEA655C1CBF0B46024650EA6F
:10050000013406BF52EA033591EA030F41F400219A
:1005100030BD00BF90F0000F04BF0021704730B520
:100520004FF4806404F132044FF000054FF00001F5
:1005300050E700BF90F0000F04BF0021704730B5B6
:100540004FF4806404F1320410F0004548BF40428B
:100550004FF000013EE700BF42004FEAE2014FEAE0
:1005600031014FEA02701FBF12F07F4393F07F4FBB
:1005700081F06051704732F07F4208BF704793F0BE
:100580007F4F04BF41F40021704730B54FF46074D1
:1005900001F0004521F000411CE700BF50EA0102D4
:1005A00008BF704730B54FF000050AE050EA01027D
:1005B00008BF704730B511F0004502D5404261EBED
:1005C00041014FF4806404F132045FEA915C3FF42E
:1005D000D8AE4FF003025FEADC0C18BF03325FEACB
:1005E000DC0C18BF033202EBDC02C2F1200300FA7C
:1005F00003FC20FA02F001FA03FE40EA0E0021FAA1
:1006000002F11444BDE600BF70B54FF0FF0C4CF48E
:10061000E06C1CEA11541DBF1CEA135594EA0C0F40
:1006200095EA0C0F00F0DEF82C4481EA030621EA7B
:100630004C5123EA4C5350EA013518BF52EA0335B6
:1006400041F4801143F4801338D0A0FB02CE4FF068
:100650000005E1FB02E506F00042E0FB03E54FF098
:100660000006E1FB03569CF0000F18BF4EF0010E90
:10067000A4F1FF04B6F5007F64F5407404D25FEA8C
:100680004E0E6D4146EB060642EAC62141EA55513F
:100690004FEAC52040EA5E504FEACE2EB4F1FD0C81
:1006A00088BFBCF5E06F1ED8BEF1004F08BF5FEAFF
:1006B000500E50F1000041EB045170BD06F00046B1
:1006C00046EA010140EA020081EA0301B4EB5C045E
:1006D000C2BFD4EB0C0541EA045170BD41F4801156
:1006E0004FF0000E013C00F3AB8014F1360FDEBF7B
:1006F000002001F0004170BDC4F10004203C35DA57
:100700000C341BDC04F11404C4F1200500FA05F3D9
:1007100020FA04F001FA05F240EA020001F000427A
:1007200021F0004110EBD37021FA04F642EB0601F0
:100730005EEA430E08BF20EAD37070BDC4F10C041A
:10074000C4F1200500FA04F320FA05F001FA04F2DE
:1007500040EA020001F0004110EBD37041F10001CA
:100760005EEA430E08BF20EAD37070BDC4F12005D5
:1007700000FA05F24EEA020E20FA04F301FA05F23D
:1007800043EA020321FA04F001F0004121FA04F2E5
:1007900020EA020000EBD3705EEA430E08BF20EAB5
:1007A000D37070BD94F0000F0FD101F000464000EF
:1007B00041EB010111F4801F08BF013CF7D041EA71
:1007C000060195F0000F18BF704703F00046520075
:1007D00043EB030313F4801F08BF013DF7D043EA46
:1007E0000603704794EA0C0F0CEA135518BF95EAFC
:1007F0000C0F0CD050EA410618BF52EA4306D1D183
:1008000081EA030101F000414FF0000070BD50EAA1
:10081000410606BF1046194652EA430619D094EA2B
:100820000C0F02D150EA013613D195EA0C0F05D115
:1008300052EA03361CBF104619460AD181EA030169
:1008400001F0004141F0FE4141F470014FF0000021
:1008500070BD41F0FE4141F4780170BD70B54FF0BC
:10086000FF0C4CF4E06C1CEA11541DBF1CEA13553C
:1008700094EA0C0F95EA0C0F00F0A7F8A4EB05041E
:1008800081EA030E52EA03354FEA013100F0888015
:100890004FEA03334FF0805545EA131343EA1263DE
:1008A0004FEA022245EA111545EA10654FEA002693
:1008B0000EF000419D4208BF964244F1FD0404F54C
:1008C000407402D25B084FEA3202B61A65EB0305A8
:1008D0005B084FEA32024FF480104FF4002CB6EB65
:1008E000020E75EB030E22BFB61A754640EA0C00E5
:1008F0005B084FEA3202B6EB020E75EB030E22BF25
:10090000B61A754640EA5C005B084FEA3202B6EB65
:10091000020E75EB030E22BFB61A754640EA9C0024
:100920005B084FEA3202B6EB020E75EB030E22BFF4
:10093000B61A754640EADC0055EA060E18D04FEAB2
:10094000051545EA16754FEA06164FEAC30343EA52
:1009500052734FEAC2025FEA1C1CC0D111F4801F1F
:100960000BD141EA00014FF000004FF0004CB6E718
:1009700011F4801F04BF01430020B4F1FD0C88BFB7
:10098000BCF5E06F3FF6AFAEB5EB030C04BFB6EBC2
:10099000020C5FEA500C50F1000041EB045170BDB5
:1009A0000EF0004E4EEA113114EB5C04C2BFD4EBE2
:1009B0000C0541EA045170BD41F480114FF0000E66
:1009C000013C90E645EA060E8DE60CEA135594EAE2
:1009D0000C0F08BF95EA0C0F3FF43BAF94EA0C0FE5
:1009E0000AD150EA01347FF434AF95EA0C0F7FF45A
:1009F00025AF104619462CE795EA0C0F06D152EAAE
:100A000003353FF4FDAE1046194622E750EA410691
:100A100018BF52EA43067FF4C5AE50EA41047FF4A2
:100A20000DAF52EA43057FF4EBAE12E74FF0FF3C07
:100A300006E000BF4FF0010C02E000BF4FF0010CD8
:100A40004DF804CD4FEA410C7FEA6C5C4FEA430C51
:100A500018BF7FEA6C5C1BD001B050EA410C0CBFA0
:100A600052EA430C91EA030F02BF90EA020F002002
:100A7000704710F1000F91EA030F58BF994208BF69
:100A800090422CBFD8176FEAE37040F00100704726
:100A90004FEA410C7FEA6C5C02D150EA013C07D17D
:100AA0004FEA430C7FEA6C5CD6D152EA033CD3D0C8
:100AB0005DF8040B704700BF8446104662468C46C2
:100AC0001946634600E000BF01B5FFF7B7FF0028F5
:100AD00048BF10F1000F01BD4DF808EDFFF7F4FF1E
:100AE0000CBF012000205DF808FB00BF4DF808EDA9
:100AF000FFF7EAFF34BF012000205DF808FB00BFCC
:100B00004DF808EDFFF7E0FF94BF012000205DF8ED
:100B100008FB00BF4DF808EDFFF7CEFF94BF0120A2
:100B200000205DF808FB00BF4DF808EDFFF7C4FF9B
:100B300034BF012000205DF808FB00BF4FEA4102EE
:100B400012F5001215D211D56FF47873B3EB62521F
:100B500012D94FEAC12343F0004343EA505311F046
:100B6000004F23FA02F018BF404270474FF00000D8
:100B7000704750EA013005D111F0004008BF6FF016
:100B8000004070474FF00000704700BF4A0011D28C
:100B900012F5001211D20DD56FF47873B3EB6252D7
:100BA0000ED44FEAC12343F0004343EA505323FAE3
:100BB00002F070474FF00000704750EA013002D158
:100BC0004FF0FF3070474FF0000070474FEA41028E
:100BD000B2F1E04324BFB3F5001CDCF1FE5C0DD99B
:100BE00001F0004C4FEAC0024CEA5070B2F1004FE5
:100BF00040EB830008BF20F00100704711F0804FE8
:100C000021D113F13872BCBF01F00040704741F4AC
:100C100080114FEA5252C2F11802C2F1200C10FAB0
:100C20000CF320FA02F018BF40F001004FEAC12394
:100C30004FEAD32303FA0CFC40EA0C0023FA02F338
:100C40004FEA4303CCE77FEA625307D150EA01330E
:100C50001EBF4FF0FE4040F44000704701F00040DE
:100C600040F0FE4040F40000704700BF53B94AB95D
:100C7000002908BF00281CBF4FF0FF314FF0FF30A4
:100C800000F0BEB9ADF1080C6DE904CE00F03CF8FF
:100C9000DDF804E0DDE9022304B0704738B5002236
:100CA000002304460D46FFF721FF28B920462946B8
:100CB000BDE8384000F00AB8204605F1004100F0D8
:100CC00005F8404261EB410138BD00BFD0B50C4B87
:100CD000002206460F46FFF797FCFFF757FF044632
:100CE000FFF718FC074B0022FFF78EFC02460B466D
:100CF00030463946FFF7D0FAFFF748FF2146D0BD0E
:100D00000000F03D0000F0412DE9F047089D8E46BF
:100D100004468846002B4AD18A42174662D9B2FA65
:100D200082F64EB1C6F1200301FA06F820FA03F369
:100D3000B74043EA0808B4404FEA174E1FFA87FC51
:100D4000B8FBFEF1230C0EFB118843EA084301FBBC
:100D50000CF29A4209D9FB1801F1FF3080F0EA80C9
:100D60009A4240F2E78002393B449A1AA3B2B2FB9E
:100D7000FEF00EFB102243EA024300FB0CFC9C45F4
:100D800009D9FB1800F1FF3280F0D6809C4540F273
:100D9000D3803B44023840EA0140A3EB0C0300211E
:100DA0001DB1F3400022C5E90032BDE8F0878B4257
:100DB00005D90DB1C5E9000100210846F5E7B3FAF0
:100DC00083F1002946D1734502D3824200F20581A6
:100DD000841A6EEB030201209046002DE5D0C5E990
:100DE0000048E2E7002A00F09080B2FA82F6002E76
:100DF00040F0A4808A1A030C4FEA174E80B2BCB2AE
:100E00000121B2FBFEFC0EFB1C2243EA024304FB61
:100E10000CF29A4207D9FB180CF1FF3802D29A4221
:100E200000F2E080C4469B1AB3FBFEF20EFB1233C5
:100E300040EA034302FB04F49C4207D9FB1802F189
:100E4000FF3002D29C4200F2CA8002461B1B42EADB
:100E50000C40A5E7C1F120068B4022FA06F71F439C
:100E60000EFA01F420FA06F32EFA06FE4FEA1749AD
:100E7000234300FA01F81FFA87FCBEFBF9F01C0CB3
:100E800009FB10EE44EA0E4400FB0CFEA64502FAF4
:100E900001F209D93C1900F1FF3A80F09C80A64587
:100EA00040F2998002383C44A4EB0E041FFA83FE02
:100EB000B4FBF9F309FB13444EEA044403FB0CFCB6
:100EC000A44508D93C1903F1FF3E80F08280A44577
:100ED0007FD9023B3C4443EA0040A4EB0C04A0FB56
:100EE00002EC64457346E14662D35FD05DB1B8EB76
:100EF000030264EB090404FA06F622FA01F31E4326
:100F0000CC40C5E9006400214FE7B1FBF2FC010CC5
:100F100041EA0E4180B240EA01423B4638463C4637
:100F2000B846BE462026B1FBF7F1A2EB080241EA23
:100F30000C4166E7014618E710462CE7C6F120028F
:100F40002EFA02F3B740B14020FA02F24FEA174EF0
:100F50000A43B3FBFEF8BCB20EFB1833110C41EA96
:100F6000034108FB04F9B04089454FEA104380B2C1
:100F70003ED9791808F1FF3C01D289451FD8A1EB71
:100F80000901B1FBFEF909FB04F80EFB191192B23D
:100F900042EA0142424529D2BA1809F1FF31C4D2CE
:100FA0004245C2D2A9F102013A44BEE7F0459DD2C2
:100FB000BEEB02036CEB070C0138E14696E7A7EBAA
:100FC00009094944A8F1020CB1FBFEF909FB04F838
:100FD000DBE773467FE7504666E70846FDE63B449D
:100FE000023A33E7ACF1020C3B441CE749469CE76C
:100FF000A1EB0901C446B1FBFEF909FB04F8C4E703
:10100000704700BF80B485B000AF78607B6803F0A4
:101010000703FB600C4BDB68BB60BA684FF6FF034D
:101020001340BB60FB681A02BB68134343F0BF6305
:1010300043F40033BB60044ABB68D36000BF14377D
:10104000BD465DF8047B704700ED00E080B400AF62
:10105000044BDB681B0A03F007031846BD465DF826
:10106000047B704700ED00E080B483B000AF03461E
:10107000FB7197F90730002B0BDBFB7903F01F02A4
:10108000074997F907305B09012000FA02F241F89D
:10109000232000BF0C37BD465DF8047B704700BFBE
:1010A00000E100E080B483B000AF03463960FB711B
:1010B00097F90730002B0ADB3B68DAB20C4997F945
:1010C00007301201D2B20B4483F800230AE03B68D8
:1010D000DAB20849FB7903F00F03043B1201D2B2E4
:1010E0000B441A7600BF0C37BD465DF8047B704791
:1010F00000E100E000ED00E080B489B000AFF860EE
:10110000B9607A60FB6803F00703FB61FB69C3F118
:101110000703042B28BF0423BB61FB690433062BA0
:1011200002D9FB69033B00E000237B614FF0FF32F3
:10113000BB6902FA03F3DA43BB681A407B699A4041
:101140004FF0FF317B6901FA03F3D9437B680B4011
:10115000134318462437BD465DF8047B704780B4BE
:1011600089B000AFF860B9607A60FB682C3319462B
:10117000BB6803F440734FF440727A617A6992FA63
:10118000A2F23A613A69BA61BA69002A01D1202211
:1011900003E0BA69B2FA82F2D2B2D3409B000B44A8
:1011A000FB61FB691A68BB6803F01F031F2101FA8A
:1011B00003F3DB431A407B6803F01F01BB6803F0B5
:1011C0001F0301FA03F31A43FB691A6000BF2437B7
:1011D000BD465DF8047B704780B483B000AF786093
:1011E00039607B689B6823F480623B681A437B68A4
:1011F0009A6000BF0C37BD465DF8047B704780B431
:101200008FB000AFF860B9607A60FB680C331946A4
:10121000BB6803F000734FF000727A617A6992FA4A
:10122000A2F23A613A69BA61BA69002A01D1202270
:1012300003E0BA69B2FA82F2D2B2D3409B000B4407
:101240007B637B6B1A68BB6803F0F8734FF0F8712F
:101250003962396A91FAA1F1F961F9697962796AB9
:10126000002901D1202103E0796AB1FA81F1C9B2E4
:10127000CB40072101FA03F3DB431A40BB6803F0BC
:10128000F8734FF0F871F962F96A91FAA1F1B96255
:10129000B96A3963396B002901D1202103E0396B28
:1012A000B1FA81F1C9B2CB40796801FA03F31A436C
:1012B0007B6B1A6000BF3C37BD465DF8047B70470E
:1012C00080B485B000AFF860B9607A600D4ABB6841
:1012D00013441B781A46FB6813441B6823F0C002B2
:1012E0000849BB680B441B781946FB680B44194638
:1012F0007B6813430B6000BF1437BD465DF8047B69
:10130000704700BFDC97000880B485B000AFF8607C
:10131000B9607A600D4ABB6813441B781A46FB68B3
:1013200013441B6823F490720849BB680B441B7874
:101330001946FB680B4419467B6813430B6000BFDA
:101340001437BD465DF8047B704700BFDC9700088A
:1013500080B485B000AFF860B9607A600D4ABB68B0
:1013600013441B781A46FB6813441B6823F400726D
:101370000849BB680B441B781946FB680B441946A7
:101380007B6813430B6000BF1437BD465DF8047BD8
:10139000704700BFDC97000880B485B000AFF860EC
:1013A000B9607A600D4ABB6813441B781A46FB6823
:1013B00013441B6823F480620849BB680B441B7804
:1013C0001946FB680B4419467B6813430B6000BF4A
:1013D0001437BD465DF8047B704700BFDC970008FA
:1013E00080B485B000AFF860B9607A600D4ABB6820
:1013F00013441B781A46FB6813441B6823F4C0523D
:101400000849BB680B441B781946FB680B44194616
:101410007B6813430B6000BF1437BD465DF8047B47
:10142000704700BFDC97000880B485B000AFF8605B
:10143000B9607A600D4ABB6813441B781A46FB6892
:1014400013441B6823F4C0420849BB680B441B7853
:101450001946FB680B4419467B6813430B6000BFB9
:101460001437BD465DF8047B704700BFDC97000869
:1014700080B485B000AFF860B9607A600D4ABB688F
:1014800013441B781A46FB6813441B6823F440324C
:101490000849BB680B441B781946FB680B44194686
:1014A0007B6813430B6000BF1437BD465DF8047BB7
:1014B000704700BFDC97000880B485B000AFF860CB
:1014C000B9607A600D4ABB6813441B781A46FB6802
:1014D00013441B6823F060620849BB680B441B7807
:1014E0001946FB680B4419467B6813430B6000BF29
:1014F0001437BD465DF8047B704700BFDC970008D9
:1015000080B483B000AF786039600C4A3B68134404
:101510001B781A467B6813445B6908493A680A4499
:10152000127811467A680A4423F00403536100BF1D
:101530000C37BD465DF8047B704700BFDC970008A0
:1015400080B400AF054B1B68044A43F4803313603A
:1015500000BFBD465DF8047B704700BF0038024005
:1015600080B400AF074B1B6803F40033B3F5003FB2
:101570000CBF01230023DBB21846BD465DF8047B97
:10158000704700BF0038024080B483B000AF78607D
:10159000064B9B6823F0030204497B6813438B606E
:1015A00000BF0C37BD465DF8047B70470038024031
:1015B00080B400AF044B9B6803F00C031846BD4693
:1015C0005DF8047B704700BF0038024080B483B0F0
:1015D00000AF7860064B9B6823F0F00204497B68FB
:1015E00013438B6000BF0C37BD465DF8047B70472A
:1015F0000038024080B483B000AF7860064B9B682F
:1016000023F4E05204497B6813438B6000BF0C371E
:10161000BD465DF8047B70470038024080B483B05B
:1016200000AF7860064B9B6823F4604204497B68F6
:1016300013438B6000BF0C37BD465DF8047B7047D9
:101640000038024080B400AF054B1B68044A43F0E9
:101650008073136000BFBD465DF8047B704700BF18
:101660000038024080B400AF074B1B6803F00073E2
:10167000B3F1007F0CBF01230023DBB21846BD4647
:101680005DF8047B704700BF0038024080B485B02D
:1016900000AFF860B9607A603B600D4B5A680D4B43
:1016A0001340F968BA6811437A6892010A430849FD
:1016B00013434B60064B5B6823F4403204493B689C
:1016C00013434B6000BF1437BD465DF8047B704781
:1016D000003802400080BFFF80B485B000AF786062
:1016E000084B1A6B07497B6813430B63054B1A6B56
:1016F0007B681340FB60FB6800BF1437BD465DF894
:10170000047B70470038024080B485B000AF786039
:10171000084B1A6C07497B6813430B64054B1A6C22
:101720007B681340FB60FB6800BF1437BD465DF863
:10173000047B70470038024080B485B000AF786009
:10174000084B5A6C07497B6813434B64054B5A6C32
:101750007B681340FB60FB6800BF1437BD465DF833
:10176000047B70470038024080B483B000AF7860DB
:10177000064B1B6823F0070204497B6813430B6088
:1017800000BF0C37BD465DF8047B7047003C02404B
:1017900080B400AF044B1B6803F007031846BD4636
:1017A0005DF8047B704700BF003C024080B483B00A
:1017B00000AF7860064B1B6823F4804204497B68C5
:1017C00013430B6000BF0C37BD465DF8047B7047C8
:1017D0000070004080B400AF074B5B6803F48043A7
:1017E000B3F5804F0CBF01230023DBB21846BD4682
:1017F0005DF8047B704700BF0070004080B483B088
:1018000000AF786039607B685B6823F010023B684A
:101810001A437B685A6000BF0C37BD465DF8047BF5
:10182000704780B483B000AF78607B681B6843F07A
:1018300080027B681A6000BF0C37BD465DF8047BF0
:10184000704780B483B000AF786039607B689B6874
:1018500023F4804323F007033A681A437B689A60B5
:1018600000BF0C37BD465DF8047B704780B483B081
:1018700000AF786039607B685B6823F070023B687A
:101880001A437B685A6000BF0C37BD465DF8047B85
:10189000704780B483B000AF78607B689B6823F0AA
:1018A00080027B689A6000BF0C37BD465DF8047B00
:1018B000704780B483B000AF78607B68DB6843F426
:1018C00000527B68DA6000BF0C37BD465DF8047BD0
:1018D000704780B483B000AF78607B681B6923F4E5
:1018E00090427B681A617B685B6923F02A027B68FF
:1018F0005A6100BF0C37BD465DF8047B704780B469
:1019000083B000AF786039607B683A689A6100BF45
:101910000C37BD465DF8047B704780B483B000AFE0
:10192000786039603B681A047B689A6100BF0C37A5
:10193000BD465DF8047B704780B485B000AF786029
:1019400039607B685B69FB60FA683B6813401A0486
:10195000FB68D9433B680B401A437B689A6100BF20
:101960001437BD465DF8047B7047000080B582B037
:1019700000AF78604FF400610348FFF7DDFF00BF60
:101980000837BD4680BD00BF0010024080B584B05E
:1019900004AF4FF48040FFF7CFFE4FF08050FFF7C9
:1019A000B3FE0320FFF72EFBFFF750FB0346002298
:1019B0000F211846FFF7A0FB034619464FF0FF30F2
:1019C000FFF770FB00F074F800F0BCFB00F0A2FB26
:1019D00000F0F6F900F03EFB00F0B4F800F042FA37
:1019E00000F0F8FA00F0A2FA4FF400430193234B01
:1019F00000934FF48053214A2149224803F0B2FE5C
:101A0000062300934FF480431C4A1D491E4801F0F1
:101A1000EFFF012300934FF40053184A18491B4865
:101A200001F0E6FF0A2300930023194A19491A48D6
:101A300001F0BCFE062300934FF40073174A1849C7
:101A4000184801F0D5FF4FF480730393164B0293AF
:101A50004FF400630193114B00934FF480630F4ADE
:101A60000F49124802F021FC4FF47A7004F02EFC6A
:101A700002F010FD04F04CFCFCE700BF0010024037
:101A8000003001409C890120B4890120D4890120C3
:101A90000064024000200140F4890120000C024053
:101AA00000380040248A012000080240448A0120B6
:101AB00080B500AF0520FFF757FE00BFFFF768FEB7
:101AC0000346052BFAD14FF48040FFF76FFEFFF776
:101AD00037FD00BFFFF744FD0346012BFAD1002379
:101AE000A82204214FF48000FFF7D0FDFFF7AAFDE4
:101AF00000BFFFF7B7FD0346012BFAD100BFFFF788
:101B000069FE0346002BFAD00020FFF75FFD4FF47B
:101B1000A050FFF76FFD4FF40040FFF77FFD02205C
:101B2000FFF732FD00BFFFF743FD0346082BFAD154
:101B3000034801F04FFD024801F080FD00BF80BD69
:101B4000007A030A80B592B000AF07F13C0300228F
:101B50001A605A609A6007F1280300221A605A60DE
:101B60009A60DA601A6107F1180300221A605A605D
:101B70009A60DA603B4600221A605A609A60DA6026
:101B80001A615A614FF48070FFF7D6FD0420FFF709
:101B9000A3FD0120FFF7A0FD0220FFF79DFD3F23DD
:101BA0003B6003237B6000233B613B46194675483D
:101BB00000F009FF0C233B6003237B6000233B61A3
:101BC0003B461946704800F0FEFE03233B600323AA
:101BD0007B6000233B613B4619466C4800F0F3FEF6
:101BE000002200216A48FFF767FC002200216848B4
:101BF000FFF766FB002200216548FFF739FC4FF430
:101C0000807200216248FFF77FFB002200216048BC
:101C1000FFF79EFB4FF4806200215D48FFF7BCFB9D
:101C20004FF4006200215A48FFF7DAFB4FF40052EC
:101C300000215748FFF7F8FB00215548FFF760FCEB
:101C40000023FB6300233B644FF480737B6407F144
:101C50003C0319464F4800F0FDFC0023BB624FF4E3
:101C60001003FB6200233B6302237B634FF440734A
:101C7000BB6307F128031946464800F017FD4FF4EF
:101C800080614448FFF7A8FA4FF48033BB6100231A
:101C9000FB6107F1180319463F4800F093FC3F4AE7
:101CA0004FF400713B48FFF75AFA01223B4939488B
:101CB000FFF7A5FA3A4A40F205213648FFF74FFAF6
:101CC000012237493348FFF79AFA0A2240F20A21E3
:101CD0003048FFF744FA01220A212E48FFF78FFA15
:101CE000304A40F20F212B48FFF739FA01222D49E3
:101CF0002848FFF784FA2C4A4FF405712548FFF76E
:101D00002EFA012228492348FFF779FA274A40F2A0
:101D100019212048FFF723FA012224491D48FFF723
:101D20006EFA234A4FF480711A48FFF718FA01221D
:101D30001F491848FFF763FA1E4A40F2051115487B
:101D4000FFF70DFA01221B491248FFF758FA1A4A09
:101D50004FF485710F48FFF702FA012216490D482A
:101D6000FFF74DFA154A40F20F110A48FFF7F7F94D
:101D7000012212490748FFF742FA00BF4837BD4623
:101D800080BD00BF00080240000002400004024085
:101D90000064024000200140002301400200600274
:101DA000030090020B0030000C0060000D0090005A
:101DB0000E00C0000F00F000080080030900B0030F
:101DC00080B590B000AF07F1180328220021184613
:101DD00005F097FA3B4600221A605A609A60DA6072
:101DE0001A615A614FF48050FFF7A6FC0120FFF7FB
:101DF00073FCE0233B6002237B600323BB60002372
:101E0000FB6000233B6105237B613B461946134879
:101E100000F0D9FD0023BB614FF48273FB61002306
:101E20003B6200237B620123BB624FF40073FB62C1
:101E300018233B6300237B630023BB630A23FB63FC
:101E400007F118031946064800F09BFF00210448DB
:101E5000FFF7D4FC00BF4037BD4680BD0000024004
:101E60000030014080B590B000AF07F11803282280
:101E70000021184605F045FA3B4600221A605A60D8
:101E80009A60DA601A615A614FF48040FFF73CFCB7
:101E90000220FFF721FC4FF460433B6002237B608C
:101EA0000323BB600023FB6000233B6105237B61B0
:101EB0003B4619461B4800F086FDFFF7C7F803466E
:101EC000002200211846FFF717F90346194624207F
:101ED000FFF7E8F82420FFF7C7F80023BB614FF4B1
:101EE0008273FB6100233B6200237B620123BB62A0
:101EF0004FF40073FB6218233B6300237B630023D2
:101F0000BB630A23FB6307F118031946064800F078
:101F100038FF00210448FFF771FC00BF4037BD4681
:101F200080BD00BF000402400038004080B590B082
:101F300000AF07F1180328220021184605F0E1F947
:101F40003B4600221A605A609A60DA601A615A6150
:101F50004FF40040FFF7D8FB0420FFF7BDFB4FF420
:101F6000E0533B6002237B600323BB600023FB60E4
:101F700000233B6106237B613B461946134800F072
:101F800022FD0023BB614FF48273FB614FF40063B9
:101F90003B6200237B620023BB624FF40073FB6251
:101FA00000233B6300237B630023BB630A23FB63A3
:101FB00007F118031946064800F0E3FE0021044823
:101FC000FFF71CFC00BF4037BD4680BD0008024043
:101FD000003C004080B586B000AF3B1D00221A6077
:101FE0005A609A60DA601A610120FFF7A5FBFFF7DB
:101FF0002DF80346002200211846FFF77DF803461E
:1020000019461920FFF74EF81920FFF72DF8A723DE
:10201000BB800023BB600223FB6000233B610023E5
:102020007B613B1D19460A4800F038FF0848FFF75E
:10203000F8FB00210648FFF704FC00210448FFF7E5
:1020400015FC0348FFF725FC00BF1837BD4680BDCF
:102050000000014080B58EB000AF07F11C030022E4
:102060001A605A609A60DA601A615A619A613B1D7F
:1020700000221A605A609A60DA601A615A61202060
:10208000FFF75AFB0420FFF727FBC0237B600223E6
:10209000BB600323FB6000233B6100237B610823BB
:1020A000BB613B1D1946194800F08DFCFEF7CEFFC1
:1020B0000346002200211846FFF71EF80346194682
:1020C0004720FEF7EFFF4720FEF7CEFF4FF46123D6
:1020D000FB6100233B6200237B620023BB620C2375
:1020E000FB6200233B6300237B6307F11C0319465B
:1020F000074801F0D5F90648FFF7EBFB0448FFF766
:10210000D8FB00BF3837BD4680BD00BF0008024085
:102110000014014080B500AF4FF48000FFF7DCFAF7
:10212000FEF794FF0346002200211846FEF7E4FF65
:10213000034619463820FEF7B5FF3820FEF794FF16
:1021400000BF80BD80B586B000AF3B4600221A605C
:102150005A609A60DA601A615A618020FFF7BCFA0F
:102160000420FFF7B9FA0120FFF7B6FA0220FFF7C3
:10217000B3FA1020FFF7B0FA0820FFF7ADFA4FF4DA
:1021800078412E48FFF7BBFB4FF460612C48FFF706
:10219000B6FB04212A48FFF7C0FB4FF468433B60BD
:1021A00001237B600023BB600023FB6000233B61B5
:1021B0003B461946214800F006FC4FF480533B6033
:1021C00001237B600323BB600023FB6000233B6192
:1021D0003B461946194800F0F6FB4FF401733B608B
:1021E00001237B600023BB600023FB6000233B6175
:1021F0003B461946124800F0E6FB4FF440633B6053
:1022000001237B600323BB600023FB6000233B6151
:102210003B4619460A4800F0D6FB4FF480733B60FA
:1022200000237B6001233B613B461946054800F0D3
:10223000CAFB00BF1837BD4680BD00BF001002407A
:10224000000C02400008024080B483B000AF786008
:102250007B686FF001021A6100BF0C37BD465DF864
:10226000047B704780B483B000AF78607B681B69E3
:1022700003F00103012B01D1012300E000231846E4
:102280000C37BD465DF8047B704780B483B000AF67
:1022900078607B68DB6803F00103012B01D1012327
:1022A00000E0002318460C37BD465DF8047B7047FC
:1022B00080B400AF00BFFDE780B400AF00BFFDE712
:1022C00080B400AF00BFFDE780B400AF00BFFDE702
:1022D00080B400AF00BFFDE780B400AF00BFBD46D3
:1022E0005DF8047B704780B400AF00BFBD465DF869
:1022F000047B704780B400AF00BFBD465DF8047B2F
:10230000704780B500AF03F0D3FF00BF80BD000071
:1023100080B500AF0948FFF7A5FF0346002B0BD09F
:102320000648FFF7B2FF0346002B05D0044801F032
:10233000EDFE0248FFF788FF00BF80BD00000140AE
:10234000448A012080B500AF024801F039FF00BF88
:1023500080BD00BF448A012080B400AF00BFBD46ED
:102360005DF8047B704780B500AF03F0ABFC00BFA5
:1023700080BD80B400AF01231846BD465DF8047BE4
:10238000704780B582B000AF7860396005F01AF808
:10239000034616221A604FF0FF3318460837BD4631
:1023A00080BD80B582B000AF78604FF0FF317868B3
:1023B000FFF7E7FF00BFFDE780B586B000AFF8602C
:1023C000B9607A6000237B610AE0AFF300800146C8
:1023D000BB685A1CBA60CAB21A707B6901337B6150
:1023E0007A697B689A42F0DB7B6818461837BD46ED
:1023F00080BD80B586B000AFF860B9607A60002318
:102400007B6109E0BB685A1CBA601B781846AFF3C1
:1024100000807B6901337B617A697B689A42F1DBDA
:102420007B6818461837BD4680BD80B483B000AFC6
:1024300078604FF0FF3318460C37BD465DF8047BDB
:10244000704780B483B000AF786039603B684FF468
:1024500000525A60002318460C37BD465DF8047BD5
:10246000704780B483B000AF7860012318460C3702
:10247000BD465DF8047B704780B485B000AFF8605E
:10248000B9607A60002318461437BD465DF8047BB6
:102490007047000080B586B000AF7860144A154BD5
:1024A000D31A7B617B693B61134B1B68002B02D104
:1024B000114B124A1A60104B1A687B6813443A6930
:1024C0009A4207D204F07EFF03460C221A604FF0B6
:1024D000FF3309E0084B1B68FB60074B1A687B68F9
:1024E0001344054A1360FB6818461837BD4680BD83
:1024F00000000220000400006C8A0120208E0120D0
:1025000080B400AF064BD3F88830054A43F470031B
:10251000C2F8883000BFBD465DF8047B704700BF3D
:1025200000ED00E0DFF834D0FFF7EAFF0C480D497A
:102530000D4A002302E0D458C4500433C4188C421E
:10254000F9D30A4A0A4C002301E013600432A24284
:10255000FBD304F03DFFFFF719FA7047000002209B
:1025600000000020C4020020E89B0008C4020020F4
:10257000208E0120FEE780B483B000AF7860396020
:102580007B68DB6A23F470023B681A437B68DA627B
:1025900000BF0C37BD465DF8047B704780B483B044
:1025A00000AF78607B689B6803F00103012B0CBFD0
:1025B00001230023DBB218460C37BD465DF8047BCF
:1025C0007047000090B585B000AF78603960002397
:1025D000FB731C48FFF7E2FF04461B48FFF7DEFFD2
:1025E00003461C431948FFF7D9FF03462343002B3A
:1025F00020D13B685B68002B12D07B685A68144B73
:1026000013403A6811683A68526811433A68926810
:1026100011433A68D2680A431A437B685A600BE058
:102620007B685A680A4B13403A6812681A437B6801
:102630005A6001E00123FB73FB7B18461437BD464B
:1026400090BD00BF00200140002101400022014058
:10265000E010FCFF80B584B000AF786039600023E3
:10266000FB737868FFF79AFF0346002B17D17B684E
:102670005B6823F0407323F480733A6811683A680A
:1026800092680A431A437B685A607B689B6823F40C
:1026900000623B685B681A437B689A6001E0012333
:1026A000FB73FB7B18461037BD4680BD80B584B0F8
:1026B00000AF786039600023FB737868FFF76EFF26
:1026C0000346002B2BD13B685B68002B09D07B684D
:1026D0005B6823F468423B689B681A437B685A60D6
:1026E00005E07B685B6823F468427B685A607B681E
:1026F0009A680E4B13403A68126802F070613A68AB
:10270000D26811433A6812690A431A437B689A6097
:102710003B685B6819467868FFF72DFF01E00123ED
:10272000FB73FB7B18461037BD4680BDFDFCFFC028
:1027300080B48BB000AFF860B9607A60FB681A684B
:10274000BB687B617B6993FAA3F33B613B69BB6127
:10275000BB69002B01D1202303E0BB69B3FA83F3EB
:10276000DBB25B00032101FA03F3DB431A40BB68D1
:102770003B623B6A93FAA3F3FB61FB697B627B6A72
:10278000002B01D1202303E07B6AB3FA83F3DBB291
:102790005B00796801FA03F31A43FB681A6000BF13
:1027A0002C37BD465DF8047B704780B485B000AF20
:1027B000F860B9607A60FB685A68BB68DB431A400E
:1027C000BB68796801FB03F31A43FB685A6000BFDA
:1027D0001437BD465DF8047B704780B48BB000AF02
:1027E000F860B9607A60FB689A68BB687B617B6956
:1027F00093FAA3F33B613B69BB61BB69002B01D139
:10280000202303E0BB69B3FA83F3DBB25B0003214F
:1028100001FA03F3DB431A40BB683B623B6A93FA5D
:10282000A3F3FB61FB697B627B6A002B01D1202350
:1028300003E07B6AB3FA83F3DBB25B00796801FAE9
:1028400003F31A43FB689A6000BF2C37BD465DF85E
:10285000047B704780B48BB000AFF860B9607A60D9
:10286000FB68DA68BB687B617B6993FAA3F33B6121
:102870003B69BB61BB69002B01D1202303E0BB692D
:10288000B3FA83F3DBB25B00032101FA03F3DB430A
:102890001A40BB683B623B6A93FAA3F3FB61FB6996
:1028A0007B627B6A002B01D1202303E07B6AB3FAB1
:1028B00083F3DBB25B00796801FA03F31A43FB6828
:1028C000DA6000BF2C37BD465DF8047B704780B4EA
:1028D0008BB000AFF860B9607A60FB681A6ABB68B9
:1028E0007B617B6993FAA3F33B613B69BB61BB6985
:1028F000002B01D1202303E0BB69B3FA83F3DBB2E1
:102900009B000F2101FA03F3DB431A40BB683B62D3
:102910003B6A93FAA3F3FB61FB697B627B6A002B42
:1029200001D1202303E07B6AB3FA83F3DBB29B007F
:10293000796801FA03F31A43FB681A6200BF2C3767
:10294000BD465DF8047B704780B48BB000AFF86083
:10295000B9607A60FB685A6ABB681B0A7B617B6955
:1029600093FAA3F33B613B69BB61BB69002B01D1C7
:10297000202303E0BB69B3FA83F3DBB29B000F2192
:1029800001FA03F3DB431A40BB681B0A3B623B6A54
:1029900093FAA3F3FB61FB697B627B6A002B01D195
:1029A000202303E07B6AB3FA83F3DBB29B007968F0
:1029B00001FA03F31A43FB685A6200BF2C37BD4685
:1029C0005DF8047B704780B58AB000AF78603960ED
:1029D00000237B6200233B623B681B68BB61BB69D1
:1029E00093FAA3F37B617B69FB61FB69002B01D147
:1029F000202303E0FB69B3FA83F3DBB27B6257E089
:102A00003B681A6801217B6A01FA03F313403B62B9
:102A10003B6A002B49D03B685B68012B03D03B68C5
:102A20005B68022B0DD13B689B681A46396A78684F
:102A3000FFF7D3FE3B68DB681A46396A7868FFF710
:102A4000B4FE3B681B691A46396A7868FFF702FFD3
:102A50003B685B68022B21D13B6AFB60FB6893FA01
:102A6000A3F3BB60BB683B613B69002B01D1202312
:102A700003E03B69B3FA83F3DBB2072B07D83B686B
:102A80005B691A46396A7868FFF721FF06E03B6800
:102A90005B691A46396A7868FFF756FF3B685B68DE
:102AA0001A46396A7868FFF743FE7B6A01337B6216
:102AB0003B681A687B6A22FA03F3002BA0D100233B
:102AC00018462837BD4680BD80B400AF044B9B68D4
:102AD00003F00C031846BD465DF8047B704700BF49
:102AE0000038024080B400AF044B9B6803F0F00351
:102AF0001846BD465DF8047B704700BF00380240B1
:102B000080B400AF044B9B6803F4E0531846BD4605
:102B10005DF8047B704700BF0038024080B400AF0E
:102B2000044B9B6803F460431846BD465DF8047B84
:102B3000704700BF0038024080B400AF044B5B68B0
:102B400003F480031846BD465DF8047B704700BF60
:102B50000038024080B400AF044B5B689B09C3F3AC
:102B600008031846BD465DF8047B704700380240F4
:102B700080B400AF044B5B6803F440331846BD4695
:102B80005DF8047B704700BF0038024080B400AF9E
:102B9000044B5B6803F03F031846BD465DF8047BB9
:102BA000704700BF0038024080B582B000AF786047
:102BB00000F020F802467B681A607B681B681846A4
:102BC00000F040F802467B685A607B685B681846F4
:102BD00000F04EF802467B689A607B685B68184696
:102BE00000F05AF802467B68DA6000BF0837BD463D
:102BF00080BD000080B582B000AF00237B60FFF78E
:102C000063FF0346082B0CD0082B0FD8002B02D0F3
:102C1000042B03D00AE0094B7B600AE0084B7B6081
:102C200007E0082000F04CF8786002E0034B7B607E
:102C300000BF7B6818460837BD4680BD0024F400FD
:102C400000127A0080B582B000AF7860FFF74AFFCB
:102C500003461B0903F00F03044AD35C1A467B6842
:102C6000D34018460837BD4680BD00BFE497000832
:102C700080B582B000AF7860FFF742FF03469B0A41
:102C8000044AD35C1A467B68D34018460837BD46D1
:102C900080BD00BFF497000880B582B000AF7860B7
:102CA000FFF73CFF03465B0B044AD35C1A467B6884
:102CB000D34018460837BD4680BD00BFF4970008D2
:102CC00090B587B000AF786000237B610023FB6084
:102CD00000233B61FFF730FFF860FB68002B04D056
:102CE000FB68B3F5800F03D005E0124B7B6105E074
:102CF000114B7B6102E00F4B7B6100BF7B68082BAF
:102D000013D1FFF743FF02467B69B3FBF2F4FFF7F1
:102D100021FF034603FB04F4FFF72AFF03461B0CC5
:102D200001335B00B4FBF3F33B613B6918461C378E
:102D3000BD4690BD0024F40000127A0080B483B038
:102D400000AF78607B681B6803F04003402B01D123
:102D5000012300E0002318460C37BD465DF8047BD4
:102D6000704780B483B000AF786039603B689BB235
:102D70001A467B681A6100BF0C37BD465DF8047BBC
:102D8000704780B584B000AF786039600123FB7371
:102D90007868FFF7D3FF0346002B39D17B681B68A7
:102DA00023F47F4323F0BF033A6811683A685268FE
:102DB00011433A68926811433A68D26811433A68FD
:102DC000126911433A68526911433A689269114392
:102DD0003A68D26911433A68126A0A431A437B6817
:102DE0001A607B685B6823F004023B685B691B0C1C
:102DF0001A437B685A603B681B6AB3F5005F05D1D4
:102E00003B685B6A19467868FFF7ABFF0023FB73EA
:102E10007B68DB6923F400627B68DA61FB7B184620
:102E20001037BD4680BD80B483B000AF7860396094
:102E30007B683A689A6200BF0C37BD465DF8047B38
:102E4000704780B483B000AF786039607B683A68BF
:102E5000DA6200BF0C37BD465DF8047B704780B472
:102E600083B000AF786039607B683A681A6300BF4E
:102E70000C37BD465DF8047B704780B483B000AF6B
:102E800078607B685B6943F001027B685A6100BF30
:102E90000C37BD465DF8047B7047000080B584B0F8
:102EA00000AF786039607B681B68FB607B683D4AD7
:102EB000934213D07B68B3F1804F0FD07B683A4ABE
:102EC00093420BD07B68394A934207D07B68384ADB
:102ED000934203D07B68374A934206D1FB6823F0C4
:102EE00070023B685B681343FB607B682D4A93422A
:102EF0002BD07B68B3F1804F27D07B682A4A93425E
:102F000023D07B68294A93421FD07B68284A93428A
:102F10001BD07B68274A934217D07B68264A93428E
:102F200013D07B68254A93420FD07B68244A934292
:102F30000BD07B68234A934207D07B68224A934296
:102F400003D07B68214A934206D1FB6823F4407288
:102F50003B68DB681343FB607B68FA681A603B6878
:102F60009B6819467868FFF76CFF3B681B88194619
:102F70007868FFF758FF7B680A4A934203D07B6862
:102F80000C4A934205D13B681B6919467868FFF7E4
:102F900066FF7868FFF771FF002318461037BD46BB
:102FA00080BD00BF00000140000400400008004058
:102FB000000C00400004014000400140004401407A
:102FC0000048014000180040001C00400020004064
:102FD00080B483B000AF78607B68DB6803F4005393
:102FE000B3F5005F0CBF01230023DBB218460C379A
:102FF000BD465DF8047B704780B483B000AF786055
:1030000039607B681B6923F440523B681A437B6834
:103010001A6100BF0C37BD465DF8047B704780B471
:1030200083B000AF786039607B685B6923F44072DD
:103030003B681A437B685A6100BF0C37BD465DF898
:10304000047B70472DE9B04FC0B000AFC7F8FC005B
:10305000C7F8F810C7F8F420C7F8F030D7F8F43004
:10306000B3F5004F40F00C81D7F8F8300022C7F8D4
:10307000E830C7F8EC20D7E93A4522462B469118AC
:1030800039665B417B66D7E91823214612EB0108BC
:10309000294643EB01094FF000024FF000034FEACD
:1030A000C90343EA58734FEAC8029046994623463B
:1030B00018EB0303C7F8E0302B4649EB0303C7F8CE
:1030C000E430D7F8F03000229A4693461AEB0A0310
:1030D000BB654BEB0B03FB65D7E91623D7E938013A
:1030E000FDF7C4FD02460B46644BA3FB02235B09BC
:1030F0009BB21B019CB2D7F8F8300022C7F8D83039
:10310000C7F8DC20D7E9368942464B469118396525
:103110005B417B65D7E9142341465118B9644946A0
:103120004B41FB644FF000024FF00003D7E912ABB4
:103130005946CB00514643EA51735146CA001046E6
:103140001946034642469B18C7F8D0304B460A46FC
:1031500042EB0303C7F8D430D7F8F0300022C7F8A9
:10316000C830C7F8CC20D7E932120B46DB183B64D5
:10317000134642EB03037B64D7E91023D7E93401FC
:10318000FDF774FD02460B4611463C4BA3FB0123A1
:103190005B09642202FB03F3CB1ADB0003F132026A
:1031A000364BA3FB02235B099BB25B009BB203F48B
:1031B000F8739BB223449CB2D7F8F8300022C7F8CA
:1031C000C030C7F8C420D7E9308942464B46911831
:1031D000B9635B41FB63D7E90E234146511839635C
:1031E00049464B417B634FF000024FF00003D7E9A3
:1031F0000CAB5946CB00514643EA51735146CA00C5
:1032000010461946034642469B18C7F8B8304B464D
:103210000A4642EB0303C7F8BC30D7F8F03000226F
:10322000C7F8B030C7F8B420D7E92C120B46DB182A
:10323000BB62134642EB0303FB62D7E90A23D7E9DB
:103240002E01FDF713FD02460B460C4BA3FB0213A8
:103250005B09642101FB03F3D31ADB003233074A15
:10326000A2FB03235B099BB203F007039BB2234439
:103270009BB21A46D7F8FC309A6008E11F85EB51E3
:10328000D7F8F8300022C7F8A830C7F8AC20D7E943
:103290002A8942464B46911839625B417B62D7E9E5
:1032A000082341465418494643EB01054FF00002FC
:1032B0004FF00003EB0043EA5473E20014461D464E
:1032C0004346E318C7F8A0304B4645EB0303C7F865
:1032D000A430D7F8F0300022C7F89830C7F89C2007
:1032E0004FF000024FF00003D7E9264529468B0036
:1032F000214643EA917321468A00D7E92801FDF768
:10330000B5FC02460B46654BA3FB02235B099BB24F
:103310001B019CB2D7F8F8300022C7F89030C7F8EC
:103320009420D7E9248942464B469118B9615B4104
:10333000FB61D7E9062341465118396149464B41A3
:103340007B614FF000024FF00003D7E904AB594610
:10335000CB00514643EA51735146CA001046194604
:10336000034642469B18C7F888304B460A4642EB54
:103370000303C7F88C30D7F8F0300022C7F880304C
:10338000C7F884204FF000024FF00003D7E92089EE
:1033900049468B00414643EA917341468A00D7E98A
:1033A0002201FDF763FC02460B4611463B4BA3FB93
:1033B00001235B09642202FB03F3CB1A1B013233A6
:1033C000364AA2FB03235B099BB203F0F0039BB2D6
:1033D00023449CB2D7F8F8300022BB67FA67D7E9DC
:1033E0001E8942464B469118B9605B41FB60D7E9A4
:1033F000022341465118396049464B417B604FF0EA
:1034000000024FF00003D7E900AB5946CB0051460C
:1034100043EA51735146CA001046194603464246D4
:103420009B183B674B460A4642EB03037B67D7F882
:10343000F0300022BB66FA664FF000024FF0000346
:10344000D7E91A8949468B00414643EA91734146C0
:103450008A00D7E91C01FDF709FC02460B460F4B19
:10346000A3FB02135B09642101FB03F3D31A1B01C5
:1034700032330A4AA2FB03235B099BB203F00F031A
:103480009BB223449BB21A46D7F8FC309A6000BF27
:1034900007F58077BD46BDE8B08F00BF1F85EB51B3
:1034A00080B588B000AF786039600123FB770023D6
:1034B000BB617868FFF78CFD0346002B5ED17B680B
:1034C000DB6823F4164323F00C033A6851683A682A
:1034D000D26811433A68126911433A6892690A4303
:1034E0001A437B68DA603B689B6819467868FFF787
:1034F00083FD3B685B6919467868FFF790FD07F12B
:1035000008031846FFF750FB7B681F4A934202D11D
:103510007B69BB6121E07B681C4A934202D13B6915
:10352000BB611AE07B681A4A934202D13B69BB61D6
:1035300013E07B68174A934202D17B69BB610CE0C0
:103540007B68154A934202D13B69BB6105E07B6809
:10355000124A934201D13B69BB61BB69002B0DD07C
:103560003B681B68002B09D00023FB773B689A69F6
:103570003B681B68B9697868FFF764FDFB7F1846F4
:103580002037BD4680BD00BF001001400044004010
:103590000048004000140140004C00400050004032
:1035A00080B483B000AF786039607A683B68B2FB62
:1035B000F3F3074A013B5360054B00229A60044B2A
:1035C00005221A6000BF0C37BD465DF8047B7047CA
:1035D00010E000E080B582B000AF78604FF47A71FF
:1035E0007868FFF7DDFF00BF0837BD4680BD0000EB
:1035F00080B485B000AF78600F4B1B68FB60FB6840
:103600007B68B3F1FF3F0CD07B6801337B6008E03F
:10361000094B1B6803F48033002B02D07B68013B0D
:103620007B607B68002BF3D100BF00BF1437BD4621
:103630005DF8047B704700BF10E000E080B483B009
:1036400000AF7860044A7B68136000BF0C37BD464A
:103650005DF8047B704700BF3000002080B483B069
:1036600000AF78607B689B6843F001027B689A60DA
:1036700000BF0C37BD465DF8047B704780B483B053
:1036800000AF78607B689B6803F00103012B0CBFDF
:1036900001230023DBB218460C37BD465DF8047BDE
:1036A000704780B483B000AF78607B689B6843F05C
:1036B00080427B689A6000BF0C37BD465DF8047B92
:1036C0007047000080B483B000AF786039600C4A66
:1036D0003B6813441B781A467B6813441B680849EF
:1036E0003A680A44127811467A680A4443F00103A2
:1036F000136000BF0C37BD465DF8047B704700BF08
:10370000FC97000880B485B000AFF860B9607A60BB
:103710000D4ABB6813441B781A46FB6813445B6868
:103720001B0C1B040849BA680A4412781146FA684F
:103730000A4411467A6813434B6000BF1437BD46F4
:103740005DF8047B704700BFFC97000880B485B02B
:1037500000AFF860B9607A60074ABB6813441B7811
:103760001A46FB6813441A467B68D36000BF1437BF
:10377000BD465DF8047B7047FC97000880B485B0B7
:1037800000AFF860B9607A60074ABB6813441B78E1
:103790001A46FB6813441A467B68936000BF1437CF
:1037A000BD465DF8047B7047FC97000880B584B087
:1037B00000AFF860B9607A603B60FB68BA681A6075
:1037C000FB687A685A60FB683A689A60FB68BA6975
:1037D000DA62FB685868FB689968FB681B684C33C1
:1037E0001A46FFF7CBFFFB685868FB689968FB68CF
:1037F0000C331A46FFF7AAFFFB685868FB68996804
:10380000FB68DB6A1A46FFF77DFFFB685A68FB68B6
:103810009B6819461046FFF755FF05E0FB681B68DB
:103820001846FFF71BFF00BFFB681B681846FFF731
:1038300025FF0346002BF1D0FB681B681846FFF7F5
:1038400030FF00BF1037BD4680BD80B483B000AFED
:1038500078607B681B6843F040027B681A6000BF99
:103860000C37BD465DF8047B704780B483B000AF71
:1038700078607B681B6803F04003402B01D1012373
:1038800000E0002318460C37BD465DF8047B704706
:1038900080B483B000AF78607B689B6803F002035C
:1038A000022B01D1012300E0002318460C37BD464E
:1038B0005DF8047B704780B483B000AF78607B68AC
:1038C0009B6803F08003802B01D1012300E00023DB
:1038D00018460C37BD465DF8047B704780B483B052
:1038E00000AF78607B680C331B78DBB218460C376E
:1038F000BD465DF8047B704780B485B000AF78604A
:103900000B46FB707B680C33FB60FB68FA781A701F
:1039100000BF1437BD465DF8047B704780B483B0A8
:1039200000AF786039607B683A689A6100BF0C37F5
:10393000BD465DF8047B704780B483B000AF78600B
:1039400039603B681A047B689A6100BF0C37BD463A
:103950005DF8047B704780B584B000AF786000BF2D
:103960007B681B681846FFF793FF0346002BF7D0D0
:103970007B685A687B689B6819461046FFF7DCFF36
:103980007B681B7B013BFB6023E07B6818687A68DF
:10399000FB6813440D331B781946FFF7ADFF00BFDA
:1039A0007B681B681846FFF773FF0346002BF7D0B0
:1039B00000BF7B681B681846FFF77DFF0346002B9E
:1039C000F7D17B681B681846FFF788FFFB68013B4F
:1039D000FB60FB68002BD8DA7B685A687B689B68C1
:1039E00019461046FFF79AFF00BF1037BD4680BD4D
:1039F00080B58CB000AFF860B9607A603B60FB685E
:103A0000BA681A60FB6897F838201A73FB687A68FE
:103A10005A60FB683A689A6007F1140300221A6042
:103A20005A609A60DA601A615A61FB689B687B6130
:103A30000123BB610223FB6100233B6200237B6205
:103A4000FB685B6807F1140211461846FEF7BBFFDE
:103A5000FB685A68FB689B6819461046FFF75EFFD3
:103A60000023FB6208E0FA68FB6A13440D3300226E
:103A70001A70FB6A0133FB62FB681B7B1A46FB6A08
:103A80009342F0DB05E0FB681B681846FFF7DDFE9C
:103A900000BFFB681B681846FFF7E7FE0346002BD4
:103AA000F1D0F868FFF757FF00BF3037BD4680BD43
:103AB00080B584B000AF78600B46FB70FB78242B98
:103AC00003D97B681B7B062B5AD0FB78082B03D9C4
:103AD0007B681B7B012B55D07B681B7B062B38D169
:103AE0000023FB6008E07A68FB6813440D33002272
:103AF0001A70FB680133FB607B681B7B1A46FB680E
:103B00009342F0DBFB78002B36D0FB78013B1F4A59
:103B100082FB0312DB17D31AFB72FB785A1E1B4B76
:103B200083FB0231D317C91A0B465B000B445B00C1
:103B3000D11A0B46BB72BB7A012202FA03F3DAB246
:103B4000FB7A02F03F02D1B27A6813440A465A73F4
:103B500012E07B681B7B012B0ED1FB78002B08D079
:103B6000FB78013B012202FA03F3DAB27B685A7355
:103B700002E07B6800225A737868FFF7ECFE02E0EF
:103B800000BF00E000BF1037BD4680BDABAAAA2A27
:103B900080B584B000AF78600023FB6008E07A68ED
:103BA000FB6813440D3300221A70FB680133FB607D
:103BB0007B681B7B1A46FB689342F0DB7868FFF753
:103BC000CAFE00BF1037BD4680BD80B483B000AFD1
:103BD00078607B681B6843F040027B681A6000BF16
:103BE0000C37BD465DF8047B704780B483B000AFEE
:103BF00078607B681B6823F040027B681A6000BF16
:103C00000C37BD465DF8047B704780B483B000AFCD
:103C100078607B681B6803F04003402B01D10123CF
:103C200000E0002318460C37BD465DF8047B704762
:103C300080B483B000AF786039607B681B6823F084
:103C400038023B681A437B681A6000BF0C37BD46D8
:103C50005DF8047B704780B483B000AF7860396052
:103C60007B681B6823F400623B681A437B681A6018
:103C700000BF0C37BD465DF8047B704780B483B04D
:103C800000AF78607B689B6803F00103012B01D1D2
:103C9000012300E0002318460C37BD465DF8047B85
:103CA000704780B483B000AF78607B689B6803F096
:103CB0000203022B01D1012300E0002318460C3738
:103CC000BD465DF8047B704780B483B000AF786078
:103CD0007B689B6803F08003802B01D1012300E007
:103CE000002318460C37BD465DF8047B704780B44E
:103CF00083B000AF78607B680C331B78DBB218466A
:103D00000C37BD465DF8047B704780B485B000AFCA
:103D100078600B46FB707B680C33FB60FB68FA78BD
:103D20001A7000BF1437BD465DF8047B704780B43D
:103D300083B000AF786039607B681A693B681340D4
:103D40003A689A420CBF01230023DBB218460C37B5
:103D5000BD465DF8047B704780B483B000AF7860E7
:103D600039607B683A689A6100BF0C37BD465DF8E0
:103D7000047B704780B483B000AF786039603B68E3
:103D80001A047B689A6100BF0C37BD465DF8047B5E
:103D9000704780B582B000AF78600B467B8000BF73
:103DA0007B681B681846FFF77CFF0346002BF7D0A3
:103DB0007B681A687B881B0A9BB2DBB219461046E7
:103DC000FFF7A3FF00BF7B681B681846FFF769FF7A
:103DD0000346002BF7D000BF7B681B681846FFF72F
:103DE00073FF0346002BF7D17B681B681846FFF76B
:103DF0007EFF7B681B687A88D2B211461846FFF7AF
:103E000084FF00BF7B681B681846FFF74AFF034624
:103E1000002BF7D000BF7B681B681846FFF754FFE4
:103E20000346002BF7D17B681B681846FFF75FFF3E
:103E300000BF0837BD4680BD80B584B000AF786054
:103E40000023FB810023BB8100BF7B681B681846F1
:103E5000FFF727FF0346002BF7D07B681B68AA21DA
:103E60001846FFF752FF00BF7B681B681846FFF734
:103E70002BFF0346002BF7D100BF7B681B68184659
:103E8000FFF7FCFE0346002BF7D07B681B68184643
:103E9000FFF72DFF0346FB8100BF7B681B681846B8
:103EA000FFF712FF0346002BF7D100BF7B681B68AA
:103EB0001846FFF7F6FE0346002BF7D07B681B6819
:103EC000AA211846FFF721FF00BF7B681B68184630
:103ED000FFF7FAFE0346002BF7D100BF7B681B6893
:103EE0001846FFF7CBFE0346002BF7D07B681B6814
:103EF0001846FFF7FCFE0346BB8100BF7B681B68CA
:103F00001846FFF7E1FE0346002BF7D1B7F90E3054
:103F10001B021AB2B7F90C3013431BB29BB21846FE
:103F20001037BD4680BD80B582B000AF78607B6839
:103F30004FF430429A837B685A687B689B681946C5
:103F40001046FFF717FF7B689B8B19467868FFF7D1
:103F500020FF7B685A687B689B6819461046FFF70C
:103F6000FBFE00BF0837BD4680BD80B584B000AF02
:103F700078600B467B807B685A687B689B68194633
:103F80001046FFF7F7FE7B684FF460429A837B6828
:103F90007A88DA837B689B8B1BB223F47F6323F0E0
:103FA0000F031AB27B68DB8B1BB2C3F30B031BB28C
:103FB00013431BB2FB81FB8919467868FFF7E9FEC2
:103FC0007B685A687B689B6819461046FFF7C4FEF9
:103FD00000BF1037BD4680BD80B582B000AF7860AD
:103FE0000B46FB70FB78002B06D1164B1B8819463D
:103FF0007868FFF7BAFF20E0FB78012B1DD17B68C2
:104000005A687B689B6819461046FFF7B3FE7B68C9
:104010004FF470429A837B6840F6FD62DA837B68D6
:104020009B8B19467868FFF7B4FE7B685A687B68FB
:104030009B6819461046FFF78FFE00BF0837BD4644
:1040400080BD00BF3400002080B584B000AF786030
:1040500039607B68DA687B681B6919461046FFF790
:1040600089FE3B68FB6000BF7B685A697B689B697F
:1040700019461046FFF75BFE0346002B04D0FB6891
:104080005A1EFA60002BEFD13B68FB6000BF7B68D3
:104090005A697B689B6919461046FFF748FE03463C
:1040A000002B04D1FB685A1EFA60002BEFD17B680D
:1040B000DA687B681B6919461046FFF74DFE7B687E
:1040C0005A687B689B6819461046FFF753FE78686C
:1040D000FFF7B2FE03461A467B681A8400BF7B686E
:1040E0001B681846FFF7F0FD0346002BF7D17B68ED
:1040F0005A687B689B6819461046FFF72DFE7B685F
:104100001B8C18461037BD4680BD000080B582B0BC
:1041100000AF78607B68DB687A6812699A61234B2C
:104120001A68234B1B689A4220D27B689A687B6886
:104130005B6812049A617B681B685A687B681B681D
:1041400042F080025A607B681B680C334AF6AA2250
:104150001A80184B1A68154B1B68591C13480160CC
:104160005B0013447A68128C1A801AE07B681B6823
:104170005A687B681B6822F080025A600E4B1B68ED
:104180000D4A23F0010313600B4BDB680A4A23F04E
:104190000103D360054B1B68033B1946074802F037
:1041A00075F800BF0837BD4680BD00BF9489012067
:1041B00098890120000000200000014020930008A1
:1041C00080B483B000AF78607B681B689B6803F0A5
:1041D0000203022B1CD17B681A697B68DB6812041E
:1041E0009A617B681B68DB689AB27B681A847B687B
:1041F0005B687A6892689A617B681B685A687B681A
:104200001B6822F080025A607B68002283F822201B
:1042100000BF0C37BD465DF8047B704780B582B0A7
:1042200000AF786039603B68002B14D03B68082BE6
:1042300011D03B68102B0ED03B68182B0BD03B687D
:10424000202B08D03B68282B05D03B68302B02D0B0
:104250003B68382B0AD17868FFF7C7FC3968786863
:10426000FFF7E6FC7868FFF7B0FC00E000BF083716
:10427000BD4680BD80B582B000AF786039603B68D4
:10428000002B03D03B68B3F5006F0AD17868FFF7C5
:10429000ACFC39687868FFF7DEFC7868FFF795FCBE
:1042A00000E000BF0837BD4680BD80B584B000AFD8
:1042B000F860B9607A603B60FB68BA681A60FB68B6
:1042C0007A685A60FB683A689A60FB68BA69DA6093
:1042D000FB68FA691A61FB683A6A5A61FB687A6A94
:1042E0009A61FB684FF6FF721A84FB68002283F81C
:1042F000222005E0FB681B681846FFF766FC00BF3C
:10430000FB681B681846FFF780FC0346002BF1D0C2
:104310000021F868FFF760FEF868FFF704FE00BFB1
:104320001037BD4680BD000080B586B000AF786014
:104330000123FB7300233B617B687B611FE07B698A
:104340001B78202B05D17B6900221A700123FB7397
:1043500012E0FB7B002B0FD03B69072B0AD81D49CD
:104360003B697A6941F823203B6901333B610023B3
:10437000FB7301E0022328E07B6901337B617B69E9
:104380001B78002BDBD13B69002B1DD0124BBB608F
:1043900016E0104B1A68BB681B6819461046FBF7FD
:1043A00017FF0346002B08D1BB685B683A690949CF
:1043B000104698470346DBB207E0BB680C33BB608E
:1043C000BB681B68002BE4D1012318461837BD4693
:1043D00080BD00BF708A01204C00002080B483B0F3
:1043E00000AF78607B681B6843F001027B681A604D
:1043F00000BF0C37BD465DF8047B704780B483B0C6
:1044000000AF78607B681B6823F001027B681A604C
:1044100000BF0C37BD465DF8047B704780B483B0A5
:1044200000AF786039607B683A685A6200BF0C3729
:10443000BD465DF8047B704780B483B000AF786000
:1044400039607B683A68DA6200BF0C37BD465DF8B8
:10445000047B704780B483B000AF78607B68DB6812
:1044600043F001027B68DA6000BF0C37BD465DF89F
:10447000047B704780B483B000AF78607B68DB68F2
:1044800023F001027B68DA6000BF0C37BD465DF89F
:10449000047B704780B500AF01F084FC01F0F0FCB4
:1044A0000346074A136020220021064802F029FF34
:1044B000054B00221A70054801F0B0FC00BF80BD1A
:1044C000948A0120988A0120B88A0120D495000896
:1044D000B0B58AB000AF87ED020B786039607B68B9
:1044E0007B627B6A3B623B68022B01DD02233B60FF
:1044F0004FF000024FF00003D7E90201FCF7F6FA93
:104500000346002B0AD0BC68FB6883F00045C7E96E
:1045100002457B6A5A1C7A622D221A703B68002B76
:104520004FDA4FF000027C4BD7E90201FCF7DEFACC
:104530000346002B02D006233B6042E04FF000020E
:10454000764BD7E90201FCF7D1FA0346002B02D0E3
:1045500005233B6035E04FF00002714BD7E90201C3
:10456000FCF7C4FA0346002B02D004233B6028E08A
:104570004FF000026B4BD7E90201FCF7B7FA034694
:10458000002B02D003233B601BE05FA3D3E9002391
:10459000D7E90201FCF7AAFA0346002B02D0022356
:1045A0003B600EE05AA3D3E90023D7E90201FCF7F0
:1045B0009DFA0346002B02D001233B6001E000235B
:1045C0003B603B68002B0DD0574A3B68DB0013442F
:1045D000D3E90023D7E90201FBF760FE02460B4650
:1045E000C7E90223D7E90201FCF7A8FA0346FB61F9
:1045F000F869FBF79FFF02460B46D7E90201FBF77C
:104600004BFE02460B46C7E90223FB69002B05D18E
:104610007B6A5A1C7A6230221A7038E07B6A3B62ED
:104620001AE0FA69414B83FB02139910D317C91A98
:104630000B469B000B445B00D11ACAB23B6A591C63
:1046400039623032D2B21A70FB69384A82FB0312E7
:104650009210DB17D31AFB61FB69002BE1D13B6A97
:10466000BB610EE03B6A013B3B623B6A1B78FB751A
:104670007B6A1A783B6A1A707B6A5A1C7A62FA7DE6
:104680001A703A6A7B6A9A42ECD8BB697B623B68D3
:10469000002B30D07B6A5A1C7A622E221A7025E0D9
:1046A0004FF000021D4BD7E90201FBF7ADFF0246B8
:1046B0000B46C7E90223D7E90201FCF767FA034674
:1046C000FB757B6A5A1C7A62FA7D3032D2B21A705C
:1046D000FB7D1846FBF72EFF02460B46D7E9020189
:1046E000FBF7DAFD02460B46C7E902233B685A1E78
:1046F0003A60002BD4D17B6A00221A707B6818467E
:104700002837BD46B0BD00BF000000000088C34090
:1047100000000000006AF8400000F03F0000244064
:104720000000594000408F400898000867666666A0
:1047300080B485B000AFF860B9607A603B60FA6819
:10474000BB68D31AB9693A688A1A03FB02F279681E
:10475000BB68CB1A92FBF3F23B681344184614373C
:10476000BD465DF8047B704780B485B000AF7860CB
:104770000B467B807B881B0A9BB2DBB23B737B883A
:10478000DBB27B730023FB7332E07B681B881AB2B9
:10479000FB7B10333B4413F8043C1BB21B021BB2DF
:1047A00053401BB29AB27B681A800023BB7319E096
:1047B0007B681B881BB2002B0BDA7B681B881BB243
:1047C0005B001BB283F4815383F001031BB29BB2E5
:1047D00003E07B681B885B009BB27A681380BB7B1D
:1047E0000133BB73BB7B072BE2D9FB7B0133FB732C
:1047F000FB7B012BC9D900BF00BF1437BD465DF854
:10480000047B7047B0B489B000AF03463960FB80C9
:104810001E4B07F10C041D460FCD0FC42B682370EF
:10482000FB881B0B9BB203F00F0320333B4413F8B0
:10483000142C3B681A70FB881B0A9BB203F00F0212
:104840003B68013320323A4412F8142C1A70FB886A
:104850001B099BB203F00F023B68023320323A443B
:1048600012F8142C1A70FB8803F00F023B68033314
:1048700020323A4412F8142C1A703B680433202278
:104880001A7000BF2437BD46B0BC7047F0950008D1
:1048900080B485B000AF0346FB80FB884FF47A728A
:1048A00002FB03F307EE903AF8EEE77A9FED0D7AFC
:1048B00027EE877ADFED0C6AC7EE267AC7ED037A1A
:1048C00097ED037ADFED096AC7EE267AC7ED037A22
:1048D000FB6807EE903AB0EE670A1437BD465DF804
:1048E000047B70473333534000F07F4500007A4328
:1048F00080B584B000AF786061E0394B1B68184622
:1049000001F087F80346BB73BB7B0D2B06D0BB7B46
:104910000A2B03D0BB7B184601F05CFABB7B0D2B46
:1049200029D1304B1B78002B1DD02E4B1B781A46FB
:104930002D4B002199542C48FFF7F6FC0346FB73DE
:10494000284B00221A7097F90F30042B37DC97F9A7
:104950000F30264A52F82330184601F05FFA2448F7
:1049600001F05CFA2BE097F90F30042B27DC20488C
:1049700001F054FA23E0BB7B082B02D0BB7B7F2BDA
:104980000AD1184B1B78002B19D0164B1B78013B12
:10499000DAB2144B1A7012E0124B1B781946124A05
:1049A000BB7B53540F4B1B780133DAB20D4B1A709B
:1049B0000C4B1B781F2B02D90A4B00221A70084B94
:1049C0001B68184600F0E6FF034683F00103DBB2E4
:1049D000002B92D100BF00BF1037BD4680BD00BF85
:1049E000948A0120B88A0120988A0120380000208A
:1049F0000496000880B584B000AF786039600F4835
:104A000001F00CFA0E4BFB600FE00E4801F006FAC5
:104A1000FB681B68184601F001FAFB689B681846A2
:104A200001F0FCF9FB680C33FB60FB681B68002B92
:104A3000EBD1002318461037BD4680BD0C96000808
:104A40004C0000202496000880B586B002AF786044
:104A500039603B6808331B68184601F0B6FC034612
:104A6000FB733B680C331B68184601F0ABFC53EC3E
:104A7000102B10461946FCF789F80346BB733B68B8
:104A800004331B6851491846FBF7A2FB0346002B71
:104A900045D1FB7B002B12D17B68022B01DC032369
:104AA00090E07B68032B01DD02238BE00021484866
:104AB00000F0EEFD4748FFF76BF8002382E0FB7B38
:104AC000002B27D0FB7B242B24D87B68032B01DC15
:104AD000032377E07B68042B01DD022372E0BB7BBC
:104AE000642B01D904236DE0B87BFF2300930023DE
:104AF00064220021FFF71CFE03463B733B7B1A46F2
:104B00000021334800F01AFEFB7B19463148FEF7BE
:104B1000CFFF56E0FB7B242B53D9042352E03B68A4
:104B200004331B682C491846FBF752FB0346002B45
:104B300045D1FB7B002B12D17B68022B01DC0323C8
:104B400040E07B68032B01DD02233BE0012120488C
:104B500000F09EFD2148FFF71BF8002332E0FB7BAD
:104B6000002B27D0FB7B082B24D87B68032B01DC90
:104B7000032327E07B68042B01DD022322E0BB7BBB
:104B8000642B01D904231DE0B87BFF23009300238D
:104B900064220021FFF7CCFD03467B737B7B1A4622
:104BA00001210B4800F0CAFDFB7B19460B48FEF7BC
:104BB0007FFF06E0FB7B082B03D9042302E00423DC
:104BC00000E0002318461037BD4680BD2896000837
:104BD0009C890120B48901202C960008D4890120E9
:104BE000B0B586B000AF786039607B68012B01DC1E
:104BF000032355E07B68022B01DD022350E03B6874
:104C000004331B6828491846FBF7E2FA0346002BD9
:104C10001CD1264801F002F9254B9B891846FFF765
:104C200037FE87ED050A7869FBF796FC04460D46CA
:104C300007F108030221184645EC104BFFF748FC2A
:104C4000034619461B4801F021FB28E03B6804336A
:104C50001B6819491846FBF7BBFA0346002B1CD109
:104C6000164801F0DBF8124BDB891846FFF710FEFF
:104C700087ED050A7869FBF76FFC04460D4607F1DE
:104C800008030221184645EC104BFFF721FC0346B0
:104C90001946084801F0FAFA01E0042300E0002375
:104CA00018461837BD46B0BD289600083096000853
:104CB000F4890120409600082C96000848960008C8
:104CC00080B584B000AF786039607B68012B01DC6F
:104CD000032331E07B68022B01DD02232CE03B68DB
:104CE00004331B68184601F070FB0346FB73FB7B23
:104CF000002B02D0FB7B242B01D904231CE00021D4
:104D00000F48FFF7B7FA18210D48FFF787FAFB7B2A
:104D100019460C48FEF7CCFE0A20FEF769FC4FF45A
:104D20007A710948FFF790F9FB7B074A128C194604
:104D3000064801F0ABFA002318461037BD4680BD87
:104D400000380040248A0120448A01205896000837
:104D500080B584B000AF786039607B68012B01DCDE
:104D6000032325E07B68022B01DD022320E03B6862
:104D700004331B68184601F028FB0346FB73FB7BDA
:104D8000002B02D0FB7B242B01D9042310E000214F
:104D90000948FFF76FFA18210748FFF73FFAFB7B36
:104DA00019460648FEF784FE054AFB7B1370002374
:104DB00018461037BD4680BD00380040248A0120C7
:104DC000B98A012080B586B000AF786039607B6811
:104DD000022B01DC03237DE07B68032B01DD022332
:104DE00078E03B6804331B68184601F0EEFA03468E
:104DF0007B613B6808331B68184601F0E6FA0346FE
:104E00003B617B69002B03D07B69344A934201D913
:104E100004235FE03B69002B04D03B694CF2503225
:104E2000934201D9042355E07B6907EE903AB8EE2E
:104E3000677ADFED2B6AC6EE877AF5EEC07AF1EE7F
:104E400010FA1ADB7B6907EE903AF8EE677A9FED6D
:104E5000247AC7EE276A16EE900AFBF77DFB4FF027
:104E60000002204BFBF71AFA02460B461046194681
:104E7000FBF764FE0346013B19E07B6907EE903ABD
:104E8000F8EE677A9FED167AC7EE276A16EE900A5B
:104E9000FBF762FB4FF00002124BFBF7FDF90246F5
:104EA0000B4610461946FBF749FE0346013BFB60E3
:104EB0000D48FFF7DFFA0C48FFF7A0FAF9680A4837
:104EC000FFF7BAFA3B690333084A1360084A7B6963
:104ED0001360002318461837BD4680BD1009050031
:104EE000002474490000E03F00000140988901203F
:104EF000BC8A012080B582B000AF786039607B68E1
:104F0000002B01DC032338E07B68012B01DD022349
:104F100033E01C4B1B68002B04D11B4800F07EFFC4
:104F200004232AE0194B1B68002B04D1184800F019
:104F300075FF042321E0134B1B685B001A46002118
:104F4000144802F0DEF9144B124A1A60134B002287
:104F50001A604FF400611248FFF78CF900211048E5
:104F6000FFF75CF900210F48FFF758FA0D48FFF7EB
:104F700071FA0C48FFF732FA002318460837BD468D
:104F800080BD00BF988901206C960008BC8A012072
:104F9000A4960008E002002000000020948901206F
:104FA000003800400000014080B582B000AF78605A
:104FB00039607B68002B01DC03231CE07B68012B3C
:104FC00001DD022317E00E4B1B7819460D4B1A68C2
:104FD0000D4B1B680D4801F059F90D4B1A680A4B2F
:104FE0001B689A4203D10B4800F018FF02E00A4800
:104FF00000F014FF002318460837BD4680BD00BFEF
:10500000B98A0120BC8A012098890120DC96000819
:1050100094890120149700083097000880B588B063
:1050200000AF786039607B68012B01DC032373E0FB
:105030007B68022B01DD02236EE0394B1B68002BDD
:1050400004D1384800F0EAFE042365E03B680433ED
:105050001B68184601F0B9F90346BB614FF6FF73B0
:105060007B82BB69002B04D0BB694CF25032934267
:1050700001D9042350E0BB696FEA03336FEA1333AD
:105080007B617B691B0CDBB23B737B691B0ADBB268
:105090007B737B69DBB2BB7307F10C0303211846FA
:1050A00000F0D1FE0023FB6123E0FB6903331E4ABD
:1050B00032F8132007F1120311461846FFF754FB8C
:1050C000FB690333184A32F813301B0A9BB2DBB278
:1050D0003B73FB690333144A32F81330DBB27B7342
:1050E00007F10C030221184600F0ADFEFB69013305
:1050F000FB61FA69BB699A42D7D37B8A1B0A9BB2D0
:10510000DBB23B737B8ADBB27B7307F10C030221BA
:10511000184600F098FE052318462037BD4680BD8E
:10512000948901204C970008E002002080B586B0E9
:1051300000AF786039607B68012B01DC032359E004
:105140007B68022B01DD022354E02C4B1B68002BF3
:1051500004D12B4800F062FE04234BE03B6804338B
:105160001B68184601F031F903463B614FF6FF73A7
:10517000FB813B69002B04D03B694CF250329342D7
:1051800001D9042336E01F4800F048FE00237B616C
:105190001EE07B6903331C4A32F8132007F10E032B
:1051A00011461846FFF7E0FA7B690333164A32F8D6
:1051B000133007F1080211461846FFF723FB07F1E9
:1051C00008030521184600F03EFE7B6901337B6130
:1051D0007A693B699A42DCD3FB8907F108021146E0
:1051E0001846FFF70FFB07F108030521184600F0EA
:1051F0002AFE052318461837BD4680BD9489012034
:105200007097000824960008E00200202DE99043E2
:1052100089B000AF786039600023FB7731E0FB7F15
:1052200002331C4A04335B0013449B88092B05D8C6
:10523000FB7F1946184801F029F81FE0FB7F023375
:10524000144A04335B0013449B88184600F0FCFAB0
:1052500087ED060AFC7FB869FBF77EF98046894630
:1052600007F10C030221184649EC108BFFF730F9C7
:1052700003461A462146094801F008F8FB7F01332E
:10528000FB77FB7F072BCAD9002318462437BD467E
:10529000BDE89083F489012094970008A89700083E
:1052A00080B586B000AF786039607B68002B01DC88
:1052B000032363E07B68012B01DD02235EE0314BB9
:1052C0001B68002B04D1304800F0A8FD042355E0F2
:1052D0004FF6FF73FB812D4B1B686FEA03336FEAB8
:1052E00013333B613B691B0CDBB23B723B691B0A0E
:1052F000DBB27B723B69DBB2BB7207F108030321AF
:10530000184600F0A0FD00237B6123E07B69033396
:105310001F4A32F8132007F10E0311461846FFF713
:1053200023FA7B6903331A4A32F813301B0A9BB203
:10533000DBB23B727B690333154A32F81330DBB2C0
:105340007B7207F108030221184600F07CFD7B699F
:1053500001337B610D4B1B687A699A42D6D3FB8976
:105360001B0A9BB2DBB23B72FB89DBB27B7207F19B
:1053700008030221184600F066FD05231846183779
:10538000BD4680BD948901204C9700089889012072
:10539000E002002080B586B000AF786039607B689D
:1053A000002B01DC032348E07B68012B01DD022395
:1053B00043E0244B1B68002B04D1234800F02EFD52
:1053C00004233AE04FF6FF737B82204800F026FD6D
:1053D00000237B611EE07B6903331D4A32F81320F2
:1053E00007F1120311461846FFF7BEF97B69033334
:1053F000174A32F8133007F10C0211461846FFF72E
:1054000001FA07F10C030521184600F01CFD7B6929
:1054100001337B610F4B1B687A699A42DBD37B8A2D
:1054200007F10C0211461846FFF7ECF907F10C03DF
:105430000521184600F007FD052318461837BD461C
:1054400080BD00BF94890120709700082496000851
:10545000E00200209889012080B483B000AF78601A
:105460007B681B6843F040027B681A6000BF0C3702
:10547000BD465DF8047B704780B483B000AF7860B0
:105480007B681B6803F04003402B01D1012300E03F
:10549000002318460C37BD465DF8047B704780B486
:1054A00083B000AF78607B689B6803F00203022B37
:1054B00001D1012300E0002318460C37BD465DF8FA
:1054C000047B704780B483B000AF78607B689B68D2
:1054D00003F08003802B01D1012300E00023184654
:1054E0000C37BD465DF8047B704780B485B000AFD3
:1054F00078600B46FB707B680C33FB60FB68FA78C6
:105500001A7000BF1437BD465DF8047B704780B445
:1055100085B000AF78600B467B807B680C33FB6006
:10552000FB687A881A8000BF1437BD465DF8047B9B
:10553000704780B483B000AF786039607B683A68A8
:105540009A6100BF0C37BD465DF8047B704780B49C
:1055500083B000AF786039603B681A047B689A6159
:1055600000BF0C37BD465DF8047B704780B584B042
:1055700000AF786000BF7B681B681846FFF78FFF9D
:105580000346002BF7D00023FB6076E07B685A6867
:105590007B689B6819461046FFF7D9FFFB68002B14
:1055A0000CD07A68FB68134414331B781BB21B01C0
:1055B0001AB2364B13431BB29BB20BE07A68FB68FE
:1055C000134414331B781BB21B011BB243F440532A
:1055D0001BB29BB27B817B681A687B891B0A9BB2DA
:1055E000DBB219461046FFF780FF00BF7B681B68DF
:1055F0001846FFF754FF0346002BF7D000BF7B6827
:105600001B681846FFF75EFF0346002BF7D17B6847
:105610001B687A89D2B211461846FFF766FF00BFB1
:105620007B681B681846FFF73AFF0346002BF7D04C
:1056300000BF7B681B681846FFF744FF0346002B3A
:10564000F7D17B685A687B689B6819461046FFF75C
:1056500070FF7B68DA687B681B6919461046FFF7A4
:1056600076FF00BF7B68DA687B681B6919461046C5
:10567000FFF75FFFFB680133FB60FB68012B85DDF3
:1056800000BF00BF1037BD4680BD00BF00B0FFFFA8
:1056900080B584B000AF78600B46FB7000BF7B68BC
:1056A0001B681846FFF7FBFE0346002BF7D07B680C
:1056B0005A687B689B6819461046FFF748FFFB78DD
:1056C000002B02D04FF4204301E04FF40053FB8144
:1056D0007B681B68FA8911461846FFF718FF00BF60
:1056E0007B681B681846FFF7DAFE0346002BF7D0ED
:1056F00000BF7B681B681846FFF7E4FE0346002BDB
:10570000F7D17B685A687B689B6819461046FFF79B
:1057100010FF7B68DA687B681B6919461046FFF743
:1057200016FF00BF7B68DA687B681B691946104664
:10573000FFF7FFFE00BF1037BD4680BD80B582B0C9
:1057400000AF78600B46FB701346BB70FB787A683D
:105750001344BA781A757868FFF708FF00BF083756
:10576000BD4680BD80B58CB000AFF860B9607A608E
:105770003B60FB68BA681A60FB687A685A60FB682D
:105780003A689A60FB68BA6BDA60FB68FA6B1A6178
:1057900007F1140300221A605A609A60DA601A61F5
:1057A0005A61FB689B687B610123BB610223FB613B
:1057B00000233B6200237B62FB685B6807F11402F5
:1057C00011461846FDF7FFF8FB681B697B61FB6813
:1057D000DB6807F1140211461846FDF7F4F8FB6880
:1057E0005A68FB689B6819461046FFF7A2FEFB68E3
:1057F000DA68FB681B6919461046FFF79AFE00231A
:10580000FB6208E0FA68FB6A1344143300221A7042
:10581000FB6A0133FB62FB6A012BF3DD05E0FB68E9
:105820001B681846FFF718FE00BFFB681B68184688
:10583000FFF722FE0346002BF1D0F868FFF796FE33
:1058400000BF3037BD4680BDB0B584B000AF034661
:10585000FB80FB881846FAF76DFE02460B4632A124
:10586000D1E90001FAF718FD02460B461046194629
:105870002FA3D3E90023FAF7C7FE02460B461446CE
:105880001D46FB881846FAF755FE02460B46204691
:105890002946FAF7E3FF02460B4610461946FBF786
:1058A00095F90346FB6097ED037ADFED1B6AC7EEBF
:1058B000267AC7ED027A97ED020A03F003FC87ED22
:1058C000020A97ED027ADFED156AC7EE267AC7ED78
:1058D000027AD7ED027A9FED127A77EE877AC7EDDA
:1058E000027AF7EE006A97ED027AC6EE877AC7ED84
:1058F000027AD7ED027A9FED0B7A77EEC77AC7ED81
:10590000027ABB6807EE903AB0EE670A1037BD46E0
:10591000B0BD00BFAFF3008000401C4600E07645FC
:105920000FCF5B3B339388430000000000FEAF4085
:10593000000000000088C34080B483B000AF7860EE
:1059400072B600BF7B680022A3F800217B680022AA
:10595000A3F802217B680022A3F8042162B600BFED
:1059600000BF0C37BD465DF8047B704780B483B040
:1059700000AF78607B68B3F804319BB2B3F5807FE9
:105980000CBF01230023DBB218460C37BD465DF87F
:10599000047B704780B483B000AF78607B68B3F855
:1059A00004319BB2002B0CBF01230023DBB218464D
:1059B0000C37BD465DF8047B704780B483B000AF00
:1059C00003463960FB713B683A68B2F8002192B235
:1059D0001344FA791A7072B600BF3B68B3F800310D
:1059E0009BB201339BB2DBB29AB23B68A3F80021B1
:1059F0003B68B3F804319BB201339AB23B68A3F819
:105A0000042162B600BF00BF0C37BD465DF8047BC1
:105A1000704780B485B000AF78607B687A68B2F870
:105A2000022192B213441B78FB7372B600BF7B68ED
:105A3000B3F802319BB201339BB2DBB29AB27B68FE
:105A4000A3F802217B68B3F804319BB2013B9AB200
:105A50007B68A3F8042162B600BFFB7B18461437AD
:105A6000BD465DF8047B704780B483B000AF7860BA
:105A70007B681B6803F00203022B0CBF0123002389
:105A8000DBB218460C37BD465DF8047B704780B426
:105A900083B000AF78607B681B6803F00403042BBD
:105AA0000CBF01230023DBB218460C37BD465DF85E
:105AB000047B704780B483B000AF78607B681B685C
:105AC00003F00803082B0CBF01230023DBB21846A8
:105AD0000C37BD465DF8047B704780B483B000AFDF
